:100000000C94D7000C94FF000C94FF000C94FA079A
:100010000C94FA070C94FA070C94FF000C94FF0060
:100020000C94FF000C94FF000C94FF000C94FF0054
:100030000C94FF000C94FF000C94FF000C94FF0044
:100040000C9427040C94FF000C9403030C94DD0221
:100050000C94FF000C94FF000C94FF000C94FF0024
:100060000C946B050C94FF0074187718B918F818E5
:100070004E198719EA194D1A8C1AF71A421B0000FB
:100080000000240027002A000000000800020100F0
:1000900000030407000000000000000053756D61BC
:1000A000207679726F627900756B6C6164616D2E78
:1000B0002E2E0020202A4E4153544156454E492AA7
:1000C000202020002000546F7661726E6920524516
:1000D000534554004D61782E20686F646E6F7479BB
:1000E00000506F6473766963656E69204C43440009
:1000F0004B6F6D756E696B616365004B616C696216
:10010000726163652041004B616C69627261636575
:100110002056004944206D656E6963652F616472E5
:1001200065736100506572696F64612074657374F2
:1001300075205641004D61782E76796B6F6E004DBB
:1001400061782E7465706C6F746100457869740015
:100150004B013F013501240113010701FB00F000B1
:10016000E100D400C600C400B300A8009C00000059
:100170000000250028002B000000000023002600BE
:10018000290004040404040404040202020202021A
:10019000030303030303010204081020408001024B
:1001A000040810200102040810204F1E451E1124CF
:1001B0001FBECFEFD8E0DEBFCDBF12E0A0E0B1E0C0
:1001C000EAEDF9E402C005900D92A03DB107D9F720
:1001D00025E0A0EDB2E001C01D92AB36B207E1F719
:1001E00010E0C6EDD0E004C02197FE010E94B322CA
:1001F000C53DD107C9F70E940F110C94E0240C945F
:100200000000FC01538D448D252F30E0842F90E0B9
:10021000821B930B541710F0CF9608950197089501
:10022000FC01918D828D981761F0828DDF01A80FFE
:10023000B11D5D968C91928D9F5F9F73928F90E020
:1002400008958FEF9FEF0895FC01918D828D98178F
:1002500031F0828DE80FF11D858D90E008958FEFCC
:100260009FEF0895FC01918D228D892F90E0805C95
:100270009F4F821B91098F739927089584E294E020
:100280000E94320121E0892B09F420E0822F089599
:10029000FC01848DDF01A80FB11DA35ABF4F2C9123
:1002A000848D90E001968F739927848FA689B789F2
:1002B0002C93A089B1898C9180648C93938D848DCB
:1002C000981306C00288F389E02D80818F7D80839A
:1002D0000895EF92FF920F931F93CF93DF93EC015A
:1002E00081E0888F9B8D8C8D981305C0E889F989F2
:1002F000808185FD24C0F62E0B8D10E00F5F1F4F0F
:100300000F731127E02E8C8DE8120CC00FB607FC7E
:10031000FACFE889F989808185FFF5CFCE010E9467
:100320004801F1CF8B8DFE01E80FF11DE35AFF4F1D
:10033000F0820B8FEA89FB898081806207C0EE8999
:10034000FF896083E889F98980818064808381E006
:1003500090E0DF91CF911F910F91FF90EF90089562
:10036000CF93DF93EC01888D8823C9F0EA89FB895C
:10037000808185FD05C0A889B9898C9186FD0FC053
:100380000FB607FCF5CF808185FFF2CFA889B98928
:100390008C9185FFEDCFCE010E944801E7CFDF9120
:1003A000CF91089580E090E0892B29F00E943E01D2
:1003B00081110C9400000895833081F028F481307D
:1003C00099F08230A1F008958730A9F08830B9F013
:1003D0008430D1F4809180008F7D03C080918000B3
:1003E0008F7780938000089584B58F7702C084B59D
:1003F0008F7D84BD08958091B0008F7703C0809178
:10040000B0008F7D8093B00008953FB7F89480913D
:10041000740390917503A0917603B091770326B58C
:10042000A89B05C02F3F19F00196A11DB11D3FBF2C
:10043000BA2FA92F982F8827820F911DA11DB11DBA
:10044000BC01CD0142E0660F771F881F991F4A95B6
:10045000D1F7089521E001C0220F6A95EAF7DC0187
:100460001C962C931C971A965C934E931997ED91BA
:10047000FC910484F585E02D60E00994DC01ED91A8
:10048000FC910684F785E02D41E0099581E090E03C
:100490000895089508950E94CB24FC01238122230E
:1004A000B9F09181909569236083828191E0909366
:1004B000000480932204109201041092230481EC22
:1004C00094E00E9417070E94A50F282F30E002C079
:1004D00020E030E081E090E0232B11F080E090E01C
:1004E0000895EF92FF920F931F93CF938C01FC011D
:1004F000759684E0C0E060FF02C09081C92B6695CC
:10050000815031968111F7CF413011F4F8014489BF
:10051000F8018585C82BC42B7801FEE0EF0EF11C95
:10052000F80162896C2BC7010E944D02F8016289B3
:1005300060956C23C701CF911F910F91FF90EF90B1
:100540000C944D020F931F93CF93DF93062F0F70E0
:10055000423019F440E0602F10C0142F262FEC0118
:1005600030E0B90184E0759567958A95E1F7CE0191
:100570000E947102412F602FCE01DF91CF911F9118
:100580000F910C947102FC0184858823A9F02185C8
:1005900032852115310519F4611106C007C02130DB
:1005A000310521F4611102C0858701C0158665857A
:1005B000CF010E960C944D0208951F920F920FB624
:1005C0000F9211242F933F934F935F936F937F93D9
:1005D0008F939F93AF93BF93EF93FF9384E294E045
:1005E0000E944801FF91EF91BF91AF919F918F9130
:1005F0007F916F915F914F913F912F910F900FBE1F
:100600000F901F9018951F920F920FB60F92112402
:100610002F938F939F93EF93FF93E0913404F09186
:1006200035048081E0913A04F0913B0482FD12C0D0
:10063000908180913D048F5F8F7320913E048217DB
:1006400051F0E0913D04F0E0EC5DFB4F958F80931D
:100650003D0401C08081FF91EF919F918F912F9177
:100660000F900FBE0F901F901895CF93DF93282FF8
:1006700030E0F901E857FF4F8491F901EA56FE4F47
:10068000D491F901EE57FE4FC491CC2391F0811122
:100690000E94DC01EC2FF0E0EE0FFF1FE858FE4F48
:1006A000A591B491EC91ED2381E090E021F480E0FC
:1006B00002C080E090E0DF91CF9108951F93CF9327
:1006C000DF93282F30E0F901E857FF4F8491F901BB
:1006D000EA56FE4FD491F901EE57FE4FC491CC2358
:1006E000C9F0162F81110E94DC01EC2FF0E0EE0F13
:1006F000FF1FE259FE4FA591B4918FB7F8941111E5
:1007000005C09C91ED2FE095E92302C0EC91ED2B03
:10071000EC938FBFDF91CF911F910895CF93DF931B
:1007200090E0FC01EA56FE4F2491FC01EE57FE4F8B
:100730008491882361F190E0880F991FFC01E258B1
:10074000FF4FC591D491FC01E259FE4FA591B491A0
:10075000611109C09FB7F89488812095822388830E
:10076000EC912E230BC0623061F49FB7F89438816E
:10077000822F809583238883EC912E2B2C939FBF0F
:1007800006C08FB7F894E8812E2B28838FBFDF91A6
:10079000CF9108958E3008F08E50877080648093DA
:1007A0007C0080917A00806480937A0080917A0046
:1007B00086FDFCCF809178002091790090E0922B0B
:1007C00008958F929F92AF92BF92CF92DF92EF9255
:1007D000FF926B017C010E9405024B015C01C11478
:1007E000D104E104F104F1F00E940502DC01CB0127
:1007F00088199909AA09BB09883E9340A105B1054A
:1008000070F321E0C21AD108E108F10888EE880EE1
:1008100083E0981EA11CB11CC114D104E104F104B1
:1008200019F7DDCFFF90EF90DF90CF90BF90AF90A2
:100830009F908F9008952FB7F894609170037091F6
:10084000710380917203909173032FBF08951F92DB
:100850000F920FB60F9211242F933F938F939F9374
:10086000AF93BF938091700390917103A091720335
:10087000B091730330916F0323E0230F2D3720F4E1
:100880000196A11DB11D05C026E8230F0296A11DEA
:10089000B11D20936F038093700390937103A09315
:1008A0007203B09373038091740390917503A091C8
:1008B0007603B09177030196A11DB11D8093740357
:1008C00090937503A0937603B0937703BF91AF9194
:1008D0009F918F913F912F910F900FBE0F901F907E
:1008E0001895DC01ED91FC910684F785E02D40E040
:1008F000099461E00E9471048BE39FE10197F1F795
:1009000008950F931F93CF93DF93EC01423018F0BB
:100910008C8188608C834F836887222329F0413043
:1009200019F48C8184608C8364E670E080E090E050
:100930000E94E1036C8164FD31C0E881F981068485
:10094000F785E02D42E063E0CE0109958BE496E463
:100950000197F1F7E881F9810684F785E02D42E0FF
:1009600063E0CE01099503E512E0C8010197F1F7B4
:10097000E881F9810684F785E02D42E063E0CE014D
:100980000995C8010197F1F7E881F9810684F78597
:10099000E02D42E062E0CE01099517C06062CE0111
:1009A0000E9471048BE496E40197F1F76C81606218
:1009B000CE010E94710403E512E0C8010197F1F72E
:1009C0006C816062CE010E947104C8010197F1F749
:1009D0006C816062CE010E9471048BEE90E0019701
:1009E000F1F784E08D836CE0CE010E947104CE01AA
:1009F0000E94790482E08E8366E0CE010E94710439
:100A0000E881F9810484F585E02D6FEFCE01DF9157
:100A1000CF911F910F910994EF92FF920F931F9323
:100A2000CF93DF93EC01062FF42EE22E8B85888B7B
:100A3000109248031092470310920104109223046D
:100A40001092FF0311E01093FE031092D90361E0AE
:100A500082E10E945E0361E083E10E945E03809177
:100A6000B9008E7F8093B9008091B9008D7F80930B
:100A7000B90088E48093B80085E48093BC0088893D
:100A80001093000480932204109201041092230416
:100A90000E94A50F91E0811190E0998B992329F094
:100AA00081EC94E00E94D0068E878989882339F0F2
:100AB0001F861C8260E0CE010E960E944D022E2DF4
:100AC0004F2D602FCE01DF91CF911F910F91FF909D
:100AD000EF900C9481041F920F920FB60F92112485
:100AE0002F933F934F935F936F937F938F939F9336
:100AF000AF93BF93EF93FF938091B900887F8036C7
:100B000009F49CC068F5883209F45BC090F4803128
:100B100009F454C038F4882309F4F6C0883009F485
:100B20004DC0F6C0883109F44CC0803209F45DC074
:100B3000EFC0803409F468C048F4803309F455C02C
:100B4000883309F0E5C08093FD03D8C0803509F4EF
:100B50004FC0883509F45DC0883409F0D9C0D6C0CB
:100B6000883909F4C7C0A8F4883709F467C038F495
:100B7000883609F463C0803709F460C0C9C088387A
:100B800009F4B8C0803909F45FC0803809F0C0C0EA
:100B90005BC0803B09F486C038F4803A09F466C033
:100BA000883A09F47FC0B4C0803C09F4A7C0883CEF
:100BB00009F4A4C0883B09F48AC0AAC08091DA0372
:100BC00010C09091FC038091FB03981770F5E091A1
:100BD000FC0381E08E0F8093FC03F0E0E552FC4FB4
:100BE00080818093BB0085EC86C08093FD038EC01E
:100BF000E091FC0381E08E0F8093FC038091BB00A9
:100C0000F0E0E552FC4F80839091FC038091FB0360
:100C10006EC0E091FC0381E08E0F8093FC03809115
:100C2000BB00F0E0E552FC4F80838091FE03811110
:100C30006DC081E08093D90384EA61C083E0809332
:100C4000FF0310926E03CFCF80916E03803208F0C5
:100C500051C0E0916E0381E08E0F80936E0380910E
:100C6000BB00F0E0E25BFC4F8083BDCF85EC80935E
:100C7000BC001092FF0380916E03803230F4E0914B
:100C80006E03F0E0E25BFC4F108260916E0370E057
:100C9000E0914C03F0914D038EE493E0099510929E
:100CA0006E0336C084E08093FF0310924B031092D2
:100CB0004603E0914903F0914A0309958091460368
:100CC000811105C081E08093460310922603E091D4
:100CD0004B0381E08E0F80934B03F0E0EA5DFC4F05
:100CE00080818093BB0090914B03809146039817BD
:100CF00008F479CF85E88093BC000AC085EC809326
:100D0000BC001092FF0304C01092FD030E94F00784
:100D1000FF91EF91BF91AF919F918F917F916F91D3
:100D20005F914F913F912F910F900FBE0F901F90A9
:100D3000189540914603262F30E0240F311D2132B3
:100D40003105DCF42091FF032430C9F4FC0180E07C
:100D500090E0861758F4309146032191DC01AA5D9A
:100D6000BC4FA30FB11D2C930196F3CF8091460386
:100D7000680F6093460380E0089581E0089582E063
:100D80000895089581E090E0309148032091470351
:100D9000321710F480E090E09195819591090895C3
:100DA0008091480390914703891730F48F5F8093B7
:100DB000480380E090E008958FEF9FEF08958091C1
:100DC000470390E020914803821B91090895CF9238
:100DD000DF92EF92FF920F931F93CF93DF937C01EB
:100DE000262F972F8A0180910004882391F0C62F27
:100DF000D72F6E01C40ED51ECC15DD0571F069919B
:100E0000D701ED91FC910190F081E02DC70109958A
:100E1000F3CF642F822F0E949906C801DF91CF91F2
:100E20001F910F91FF90EF90DF90CF900895CF9397
:100E3000DF931F92CDB7DEB7698320910004222390
:100E4000D1F020912304203240F021E030E0FC0179
:100E50003383228380E090E015C080910104E82F65
:100E6000F0E0EE5FFB4F998190838F5F80930104E8
:100E70008093230405C061E0CE0101960E9499068B
:100E800081E090E00F90DF91CF9108952091D20200
:100E90003091D3022817390771F49091D0028091D4
:100EA000D102981741F0E091D002F0E0E756FC4FF4
:100EB000808190E008958FEF9FEF089508951F932C
:100EC000CF93DF93DC015C962D913C915D972115CA
:100ED000310539F481E090E013969C938E9312973C
:100EE0003DC05196ED91FC91529750969C91509730
:100EF000892F80951FB75E964C915E9741FB7727AF
:100F000070F941FD6095F8944081772311F0492BE9
:100F100001C048234083E9012197F1F748E050815F
:100F200060FF02C0592B01C058235083E90121976B
:100F3000F1F76695415099F7772321F09081892345
:100F4000808303C08081982B90831FBF5C968D9116
:100F50009C915D970197F1F721E030E0C901DF91A5
:100F6000CF911F9108952091D2023091D30228177A
:100F7000390771F48091D1022091D00290E0805C19
:100F80009F4F821B910960E470E00E949F220895A8
:100F900080E090E008952091D2023091D30228178A
:100FA0003907B9F49091D0028091D102981789F055
:100FB000E091D002F0E0E756FC4F80812091D00212
:100FC00030E02F5F3F4F2F7333272093D00290E004
:100FD00008958FEF9FEF0895089580E090E00895C1
:100FE00085ED8093BC008091BC0084FDFCCF109205
:100FF000FF0308951F920F920FB60F9211242F93A3
:101000003F934F935F936F937F938F939F93AF9390
:10101000BF93EF93FF93E091D202F091D302309708
:1010200009F451C0968DA685B785858591FF04C0CA
:101030009C91892329F447C09C91892309F043C0DE
:10104000A389B4899C918589809589238C9386890D
:1010500097890197F1F7608D718DA685B7855585C4
:1010600038E020E0CB010197F1F7822F90E09595D1
:101070008795282F4C91452309F02068315091F72E
:10108000868D81FD20958091D10290E001968F732D
:1010900099273091D002381749F0A091D102B0E0E1
:1010A000A756BC4F2C938093D10203C0868D8160DC
:1010B000868F828D938D0197F1F7A389B4899C91D6
:1010C0008589892B8C93FF91EF91BF91AF919F916F
:1010D0008F917F916F915F914F913F912F910F90E1
:1010E0000FBE0F901F901895E091D202F091D3029D
:1010F000E817F90769F4A389B4899C9185898095DB
:1011000089238C931092D3021092D20281E0089529
:1011100080E008950F931F93CF93DF938C01EB0131
:101120000E9482208883C80101960E9482208983C0
:1011300082E090E0DF91CF911F910F910895EF929F
:10114000FF920F931F93CF93DF937C018B01C0E03D
:10115000D0E0F80161918F01CE018E0D9F1D0E949C
:101160008A202196C430D105A1F784E090E0DF9178
:10117000CF911F910F91FF90EF9008950F931F93C0
:10118000CF93DF93EC018B01FB0160810E948A20E9
:10119000F8016181CE0101960E948A2082E090E0F0
:1011A000DF91CF911F910F910895EF92FF920F93CE
:1011B0001F93CF93DF938B010C5F1F4FEB017C01DB
:1011C000E61AF70AC7018C0F9D1F0E94822089939F
:1011D000C017D107B9F784E090E0DF91CF911F915C
:1011E0000F91FF90EF900895CF93DF93A89581E141
:1011F0000E94CA03EC016AE070E080E090E00E9487
:10120000E10381E10E94CA039E01281B390BC90139
:1012100037FF03C09195819591090C97F4F4CE01A5
:10122000875C92408935910510F482E301C08CE31C
:101230009E01295532402336310508F48EE19E0186
:10124000215931402539310508F488E2C35DD109BF
:10125000C935D10518F484E101C08CE3DF91CF9149
:101260000895CF93DF93CDB7DEB765970FB6F894A7
:10127000DEBF0FBECDBF880F991FFC01E05BFE4FA4
:1012800065917491CE0101960E945C1FCE0101967A
:101290000E94911068E270E080E090E00E94E1031B
:1012A00065960FB6F894DEBF0FBECDBFDF91CF912C
:1012B00008958DEC94E00E94790460E08DE090E068
:1012C0000E94940F64EF71E080E090E00E94E103DF
:1012D0001092F5020895CF92DF92EF92FF928DEC7B
:1012E00094E00E9479048EE090E00E94310961E070
:1012F00080E00E945A0F8091D4029091D502A09173
:10130000D602B091D70280389649A849B10520F499
:1013100085E692E00E9491108091D4029091D502CE
:10132000A091D602B091D70280349244AF40B1056B
:1013300020F485E692E00E9491108091D402909171
:10134000D502A091D602B091D702803A9648A1402A
:10135000B10520F485E692E00E9491108091D402BC
:101360009091D502A091D602B091D70280319742D8
:10137000A105B10520F485E692E00E9491106091EC
:10138000D4027091D5028091D6029091D70228EEB6
:10139000C22E23E0D22EE12CF12CA70196010E944F
:1013A000F920CA01B9014AE00E9496108CE792E048
:1013B0000E9491106091D4027091D5028091D60262
:1013C0009091D702A70196010E94F92024E630E00F
:1013D00040E050E00E94F920CA01B9014AE00E94B1
:1013E00096108BEB92E00E9491106091D204862FB0
:1013F00081608093D20469608DEC94E0FF90EF905F
:10140000DF90CF900C947104CF92DF92EF92FF9215
:101410000E941B046093FB027093FC028093FD0208
:101420009093FE02C090F102D090F202E090F3029D
:10143000F090F40220E1C20E27E2D21EE11CF11C62
:10144000C616D706E806F90610F41092FF0280913E
:10145000FF028111A9C0C0909503D0909603E0903F
:101460009703F09098030E941B046C157D058E0570
:101470009F0568F4A7019601261B370B480B590BF3
:10148000DA01C90180959095A095B09506C0DC0160
:10149000CB018C199D09AE09BF098C329140A10581
:1014A000B10508F481C00E941B04609395037093FA
:1014B000960380939703909398038091DD02909117
:1014C000DE02009719F488E190E014C02091080131
:1014D0003091090182179307DCF0809118019091F7
:1014E00019010497909319018093180105974CF402
:1014F00085E090E0909319018093180181E090E0DD
:1015000002C082E090E090931701809316014CC0D6
:1015100020911601309117012130310521F0223040
:101520003105D1F03DC0209193033091940382178F
:1015300093077CF020911801309119012D5F3F4FE6
:10154000283F3105E4F027EF30E030931901209374
:10155000180122E030E020C02091930330919403E1
:1015600082179307BCF018161906A4F420911801ED
:101570003091190122503109253031052CF030937A
:101580001901209318010CC025E030E030931901B7
:101590002093180121E030E03093170120931601C9
:1015A0009093940380939303FF90EF90DF90CF90FC
:1015B00008954F925F926F927F928F929F92AF9217
:1015C000BF92CF92DF92EF92FF920F931F93CF9330
:1015D000DF93CDB7DEB7A0970FB6F894DEBF0FBE8E
:1015E000CDBFA8958EE480937C0062E070E080E03F
:1015F00090E00E94E10380917A00806480937A00F9
:1016000080917A0086FDFCCF80917800209179004E
:1016100030E0322F2227A901330F660B770B9A0196
:10162000AB01282B60E070E381E190E00E949820FC
:1016300029833A834B835C833093920320939103F5
:1016400009811A81B801110F880B990B0E94651F3F
:1016500069877A878B879C8720E030E04AE754E4EB
:101660000E9497216D877E878F87988B60938D036B
:1016700070938E0380938F039093900308EC10E097
:10168000C12CD12C760140E050E0BA01812C912C84
:1016900054018FE04D8F5E8F6F8F78A30E94CA0335
:1016A000092E000CAA0BBB0B4D8D5E8D6F8D78A1A2
:1016B000480F591F6A1F7B1F80E14D8F5E8F6F8F10
:1016C00078A30E94CA03092E000CAA0BBB0B880E3C
:1016D000991EAA1EBB1E8EE00E94CA03092E000C92
:1016E000AA0BBB0BC80ED91EEA1EFB1E0150110926
:1016F0004D8D5E8D6F8D78A10115110551F698EC19
:10170000492E512C612C712CCB01BA01A3019201FD
:101710000E94F920298B3A8B4B8B5C8B30938C0386
:1017200020938B03C501B401A30192010E94F9200B
:101730002D8B3E8B4F8B588F30938A0320938903D8
:10174000C701B601A30192010E94F920298F3A8FA7
:101750004B8F5C8F2D833E834F83588729893A892D
:10176000B901330F880B990B0E94651F6B017C0137
:1017700020E030EC4FE754E469857A858B859C85C1
:101780000E9497219B01AC01C701B6010E94C41FB2
:101790006B017C0169817A8177FF02C06F5F7F4FA7
:1017A00075956795072E000C880B990B0E94651F95
:1017B0009B01AC01C701B6010E942A216B017C018B
:1017C00020E030E048EC52E40E9497214B015C019C
:1017D0008091E5029091E6026AE070E00E949F220B
:1017E000072E000C880B990B0E94651F9B01AC0112
:1017F000C501B4010E94C41F9B01AC01C701B60121
:101800000E942B2160938503709386038093870346
:10181000909388030E9409226A3071052CF070931E
:10182000E0026093DF0204C01092E0021092DF0237
:101830008091DF029091E002803B944024F081E0AF
:101840008093840302C0109284038BE00E943503CE
:10185000892B19F481E0809300036091DF0270917D
:10186000E002072E000C880B990B0E94651F2B01CC
:101870003C01AD89BE89BD01BB0F880B990B0E944D
:10188000651F2D853E854F8558890E94C41F20E025
:1018900030EC4FE754E40E94972121E43AEE40E413
:1018A0005CE30E9497216B017C0120E030E048EC72
:1018B00052E40E9497214B015C018091E3029091D8
:1018C000E4026AE070E00E949F22072E000C880B61
:1018D000990B0E94651F9B01AC01C501B4010E94D8
:1018E000C41F9B01AC01C701B6010E942B214B0113
:1018F0005C010E9409226B017C017093E2026093FB
:10190000E102A3019201C501B4010E94C41F20E0BD
:1019100030E048EC52E40E9497216093800370937A
:10192000810380938203909383030E940922709322
:10193000DE026093DD028091EB029091EC028C1547
:101940009D0554F4D092EC02C092EB026BEE72E073
:1019500086E190E00E94BE088091DF029091E00253
:101960002091E9023091EA022817390754F4909344
:10197000EA028093E90269EE72E088E190E00E9459
:10198000BE088091DD029091DE022091E702309145
:10199000E8022817390754F49093E8028093E7028D
:1019A00067EE72E08AE190E00E94BE08098D1A8D10
:1019B0002B8D3C8D0D3F13402105310540F005EB8B
:1019C00011E020E030E00D831E832F833887C09024
:1019D0008D03D0908E03E0908F03F09090032D81C3
:1019E0003E81B901330F880B990B0E94651F4B0193
:1019F0005C0120E030EC4FE754E4C701B6010E94DF
:101A000097219B01AC01C501B4010E94C41F4B0189
:101A10005C0120E030E849E055E40E94C41F2B013E
:101A20003C01A5019401C701B6010E942A219B0136
:101A3000AC01C301B2010E9497219B01AC0160E09F
:101A400070E08AEF94E40E942A2121EA34E849E117
:101A50005EE30E94C41F9B01AC0160EE7FEF87E74D
:101A600093E40E942A210E944A222FEC37EF4BE791
:101A700051E40E942A2121EA34E849E95DE30E9409
:101A8000972120E030E048EC51E40E942B210E9495
:101A90000922709302036093010340907C035090ED
:101AA0007D0360907E0370907F030E941B046B0196
:101AB0007C0160937C0370937D0380937E039093FD
:101AC0007F036091DD027091DE02072E000C880B0F
:101AD000990B0E94651F4B015C01C701B601641997
:101AE0007509860997090E94631F20E03AEB4BE5D0
:101AF0005AE40E9497219B01AC01C501B4010E94E8
:101B0000C41F209178033091790340917A0350915A
:101B10007B030E942B216B017C0120E030E040E838
:101B20005FE30E943F2218164CF0C0927803D092D7
:101B30007903E0927A03F0927B033CC020E030E02E
:101B400040E85FE3C701B6010E942A216093780351
:101B50007093790380937A0390937B038091F602CC
:101B60009091F702A091F802B091F9020196A11D9F
:101B7000B11D811531EE930735EFA30735E0B307AB
:101B800048F48093F6029093F702A093F802B09382
:101B9000F90210C01092F6021092F7021092F802A9
:101BA0001092F9021092D9021092DA021092DB021E
:101BB0001092DC028091F6029091F702A091F80257
:101BC000B091F9024091D9025091DA026091DB02A2
:101BD0007091DC028C019D01041B150B260B370B49
:101BE000043611052105310558F021E02093FA0251
:101BF0008093D9029093DA02A093DB02B093DC02C7
:101C0000A0960FB6F894DEBF0FBECDBFDF91CF9187
:101C10001F910F91FF90EF90DF90CF90BF90AF900A
:101C20009F908F907F906F905F904F9008950F934B
:101C30001F938C0180918403882319F109511109A4
:101C40000530110514F405E010E01093190100931C
:101C5000180182E090E090931701809316018DECBB
:101C600094E00E94790460E080E00E945A0F8FEBBC
:101C700092E00E949110083F110554F007EF10E028
:101C800007C0083F1105D4F717FF02C000E010E0BD
:101C9000F89483E18093810084EC99E0909387002D
:101CA0008093860025E0209FC001219F900D112484
:101CB00090938900809388002BEF2003C001219F1F
:101CC000900D11248C53964F90938B0080938A0033
:101CD00084B1866084B980EB8093800078941F91F2
:101CE0000F910895CF92DF92EF92FF921F93CF93BF
:101CF000DF93D1E015E20E94F408C82F6CE370E096
:101D000080E090E00E94E10384E00E943503892B8B
:101D100079F4209101033091020380911A0190918E
:101D20001B012817390724F48091D8028823C9F1B0
:101D300010921901109218018091180190911901C7
:101D40000E94170ED09300041093220410920104F5
:101D5000109223046091100181EC94E00E94170717
:101D60000E94A50F0E941B04C090ED02D090EE02CD
:101D7000E090EF02F090F00220E1C20E27E2D21EC6
:101D8000E11CF11CC616D706E806F90618F41092F5
:101D9000F5020CC0CC3351F48091F5028111ABCF28
:101DA00005C00E94D90A0E94040AC6CF0E941B04E3
:101DB0006093ED027093EE028093EF029093F00235
:101DC00060E570E080E090E00E94E1038C2FDF91FD
:101DD000CF911F91FF90EF90DF90CF900895CF9219
:101DE000DF92EF92FF920F931F93CF93DF936C01DB
:101DF0007A018B01C0E0D0E0CE15DF0589F0D80173
:101E00006D918D01D601ED91FC910190F081E02D55
:101E1000C6010995892B11F47E0102C02196ECCFF1
:101E2000C701DF91CF911F910F91FF90EF90DF904D
:101E3000CF900895EF92FF920F931F93CF93DF936C
:101E4000EC017B018A0188819981009729F02A8120
:101E50003B8124173507F8F4B8016F5F7F4F0E946C
:101E60000124009759F0998388831B830A832C816E
:101E70003D81232B81F4FC0110820DC08881998162
:101E8000009711F00E946923198218821D821C821A
:101E90001B821A8207C01D830C83B7018881998138
:101EA0000E94D924CE01DF91CF911F910F91FF9015
:101EB000EF900895CF93DF93CDB7DEB728970FB695
:101EC000F894DEBF0FBECDBF1D8290E49E8324E157
:101ED0002F8324E5288719829A8390E19B8390E5DC
:101EE0009C839091D404691710F06FEF690F4091B3
:101EF000D504262F30E0FE01E20FF31F403121F41C
:101F0000943011F4918101C09581682F690F606848
:101F10008DEC94E028960FB6F894DEBF0FBECDBFCF
:101F2000DF91CF910C947104CF93DF93EC0180E0AB
:101F30000E945A0F64E170E080E090E00E94E103AB
:101F4000CE01DF91CF910C9431092091230490911F
:101F50002204213208F04AC08091FF038111FCCF96
:101F600032E03093FF0331E03093FE033FEF3093D4
:101F7000FD031092FC032093FB03A2E0B4E04BEDC1
:101F800053E0FA013E2F341B321718F43D91319380
:101F9000F9CF1092DA032091DA03990F922B9093E4
:101FA000DA039091D903913061F41092D9039091A2
:101FB000DA039093BB009091BC0093FDF8CF95ECB1
:101FC00001C095EE9093BC009091FF039230E1F335
:101FD0009091FD039F3F79F08091FD03803241F0A5
:101FE0008091FD03803331F084E005C081E003C0BF
:101FF00082E001C083E01092010410922304109249
:1020000000040895FC01118210821382128215824D
:1020100014826115710551F0FB0101900020E9F770
:102020003197AF01461B570B0C941A0F0895BF92BE
:10203000CF92DF92EF92FF920F931F93CF93DF9394
:102040007C016B01EA0189012417350720F48D2FEB
:10205000E901042F182F66E771E0C7010E94021002
:10206000D60114968D919C911597C817D907C8F57C
:102070008017910708F48C01D601ED91FC9111971E
:10208000E00FF11FB08010824D915C91BA016C0F8E
:102090007D1F6115710561F0FB0101900020E9F7DA
:1020A0003197AF01461B570BC7010E941A0F13C08F
:1020B000F70180819181009711F00E946923D70177
:1020C00011961C921E9215961C921E9214971396AE
:1020D0001C921E921297D601ED91FC91E00FF11F18
:1020E000B082C701DF91CF911F910F91FF90EF90C8
:1020F000DF90CF90BF9008956115710579F0FB01D5
:1021000001900020E9F73197AF01461B570BDC0126
:10211000ED91FC910280F381E02D099480E090E044
:102120000895BC018DEC94E00C947C108F929F92EA
:10213000AF92BF920F931F93CF93DF93CDB7DEB7CC
:10214000A1970FB6F894DEBF0FBECDBF19A24230E3
:1021500008F44AE08E010F5D1F4F842E912CA12CB4
:10216000B12CA50194010E94F920E62FB901CA0102
:1021700001501109EA3014F4E05D01C0E95CD801B6
:10218000EC93232B242B252B61F7B8018DEC94E0E5
:102190000E947C10A1960FB6F894DEBF0FBECDBF93
:1021A000DF91CF911F910F91BF90AF909F908F9033
:1021B0000895CF92DF92EF92FF92CF93DF936C015D
:1021C000990FEE08FF08F7FE1FC0E091CD04F091D3
:1021D000CE040190F081E02D6DE28DEC94E0099544
:1021E000EC0166277727CB016C197D098E099F09C1
:1021F0004AE00E9496108C0F9D1FDF91CF91FF90B7
:10220000EF90DF90CF9008954AE0C701B601DF91CB
:10221000CF91FF90EF90DF90CF900C949610CF93DA
:10222000DF93CDB7DEB763970FB6F894DEBF0FBE6E
:10223000CDBF789484B5826084BD84B5816084BD4F
:1022400085B5826085BD85B5816085BD80916E0054
:10225000816080936E001092810080918100826085
:1022600080938100809181008160809381008091C2
:1022700080008160809380008091B10084608093B1
:10228000B1008091B00081608093B00080917A00AD
:10229000846080937A0080917A00826080937A00D3
:1022A00080917A00816080937A0080917A008068C2
:1022B00080937A001092C10099E288E10FB6F894F9
:1022C000A895809360000FBE90936000A89561E090
:1022D00084E10E948E0360E084E10E945E0361E07D
:1022E00085E10E948E0360E085E10E945E0361E06B
:1022F00082E00E948E0360E082E00E945E0361E063
:1023000083E00E948E0360E083E00E945E036BE046
:1023100073E08CEF93E00E94D50880910B039091BD
:102320000C03A0910D03B0910E038A3A9241A8408C
:10233000B14709F47CC064E171E082E090E00E9462
:10234000BE0862E171E086E090E00E94BE0865E1AF
:1023500073E088E090E00E949F086CE171E08CE0FF
:1023600090E00E94BE086AE171E08EE090E00E9479
:10237000BE0868E071E080E190E00E94BE086CE079
:1023800071E082E190E00E94BE086AE071E084E1C1
:1023900090E00E94BE086BEE72E086E190E00E9441
:1023A000BE0869EE72E088E190E00E94BE0867EE28
:1023B00072E08AE190E00E94BE0863EE72E08CE178
:1023C00090E00E94BE0865EE72E08EE190E00E940F
:1023D000BE086EE071E080E290E00E94BE0860E11D
:1023E00071E082E290E00E94BE0866EF72E08091A8
:1023F0001401909115010E949F0869E173E080919A
:102400001201909113010E949F088AEA92E1A8E0CC
:10241000B1E780930B0390930C03A0930D03B0934B
:102420000E036BE073E08CEF93E00E949F0864E181
:1024300071E082E090E00E948A0862E171E086E04B
:1024400090E00E948A0865E173E088E090E00E94D5
:10245000D5086CE171E08CE090E00E948A086AE1A6
:1024600071E08EE090E00E948A0868E071E080E10F
:1024700090E00E948A086CE071E082E190E00E94A6
:102480008A086AE071E084E190E00E948A086BEEBD
:1024900072E086E190E00E948A0869EE72E088E1CD
:1024A00090E00E948A0867EE72E08AE190E00E9464
:1024B0008A0863EE72E08CE190E00E948A0865EE83
:1024C00072E08EE190E00E948A086EE071E080E2A6
:1024D00090E00E948A0860E171E082E290E00E9450
:1024E0008A0866EF72E080911401909115010E94B4
:1024F000D50869E173E080911201909113010E9467
:10250000D5088091F6029091F702A091F802B0915F
:10251000F9028093D9029093DA02A093DB02B09380
:10252000DC0260E08BE00E948E0361E087E00E94A5
:102530008E0360E087E00E945E0361E08DE00E9410
:102540008E0361E08DE00E948E0360E08DE00E94CA
:102550005E0362E085E00E948E0362E084E00E94F8
:102560008E03E0913404F091350482E08083E091A1
:102570003004F09131041082E0913204F091330480
:1025800080E1808310923C04E0913804F09139049A
:1025900086E08083E0913604F09137048081806189
:1025A0008083E0913604F0913704808188608083D5
:1025B000E0913604F0913704808180688083E09157
:1025C0003604F091370480818F7D80836EE671E060
:1025D00084E294E00E947C1064E771E084E294E07D
:1025E0000E947C10109263051092620510926105A2
:1025F0001092600510925F0510925E058DE991E0E2
:10260000909365058093640590915405963108F088
:1026100057C02DEB30E030935F0520935E052BE92A
:1026200031E030936105209360052CE231E0309376
:1026300063052093620520916800983050F031E0E6
:102640009E3008F430E081E001C0880F3A95EAF747
:1026500001C084E0822B80936800983038F09E306F
:1026600040F0963148F020E030E008C02DE630E040
:1026700005C02BE630E002C02CE630E030935C056C
:1026800020935B05983030F481E001C0880F9A9563
:10269000EAF70EC0292F30E09E3018F42850310997
:1026A00002C02E50310981E001C0880F2A95EAF757
:1026B00080935D0580916405909165050197F1F720
:1026C0008091620590916305892B21F18091D2025E
:1026D0009091D30235E088349307E1F0009711F030
:1026E0000E947408809166058E7F80936605109223
:1026F000D1021092D00288E495E09093D3028093A7
:10270000D202E0915B05F0915C05908180915D05BE
:10271000892B80836CE370E080E090E00E94E1030D
:1027200020E042E060E18DEC94E00E940C0568E45A
:102730008DEC94E00E94710483E790E00197F1F73B
:1027400000E011E08BE9C82ED12C98E0F92EF00EB4
:10275000F80161918F018DEC94E00E943E02C60168
:102760000197F1F7F012F4CFE091CD04F091CE048F
:102770000484F585E02D6FEF8DEC94E009950E94BF
:10278000F408082E000C990B909314038093130304
:102790004E9709F051C160ED77E080E090E00E9433
:1027A000E1030E94F408082E000C990B9093140387
:1027B000809313034E9709F03FC181E08093F502A7
:1027C00020911001309111013093110320931003D7
:1027D0002AE030E030931101209310018093D80259
:1027E000C090F602D090F702E090F802F090F90263
:1027F000C092D402D092D502E092D602F092D702D3
:10280000C701B60120E836E948E950E00E94F92006
:102810002983E0E48E2EE2E49E2EEFE0AE2EB12C72
:10282000A50194010E94F9202A83C701B601A501E0
:1028300094010E94F920F0EA8F2EF6E89F2EAA2438
:10284000A394B12CA50194010E94F9202B83C70108
:10285000B601A50194010E94F920A0E18A2EA7E209
:102860009A2EA12CB12CA50194010E94F9202C8351
:10287000C701B601A50194010E94F920B8EE8B2E84
:10288000B3E09B2EA12CB12CA50194010E94F9204C
:102890002D83C701B601A50194010E94F92024E609
:1028A00030E040E050E00E94F9202F830E946B0945
:1028B00068EE73E080E090E00E94E10306E010E043
:1028C0000E946B0961E0802F0E945A0F0E94720ED5
:1028D00080930F03883239F0823309F471C08E314E
:1028E00009F092C00DC0015011090530110529F001
:1028F00017FF8AC006E010E087C004E010E084C043
:10290000E1E0F0E0EC0FFD1FE00FF11F808190E0AF
:1029100001968A30910514F080E090E0E1E0F0E06B
:10292000EC0FFD1FE00FF11F8083FC81ED81A98179
:10293000B0E020EA36E841E050E00E94B7206B01A9
:102940007C018A81282F30E0A0E1B7E20E941B21A0
:10295000C60ED71EE81EF91E2B8130E0A8EEB3E0AC
:102960000E941B21C60ED71EE81EF91E2F2F30E035
:10297000A4E6B0E00E941B21C60ED71EE81EF91E79
:102980002E2F30E0AAE0B0E00E941B21AB01BC0179
:102990004C0D5D1D6E1D7F1D8F819A01AB01280FAF
:1029A000311D411D511DA4E6B0E00E94B720609387
:1029B000D4027093D5028093D6029093D70224C09C
:1029C0008091D4029091D502A091D602B091D70205
:1029D0008093F6029093F702A093F802B093F90265
:1029E0006091D2046E7F6093D20468608DEC94E0B5
:1029F0000E94710466EF72E08091140190911501BC
:102A00000E949F080E9459098091F502811158CFB8
:102A10006091D2046E7F6093D20468608DEC94E084
:102A20000E9471041092D8028091100390911103BA
:102A3000909311018093100160E080E00E945A0F92
:102A400087E791E00E94911061E080E00E945A0FB8
:102A500088E891E00E94911064EC79E080E090E0D9
:102A60000E94E1038DEC94E00E947904A89560E057
:102A700080E00E945A0F89E991E00E94911061E084
:102A800080E00E945A0F8AEA91E00E94911060ED66
:102A900077E080E090E00E94E1038DEC94E00E94FA
:102AA00079046BEB71E0CE010E960E94021068EE85
:102AB00071E0CE0108960E94021000E010E08A89C1
:102AC0009B890F970817190708F048C060E080E05D
:102AD0000E945A0F7801FFE0EF0EF11C9701A80148
:102AE000BE01625F7F4FCE0101960E9417104D819B
:102AF0005E8169817A818DEC94E00E94EF0E89817C
:102B00009A810E94692361E080E00E945A0F970138
:102B1000A801BE01685F7F4FCE0101960E94171089
:102B20004D815E8169817A818DEC94E00E94EF0E87
:102B300089819A810E9469230115110529F460EDAC
:102B400077E080E090E004C064E670E080E090E030
:102B50000E94E103A8950F5F1F4FB1CF64EC79E0AD
:102B600080E090E00E94E10361E08CE00E945E035F
:102B700061E08CE00E948E036AE070E080E090E00B
:102B80000E94E10360E08CE00E948E0388859985B5
:102B90000E9469238E859F850E94692348E0642EE8
:102BA000712C5AE0E52EF12C64E6C62ED12C0E9441
:102BB000D90A84E00E943503892B61F42091010336
:102BC0003091020380911A0190911B012817390757
:102BD0000CF421C61092190110921801809118016D
:102BE000909119010E94170E6AE070E080E090E079
:102BF0000E94E1030E941B044B015C0180910703CA
:102C000090910803A0910903B0910A03A5019401D2
:102C1000281B390B4A0B5B0BDA01C9018032934048
:102C2000A105B10508F4DEC060E080E00E945A0F03
:102C30008091E1029091E2020A978A35910520F491
:102C400089EB91E00E9491108091E1029091E20263
:102C50000A9724F488EB91E00E9491108091E102A0
:102C60009091E2020E94D91089E492E00E949110B2
:102C700060E085E00E945A0F84E00E943503892BB2
:102C800061F4209101033091020380911A01909127
:102C90001B01281739070CF4F6C685EB92E00E9459
:102CA000911084E00E943503892B21F08CE492E09E
:102CB0000E949110209101033091020380911A012A
:102CC00090911B012817390724F08EE492E00E94AE
:102CD000911060E08BE00E945A0F8091DD0290918C
:102CE000DE02845691098438934020F489EB91E008
:102CF0000E9491108091DD029091DE020A978A3540
:102D0000910520F488EB91E00E9491108091DD0202
:102D10009091DE020A9724F487EB91E00E949110D3
:102D20008091DD029091DE020E94D91083E592E04D
:102D30000E9491108091FF0261E0882309F4CCC6C3
:102D400080E00E945A0F85E592E00E949110609108
:102D5000180170911901072E000C880B990B0E9425
:102D6000651F20E030E040E250E40E9497210E947D
:102D700009226A30710524F489EB91E00E949110D8
:102D80006091180170911901072E000C880B990BA6
:102D90000E94651F20E030E040E250E40E9497214D
:102DA0000E940922CB010E94D9108DE592E00E9479
:102DB000911081E08093000485E2809322041092B8
:102DC0000104109223046AE081EC94E00E9417074A
:102DD0000E94A50F8092070390920803A092090316
:102DE000B0920A038091FF02811106C064E670E090
:102DF00080E090E00E94E1030E941B046093FB02CC
:102E00007093FC028093FD029093FE0200912103D7
:102E10001091220320912303309124034B015C0184
:102E2000801A910AA20AB30A40E884164EEE94066C
:102E300046E3A406B10458F021E02093FA0260931F
:102E400021037093220380932303909324030E9411
:102E50001B044B015C016093FB027093FC028093A6
:102E6000FD029093FE0280911D0390911E03A0919C
:102E70001F03B0912003A5019401281B390B4A0BB5
:102E80005B0BDA01C901883E9340A105B105B0F0A2
:102E900061E08DE00E945E036EE170E080E090E012
:102EA0000E94E10360E08DE00E945E0380921D03BA
:102EB00090921E03A0921F03B09220038091FA0209
:102EC000882309F4A2C01092FA0219821A821B8286
:102ED0001C82BE016F5F7F4F80911401909115019C
:102EE0000E94D50849815A816B817C818091F602CC
:102EF0009091F702A091F802B091F9024817590792
:102F00006A077B0709F481C066EF72E080911401C3
:102F1000909115010E949F088091190390911A03C6
:102F2000A0911B03B0911C030196A11DB11D8093BC
:102F3000190390931A03A0931B03B0931C0369E138
:102F400073E080911201909113010E949F0880917B
:102F5000190390911A03A0911B03B0911C03409197
:102F60001503509116036091170370911803841B89
:102F7000950BA60BB70B80399F45A140B10508F40E
:102F800044C080911401909115010A969093150107
:102F90008093140180911201909113010A969093ED
:102FA00013018093120164E171E082E090E00E94DD
:102FB000BE0862E171E086E090E00E94BE08809168
:102FC000190390911A03A0911B03B0911C038093E5
:102FD000150390931603A0931703B093180365E1AC
:102FE00073E088E090E00E949F0866EF72E08091B5
:102FF0001401909115010E949F0869E173E080918E
:103000001201909113010E949F080E94F408082E5B
:10301000000C990B9093140380931303C29729F427
:1030200081E08093F502109212038091F5028823CB
:1030300009F48BC30E941B046093ED027093EE02AF
:103040008093EF029093F002809110019091110112
:10305000909311038093100388E1882E9EE0992EAF
:10306000AA24A394B12C62E370E080E090E00E9477
:10307000E1038DEC94E00E9479048AE090E0909363
:103080001101809310018CE090E00E943109809141
:10309000120361E090E00E94940F68EC70E080E021
:1030A00090E00E94E1030E94720E80930F038E3124
:1030B00019F0883261F039C3809112038F5F8B3031
:1030C00018F48093120331C3109212032EC3E091BF
:1030D00012038E2F90E08B30910508F026C3FC017F
:1030E000EC5CFF4F0C94B3221092F5021EC30091CA
:1030F0001A0110911B018DEC94E00E9479048091DB
:10310000120360E090E00E94940F61E080E00E9472
:103110005A0FC8010E94D91061E08DEC94E00E9422
:103120003E0282E792E00E9491100E94720E80930C
:103130000F038E3179F08832B9F410931B0100939C
:103140001A016AE171E08EE090E00E94BE080E94E0
:1031500059090AC0083211053CF00F5F1F4F0B35AB
:10316000110514F008E210E08091F5028111C3CF3F
:10317000DCC200910801109109018DEC94E00E94DD
:1031800079048091120360E090E00E94940F61E066
:1031900080E00E945A0FC8010E94D91085E792E092
:1031A0000E9491100E94720E80930F038E3179F06D
:1031B0008832C9F4109309010093080168E071E0B6
:1031C00080E190E00E94BE080E9459090CC0083EB0
:1031D00093E0190744F00C591F4F013FEAE01E0726
:1031E00014F008EE13E08091F5028111C6CF9DC264
:1031F00000910C0110910D018DEC94E00E94790476
:103200008091120360E090E00E94940F61E080E002
:103210000E945A0F0A30110520F489EB91E00E94B8
:103220009110C8010E94D91088E792E00E94911085
:103230000E94720E80930F038E3119F0883259F07C
:1032400028C017FD26C00B5F1F4F0D3311050CF171
:1032500000E010E01EC010930D0100930C01011559
:10326000110529F410920B0110920A0104C0B092CA
:103270000B01A0920A016AE071E084E190E00E94F3
:10328000BE086CE071E082E190E00E94BE080E94FE
:1032900059098091F5028111AFCF47C200911C01FD
:1032A00010911D018DEC94E00E947904809112032D
:1032B00060E090E00E94940F61E081E00E945A0F6C
:1032C000C8010E94D9100E94720E80930F038E31A4
:1032D00079F08832B9F410931D0100931C016CE160
:1032E00071E08CE090E00E94BE080E9459090AC07B
:1032F0000A3011053CF00F5F1F4F0531110514F026
:103300000AE010E08091F5028111CCCF0EC200914D
:10331000E3021091E4028DEC94E00E947904809124
:10332000120360E090E00E94940F61E081E00E944F
:103330005A0F101611061CF48EE792E00CC001150E
:10334000110519F489EB91E006C00B3FFFEF1F0751
:1033500021F480E792E00E949110C801B7010E9419
:103360009F222C01CB010E94D9108CE792E00E9491
:103370009110C20157FE03C09195819591090E9459
:10338000D91080E892E00E9491100E94720E809302
:103390000F038E3179F08832C1F41093E402009368
:1033A000E30263EE72E08CE190E00E94BE080E94AE
:1033B00059090BC00E3C2FEF12073CF00B5F1F4F5B
:1033C0000333110514F00EEC1FEF8091F50281110B
:1033D000A2CFABC10091E5021091E6028DEC94E022
:1033E0000E9479048091120360E090E00E94940FA3
:1033F00061E081E00E945A0F101611061CF48EE75E
:1034000092E00CC00115110519F489EB91E006C09A
:103410000B3F3FEF130721F480E792E00E949110E9
:10342000C801B7010E949F222C01CB010E94D91034
:103430008CE792E00E949110C20157FE03C0919563
:10344000819591090E94D91080E892E00E94911024
:103450000E94720E80930F038E3179F08832C1F48E
:103460001093E6020093E50265EE72E08EE190E0D3
:103470000E94BE080E9459090BC00E3C4FEF140772
:103480003CF00B5F1F4F0333110514F00EEC1FEFE0
:103490008091F5028111A2CF48C100910E011091D7
:1034A0000F018DEC94E00E9479048091120360E09A
:1034B00090E00E94940F61E080E00E945A0F01307A
:1034C000110519F484E892E002C081E992E00E94BB
:1034D00091100E94720E80930F038E3179F0883222
:1034E000B1F410930F0100930E016EE071E080E2E1
:1034F00090E00E94BE080E94590909C017FD07C04C
:10350000012B19F401E010E002C000E010E080910E
:10351000F5028111C6CF09C160E171E082E290E05D
:103520000E948A0800911001109111018DEC94E025
:103530000E9479048091120360E090E00E94940F51
:1035400061E081E00E945A0FC8010E94D9100E94D8
:10355000720E80930F038E3199F08832F1F410933C
:10356000110100931001109311030093100360E107
:1035700071E082E290E00E94BE080E9459090DC0ED
:1035800017FD07C00F5F1F4F0B30110514F000E04F
:1035900010E010931101009310018091F502811148
:1035A000C5CFC3C08233F1F41092EC021092EB024B
:1035B0001092EA021092E9021092E8021092E702D9
:1035C0006BEE72E086E190E00E94BE0869EE72E068
:1035D00088E190E00E94BE0867EE72E08AE190E028
:1035E0000E94BE088091F502882309F49EC08DECEC
:1035F00094E00E9479048091120360E090E00E94C0
:10360000940F61E080E00E945A0F8091EB0290914C
:10361000EC020E94D91089E492E00E9491108091FE
:10362000E9029091EA02B6010E949F22CB010E941A
:10363000D9108CE792E00E9491108091E90290915C
:10364000EA02B6010E949F22B7010E949F22CB018D
:103650000E94D91080E592E00E9491108091E702CB
:103660009091E8020E94D91083E592E00E949110A7
:103670000E94720E80930F03883209F093CF10924C
:10368000F502B0CF01E010E08DEC94E00E947904E7
:103690008091120360E090E00E94940F61E080E06E
:1036A0000E945A0F0130110519F48EE992E002C010
:1036B00089EA92E00E9491100E94720E80930F039B
:1036C0008E3119F0883249F02CC081E001301105AB
:1036D00009F480E0082F10E024C01092F5020115D3
:1036E0001105E9F410920B0310920C0310920D03D4
:1036F00010920E036BE073E08CEF93E00E949F0842
:103700000FB6F894A895809260000FBE909260006A
:1037100060ED77E080E090E00E94E10302C001E00C
:1037200010E08091F5028111AFCF8DEC94E00E9402
:1037300079048091F502811196CC809110039091CB
:103740001103909311018093100184E00E943503CE
:10375000892B09F05DC000911303109114030E3101
:103760001105E1F48091180190911901019690934F
:1037700019018093180181E08093FF020E941B04CD
:103780006093F1027093F2028093F3029093F4023B
:103790006FE070E080E090E00E94E103809118010A
:1037A00090911901883F910534F187EF90E0909353
:1037B0001901809318010832110551F58091180103
:1037C000909119010197909319018093180181E05C
:1037D0008093FF020E941B046093F1027093F20237
:1037E0008093F3029093F4026FE070E080E090E049
:1037F0000E94E10303C00832110501F38091180112
:1038000090911901089724F470921901609218019F
:103810000E94D201CCC90E94040A80910A019091B1
:103820000B01892B09F4CAC00E941B046093FB02A0
:103830007093FC028093FD029093FE0200910303BB
:103840001091040320910503309106034B015C01A4
:10385000801A910AA20AB30AA0910C01B0910D013D
:1038600020E63AEE0E94B92286169706A806B90607
:1038700008F4A4C08091180190911901C39786386B
:10388000910508F09BC08091FF02811197C01092B2
:10389000DE021092DD028DEC94E00E94790460E07B
:1038A00080E00E945A0F85E192E00E949110812CE5
:1038B000912CA12CB12C0AE010E02091DD02309176
:1038C000DE028091080190910901281739070CF058
:1038D00057C01093190100931801C8010E94170ED8
:1038E00061E080E00E945A0F609118017091190107
:1038F000072E000C880B990B0E94651F20E030E01A
:1039000040E250E40E9497210E9409226A3071052A
:1039100024F489EB91E00E9491106091180170915C
:103920001901072E000C880B990B0E94651F20E0DF
:1039300030E040E250E40E9497210E940922CB012E
:103940000E94D91086E292E00E9491106AE070E035
:1039500080E090E00E94E1030E94D90A8091DD029C
:103960009091DE02A816B9062CF480901801909070
:1039700019015C010B5F1F4F0A3F110509F09DCF34
:10398000B092DE02A092DD0290921901809218019D
:1039900064EF71E080E090E00E94E1038091FB021F
:1039A0009091FC02A091FD02B091FE02809303036E
:1039B00090930403A0930503B09306038091000342
:1039C000882309F40BC98DEC94E00E94790460E02F
:1039D00080E00E945A0F89E292E00E94911061E01B
:1039E00080E00E945A0F89E392E00E94911080913A
:1039F00025038530A0F5709219016092180181E0CD
:103A000090E0909317018093160188E090E00E9467
:103A1000170E00E110E068EE73E080E090E00E9495
:103A2000E103A89501501109B1F761E08CE00E9413
:103A30005E0361E08CE00E948E036AE070E080E04B
:103A400090E00E94E10360E08CE00E948E031092FF
:103A50000003809125038F5F80932503BFC81092D8
:103A600019011092180180E090E00E94170E0FB625
:103A7000F894A8958091600088618093600010920E
:103A800060000FBEFFCF8091DF029091E002883E80
:103A9000934024F489EB91E00E9491108091DF0221
:103AA0009091E002B6010E949F22CB010E94D910A2
:103AB0008CE792E00E9491108091DF029091E002E9
:103AC000B6010E949F22B7010E949F22CB010E9453
:103AD000D91080E592E0FBC880E00E945A0F8091E7
:103AE000F6029091F702A091F802B091F9028038A5
:103AF0009649A849B10520F489EB91E00E94911004
:103B00008091F6029091F702A091F802B091F9022B
:103B100080349244AF40B10520F489EB91E00E94DB
:103B200091108091F6029091F702A091F802B09165
:103B3000F902803A9648A140B10520F489EB91E062
:103B40000E9491108091F6029091F702A091F802E4
:103B5000B091F90280319742A105B10520F489EBBB
:103B600091E00E9491106091F6027091F7028091AD
:103B7000F8029091F90238EE232E33E0332E412CD7
:103B8000512CA20191010E94F920CA01B9014AE019
:103B90000E9496108CE792E00E9491106091F602CC
:103BA0007091F7028091F8029091F902A2019101BF
:103BB0000E94F920643671058105910520F485E69F
:103BC00092E00E9491106091F6027091F70280914C
:103BD000F8029091F90228EE33E040E050E00E94B4
:103BE000F9202AE030E040E050E00E94F920CA01CC
:103BF000B9014AE00E94961087E692E00E94911077
:103C000061E08BE00E945A0F8091010390910203C2
:103C10000A978A35910520F489EB91E00E94911072
:103C200080910103909102030A9720F488EB91E0C0
:103C30000E94911080910103909102039C012150F8
:103C400031092837310548F061E08BE00E945A0FB6
:103C50008EE692E00E94911002C00E94D91061E0AD
:103C60008DEC94E00E943E0282E792E00E94911067
:103C700081E08093000485E2809322041092010485
:103C800010922304609110019FC880E691E0909308
:103C900049058093480588E495E00C9474081092D7
:103CA00027041092260488EE93E0A0E0B0E0809311
:103CB000280490932904A0932A04B0932B0428E2AB
:103CC00031E0309325042093240425EC30E0309338
:103CD00031042093300424EC30E0309333042093FB
:103CE000320420EC30E0309335042093340421EC8E
:103CF00030E0309337042093360422EC30E03093E8
:103D000039042093380426EC30E030933B042093B0
:103D10003A0410923D0410923E0410923F04109217
:103D200040041092C4041092C3048093C50490937D
:103D3000C604A093C704B093C8042AE331E03093CB
:103D4000C2042093C10410924B0510924A0580933F
:103D50004C0590934D05A0934E05B0934F0580E61A
:103D600091E0909349058093480510925F05109269
:103D70005E05109261051092600510926305109225
:103D800062051092650510926405609166056E7F6C
:103D90006D7F609366056695617081E0682786E0B7
:103DA0000E945E0361E086E00E948E03ECE9F1E090
:103DB000E491E0935805E8E8F1E0E491F0E0EE0FDB
:103DC000FF1FE259FE4F8591949190935A0580937D
:103DD000590560E088E00E948E038091660581FDB0
:103DE00004C061E088E00E945E0388E0809354058F
:103DF000EEE9F1E0E491E0935505EAE8F1E0E491C1
:103E0000F0E0EE0FFF1FE858FE4F859194919093DC
:103E100057058093560580911C018093EA0484E045
:103E20008093EB0497E09093EC0428EE33E030931A
:103E30003A052093390510924305109244051092DB
:103E40004505109246051092D0041092CF042CE440
:103E500031E03093CE042093CD041092DD049FEF27
:103E60009093DC041092DB041092DE0497E29093AE
:103E7000D8041092D9041092DA041092D704109248
:103E8000D6048093DF0482E08093E00481E0809395
:103E9000E10480E18093E20480E28093E30480E423
:103EA0008093E40480E88093E50440E050E063E020
:103EB0008DEC94E00C942A02FB01DC0105900D923C
:103EC0000020E1F70895E89409C097FB3EF490952F
:103ED0008095709561957F4F8F4F9F4F9923A9F0E3
:103EE000F92F96E9BB279395F69587957795679572
:103EF000B795F111F8CFFAF4BB0F11F460FF1BC0B6
:103F00006F5F7F4F8F4F9F4F16C0882311F096E948
:103F100011C0772321F09EE8872F762F05C06623F6
:103F200071F096E8862F70E060E02AF09A95660FAF
:103F3000771F881FDAF7880F9695879597F9089568
:103F4000990F0008550FAA0BE0E8FEEF16161706AA
:103F5000E807F907C0F012161306E407F50798F012
:103F6000621B730B840B950B39F40A2661F0232B2B
:103F7000242B252B21F408950A2609F4A140A695A7
:103F80008FEF811D811D08950E94D71F0C9448203A
:103F90000E943A2038F00E94412020F0952311F031
:103FA0000C9431200C94372011240C947C200E9416
:103FB000592070F3959FC1F3950F50E0551F629FF4
:103FC000F001729FBB27F00DB11D639FAA27F00D72
:103FD000B11DAA1F649F6627B00DA11D661F829F99
:103FE0002227B00DA11D621F739FB00DA11D621F7E
:103FF000839FA00D611D221F749F3327A00D611D9B
:10400000231F849F600D211D822F762F6A2F11247C
:104010009F5750409AF0F1F088234AF0EE0FFF1FAF
:10402000BB1F661F771F881F91505040A9F79E3F06
:10403000510580F00C9431200C947C205F3FE4F318
:10404000983ED4F3869577956795B795F795E7955C
:104050009F5FC1F7FE2B880F911D9695879597F965
:10406000089597F99F6780E870E060E008959FEFFA
:1040700080EC089500240A941616170618060906FF
:10408000089500240A9412161306140605060895CE
:10409000092E0394000C11F4882352F0BB0F40F456
:1040A000BF2B11F460FF04C06F5F7F4F8F4F9F4F96
:1040B000089557FD9058440F551F59F05F3F71F018
:1040C0004795880F97FB991F61F09F3F79F087957F
:1040D0000895121613061406551FF2CF4695F1DF08
:1040E00008C0161617061806991FF1CF8695710598
:1040F000610508940895E894BB2766277727CB01CC
:1041000097F90895F999FECF92BD81BDF89A992744
:1041100080B50895262FF999FECF1FBA92BD81BDB3
:1041200020BD0FB6F894FA9AF99A0FBE0196089539
:10413000052E97FB1EF400940E94AF2057FD07D078
:104140000E94F92007FC03D04EF40C94AF20509548
:104150004095309521953F4F4F4F5F4F0895909573
:104160008095709561957F4F8F4F9F4F08950E9466
:104170001B21A59F900DB49F900DA49F800D911DB4
:10418000112408952F923F924F925F926F927F92E7
:104190008F929F92AF92BF92CF92DF92EF92FF9257
:1041A0000F931F93CF93DF93CDB7DEB7CA1BDB0B03
:1041B0000FB6F894DEBF0FBECDBF09942A883988A8
:1041C00048885F846E847D848C849B84AA84B984AF
:1041D000C884DF80EE80FD800C811B81AA81B981BB
:1041E000CE0FD11D0FB6F894DEBF0FBECDBFED01CF
:1041F0000895A1E21A2EAA1BBB1BFD010DC0AA1F28
:10420000BB1FEE1FFF1FA217B307E407F50720F03F
:10421000A21BB30BE40BF50B661F771F881F991FBA
:104220001A9469F760957095809590959B01AC0103
:10423000BD01CF010895A29FB001B39FC001A39F0C
:10424000700D811D1124911DB29F700D811D1124CF
:10425000911D08955058BB27AA270E9442210C9413
:1042600048200E943A2038F00E94412020F039F482
:104270009F3F19F426F40C9437200EF4E095E7FBE9
:104280000C943120E92F0E94592058F3BA17620785
:1042900073078407950720F079F4A6F50C947B202A
:1042A0000EF4E0950B2EBA2FA02D0B01B901900151
:1042B0000C01CA01A0011124FF27591B99F0593F95
:1042C00050F4503E68F11A16F040A22F232F342FDD
:1042D0004427585FF3CF469537952795A795F0402B
:1042E0005395C9F77EF41F16BA0B620B730B840B40
:1042F000BAF09150A1F0FF0FBB1F661F771F881FF8
:10430000C2F70EC0BA0F621F731F841F48F487954F
:1043100077956795B795F7959E3F08F0B0CF939541
:10432000880F08F09927EE0F9795879508950E94BA
:10433000AB210C9448200E94412058F00E943A2062
:1043400040F029F45F3F29F00C94312051110C9476
:104350007C200C9437200E94592068F39923B1F3F4
:10436000552391F3951B550BBB27AA27621773079B
:10437000840738F09F5F5F4F220F331F441FAA1F2F
:10438000A9F335D00E2E3AF0E0E832D091505040EB
:10439000E695001CCAF72BD0FE2F29D0660F771F99
:1043A000881FBB1F261737074807AB07B0E809F07F
:1043B000BB0B802DBF01FF2793585F4F3AF09E3F04
:1043C000510578F00C9431200C947C205F3FE4F38D
:1043D000983ED4F3869577956795B795F7959F5F47
:1043E000C9F7880F911D9695879597F90895E1E093
:1043F000660F771F881FBB1F621773078407BA07F2
:1044000020F0621B730B840BBA0BEE1F88F7E0954C
:1044100008950E9410226894B1110C947C20089594
:104420000E94612088F09F5798F0B92F9927B751C3
:10443000B0F0E1F0660F771F881F991F1AF0BA9548
:10444000C9F714C0B13091F00E947B20B1E008950B
:104450000C947B20672F782F8827B85F39F0B93FFD
:10446000CCF3869577956795B395D9F73EF49095FB
:104470008095709561957F4F8F4F9F4F08950E9453
:10448000A01F08F48FEF089519F416F40C94372048
:104490000C948A220E946120B8F39923C9F3B6F3E1
:1044A0009F57550B87FF0E9498220024A0E640EA00
:1044B000900180585695979528F4805C660F771F79
:1044C000881F20F026173707480730F4621B730B4C
:1044D000840B202931294A2BA6951794079420256F
:1044E00031254A2758F7660F771F881F20F02617B7
:1044F0003707480730F4620B730B840B200D311D16
:10450000411DA09581F7B901842F9158880F969588
:10451000879508959F3F31F0915020F487957795C6
:104520006795B795880F911D9695879597F908958A
:1045300091505040660F771F881FD2F7089597FB60
:10454000072E16F4009407D077FD09D00E94C022F0
:1045500007FC05D03EF4909581959F4F0895709586
:1045600061957F4F0895EE0FFF1F0590F491E02DA8
:1045700009940E941B21B7FF0895821B930B089595
:10458000AA1BBB1B51E107C0AA1FBB1FA617B70779
:1045900010F0A61BB70B881F991F5A95A9F7809595
:1045A0009095BC01CD010895CF93DF9382309105A2
:1045B00010F482E090E0E0916905F0916A0520E056
:1045C00030E0C0E0D0E0309711F1408151814817D0
:1045D0005907C0F04817590761F4828193812097E9
:1045E00019F09B838A832BC090936A058093690599
:1045F00026C02115310519F04217530718F49A0106
:10460000BE01DF01EF010280F381E02DDCCF211537
:10461000310509F1281B390B2430310590F412962D
:104620008D919C9113976115710521F0FB01938386
:10463000828304C090936A0580936905FD013296D8
:1046400044C0FD01E20FF31F819391932250310981
:104650002D933C933AC02091670530916805232B38
:1046600041F420912001309121013093680520937D
:10467000670520911E0130911F012115310541F47C
:104680002DB73EB74091220150912301241B350BD9
:10469000E0916705F0916805E217F307A0F42E1B7F
:1046A0003F0B2817390778F0AC014E5F5F4F241796
:1046B000350748F04E0F5F1F50936805409367051C
:1046C0008193919302C0E0E0F0E0CF01DF91CF91C0
:1046D00008950F931F93CF93DF93009709F48CC035
:1046E000FC013297138212820091690510916A05CC
:1046F0000115110581F420813181820F931F2091D2
:104700006705309168052817390779F5F093680532
:10471000E093670571C0D80140E050E0AE17BF07D5
:1047200050F412962D913C911397AD01211531054E
:1047300009F1D901F3CF9D01DA013383228360812E
:104740007181860F971F8217930769F4EC01288106
:104750003981260F371F2E5F3F4F318320838A8197
:104760009B8193838283452B29F4F0936A05E09320
:10477000690542C01396FC93EE931297ED0149919F
:1047800059919E01240F351FE217F30771F48081C0
:104790009181840F951F029611969C938E9382812E
:1047A000938113969C938E931297E0E0F0E0D801EA
:1047B00012968D919C911397009719F0F8018C0136
:1047C000F6CF8D919C9198012E5F3F4F820F931FE2
:1047D00020916705309168052817390769F43097EB
:1047E00029F410926A051092690502C013821282A0
:1047F0001093680500936705DF91CF911F910F918A
:104800000895A0E0B0E0E7E0F4E20C94C620EC01EB
:10481000009721F4CB010E94D422B8C0FC01E60F1E
:10482000F71F9C0122503109E217F30708F4ACC0CE
:10483000D9010D911C91119706171707B0F005309B
:10484000110508F49FC0C80104978617970708F45C
:1048500099C002501109061B170B019311936D9318
:104860007C93CF010E9469238DC05B01A01AB10A1D
:104870004C01800E911EA0916905B0916A0540E03F
:1048800050E0E12CF12C109709F44AC0A815B905A5
:10489000D1F56D907C901197630182E0C80ED11C18
:1048A000CA14DB0480F1A3014A195B096A0182E0A2
:1048B000C80ED11C1296BC9012971396AC91B5E01D
:1048C000CB16D10440F0B282A38351834083D90137
:1048D0006D937C930AC00E5F1F4FC301800F911F21
:1048E000F90191838083EB2DFA2FE114F10431F06B
:1048F000D7011396FC93EE93129744C0F0936A0588
:10490000E09369053FC08D919C9111974817590715
:1049100008F4AC017D0112960D90BC91A02DB3CF8F
:10492000809167059091680588159905E1F446170F
:104930005707C8F480911E0190911F01009741F420
:104940008DB79EB74091220150912301841B950B96
:10495000E817F907C8F4F0936805E0936705F901D3
:10496000718360830FC0CB010E94D4227C01009729
:1049700059F0A801BE010E94D024CE010E946923F3
:10498000C70104C0CE0102C080E090E0CDB7DEB721
:10499000EEE00C94E22081E090E0F8940C94E024A6
:1049A000FB01DC0102C001900D9241505040D8F74C
:1049B0000895FB01DC0101900D920020E1F70895BC
:1049C00010E0C6EDD0E004C0FE010E94B3222196A3
:0A49D000C73DD107C9F7F894FFCFE7
:1049DA000C12120C00000000F00A01000500010090
:1049EA00050037002D00010008005A000C000000E5
:1049FA006B058000000000006901EF0E0101B001A3
:104A0A00320110012401000000001707E706ED0734
:104A1A00C106DF06D006C206000000003E02EF0E05
:104A2A00ED07EC070C052A02C302A20200000000EF
:104A3A005F07EF0EED075E07B307CB0746077374F0
:104A4A00617274000D0A0020534F4C415220494EA6
:104A5A005645525445522000202020205349544F95
:104A6A004E20323130202020002073772E76382EC7
:104A7A00302E30302020202020002030362F3230B7
:104A8A00323220202020202020200020546F6D6107
:104A9A0073204E657672656C61202076796C65703C
:104AAA0073656E6920202020546F6D6173204368FE
:104ABA00766174616C20200020746E7765622E74B2
:104ACA006F64652E637A20202020206F64202020C6
:104ADA0020202020207777772E666F7264696167BD
:104AEA002E637A200020202054657374204D505084
:104AFA0054202020200025200020204E41445052DE
:104B0A004F55444F56412020002020204F43485201
:104B1A00414E41212120202000562000450054000A
:104B2A0041200057007374726964613A002520209D
:104B3A00202020200030006B576820202000202DE4
:104B4A002D00432000572000206D696E2E002B0097
:104B5A0025202000456173795472616E736665720F
:104B6A00004D6F64627573205254552020004E45E3
:104B7A00202020202020202000414E4F20202020CD
:104B8A00202020200053544F5020006B57680020EB
:104B9A0020204E414450524F5544212020200000ED
:107800000C94343C0C94513C0C94513C0C94513CE1
:107810000C94513C0C94513C0C94513C0C94513CB4
:107820000C94513C0C94513C0C94513C0C94513CA4
:107830000C94513C0C94513C0C94513C0C94513C94
:107840000C94513C0C94513C0C94513C0C94513C84
:107850000C94513C0C94513C0C94513C0C94513C74
:107860000C94513C0C94513C11241FBECFEFD8E036
:10787000DEBFCDBF11E0A0E0B1E0ECE9FFE702C060
:1078800005900D92A230B107D9F712E0A2E0B1E065
:1078900001C01D92AD30B107E1F70E942D3D0C945F
:1078A000CC3F0C94003C982F959595959595959582
:1078B000905D8F708A307CF0282F295A8091C0000B
:1078C00085FFFCCF9093C6008091C00085FFFCCF60
:1078D0002093C6000895282F205DF0CF982F809127
:1078E000C00085FFFCCF9093C6000895EF92FF92F1
:1078F0000F931F93EE24FF2487018091C00087FD22
:1079000017C00894E11CF11C011D111D81E4E8164B
:1079100082E4F8068FE0080780E0180770F3E09132
:107920000401F091050109958091C00087FFE9CF1E
:107930008091C6001F910F91FF90EF9008950E94D3
:10794000763C982F8091C00085FFFCCF9093C600B5
:1079500091362CF490330CF09053892F089597555D
:10796000892F08951F930E949F3C182F0E949F3CCF
:107970001295107F810F1F9108951F93182F882350
:1079800021F00E94763C1150E1F71F9108951F935A
:10799000182F0E94763C803249F0809103018F5F5E
:1079A000809303018530C1F01F9108958091C0003C
:1079B00085FFFCCF84E18093C6008091C00085FFE5
:1079C000FCCF1093C6008091C00085FFFCCF80E102
:1079D0008093C6001F910895E0910401F091050184
:1079E00009951F9108950E94763C803241F0809164
:1079F00003018F5F80930301853081F008958091AA
:107A0000C00085FFFCCF84E18093C6008091C00058
:107A100085FFFCCF80E18093C6000895E0910401CA
:107A2000F09105010995089540E951E08823A1F0FE
:107A30002D9A28EE33E0FA013197F1F721503040CA
:107A4000D1F72D9828EE33E0FA013197F1F7215064
:107A50003040D1F7815061F708953F924F925F9285
:107A60006F927F928F929F92AF92BF92CF92DF924E
:107A7000EF92FF920F931F93CF93DF93000080E16B
:107A80008093C4001092C50088E18093C10086E015
:107A90008093C2005098589A259A81E00E94143D24
:107AA00024E1F22E9EE1E92E85E9D82E0FE0C02ECA
:107AB00010E1B12EAA24A394B1E49B2EA6E58A2E50
:107AC000F2E57F2EE0E26E2E79E4572E63E5462E36
:107AD00050E5352E0E94763C8033B1F18133B9F107
:107AE000803409F46FC0813409F476C0823409F41B
:107AF00085C0853409F488C0803531F1823521F1A3
:107B0000813511F1853509F485C0863509F48DC0BC
:107B1000843609F496C0843709F403C1853709F423
:107B200072C1863709F466C0809103018F5F80932C
:107B30000301853079F6E0910401F0910501099582
:107B40000E94763C803351F60E94F33CC3CF0E94E2
:107B5000763C803249F78091C00085FFFCCFF092DF
:107B6000C6008091C00085FFFCCF9092C600809136
:107B7000C00085FFFCCF8092C6008091C00085FFC9
:107B8000FCCF7092C6008091C00085FFFCCF609250
:107B9000C6008091C00085FFFCCF5092C600809146
:107BA000C00085FFFCCF4092C6008091C00085FFD9
:107BB000FCCF3092C6008091C00085FFFCCFB09210
:107BC000C60088CF0E94763C863808F4BDCF0E945C
:107BD000763C0E94F33C7ECF0E94763C803809F4CC
:107BE0009CC0813809F40BC1823809F43CC1883942
:107BF00009F48FC080E00E94C73C6CCF84E10E94F2
:107C0000BD3C0E94F33C66CF85E00E94BD3C0E94D3
:107C1000F33C60CF0E94763C809306010E94763C44
:107C2000809307010E94F33C55CF0E94763C80333D
:107C300009F41DC183E00E94BD3C80E00E94C73C66
:107C400049CF0E94763C809309020E94763C809343
:107C5000080280910C028E7F80930C020E94763C79
:107C6000853409F415C18091080290910902892B8D
:107C700089F000E010E00E94763CF801E85FFE4FDA
:107C800080830F5F1F4F80910802909109020817AF
:107C9000190788F30E94763C803209F045CF809125
:107CA0000C0280FF01C16091060170910701660F0F
:107CB000771F7093070160930601A0910802B091AD
:107CC00009021097C9F0E8E0F1E09B01AD014E0F09
:107CD0005F1FF999FECF32BD21BD819180BDFA9A17
:107CE000F99A2F5F3F4FE417F50799F76A0F7B1F4B
:107CF00070930701609306018091C00085FFFCCF5F
:107D0000F092C6008091C00085FFFCCFB092C60003
:107D1000E1CE83E00E94C73CDDCE82E00E94C73CFA
:107D2000D9CE0E94763C809309020E94763C8093D3
:107D300008028091060190910701880F991F909386
:107D40000701809306010E94763C853409F4A6C0A1
:107D500080910C028E7F80930C020E94763C8032D0
:107D600009F0B8CE8091C00085FFFCCFF092C6002C
:107D7000609108027091090261157105B9F140E046
:107D800050E080910C02A82FA170B82FB27011C0E2
:107D9000BB2309F45CC0E0910601F0910701319624
:107DA000F0930701E09306014F5F5F4F46175707B7
:107DB000E8F4AA2369F3F999FECF209106013091E6
:107DC000070132BD21BDF89A90B58091C00085FFB2
:107DD000FCCF9093C6002F5F3F4F30930701209355
:107DE00006014F5F5F4F4617570718F38091C00099
:107DF00085FDE5CE8091C00085FFF8CFE0CE81E023
:107E00000E94C73C67CE0E94763C803209F08CCE3F
:107E10008091C00085FFFCCFF092C6008091C00029
:107E200085FFFCCFE092C6008091C00085FFFCCFAB
:107E3000D092C6008091C00085FFFCCFC092C600E2
:107E40008091C00085FFFCCFB092C60043CEE09188
:107E50000601F091070194918091C00085FFFCCF4D
:107E60009093C6009CCF80E10E94C73C33CE0E9415
:107E7000763C0E94763C182F0E94763C112309F430
:107E800083C0113009F484C08FE00E94C73C22CE29
:107E900080910C02816080930C02E5CE80910C02EF
:107EA000816080930C0259CF809107018823880F4D
:107EB000880B8A2180930B02809106019091070123
:107EC000880F991F90930701809306018091080203
:107ED00080FF09C080910802909109020196909359
:107EE000090280930802F894F999FECF1127E091D6
:107EF0000601F0910701C8E0D1E08091080290915D
:107F00000902103091F40091570001700130D9F34B
:107F100003E000935700E89500915700017001308D
:107F2000D9F301E100935700E89509901990009169
:107F3000570001700130D9F301E000935700E89534
:107F40001395103498F011270091570001700130FB
:107F5000D9F305E000935700E895009157000170B0
:107F60000130D9F301E100935700E895329602976A
:107F700009F0C7CF103011F00296E5CF112480919F
:107F8000C00085FFB9CEBCCE8EE10E94C73CA2CD19
:0C7F900085E90E94C73C9ECDF894FFCF0D
:027F9C00800063
:040000030000780081
:00000001FF