:100000000C94F7000C941F010C941F010C941A0817
:100010000C941A080C941A080C941F010C941F01DC
:100020000C941F010C941F010C941F010C941F01D0
:100030000C941F010C941F010C941F010C941F01C0
:100040000C9451040C941F010C942D030C94070381
:100050000C941F010C941F010C941F010C941F01A0
:100060000C9495050C941F01111E141E5A1E9D1E02
:10007000F91E341FA01F0C204D20BA201521B724D3
:10008000B724DC24DC241B1CD224F224F224F22426
:10009000F224F224F224F224F224B724DC243C1CBF
:1000A0003C1C562556258F25CD25771C771C771CA3
:1000B000771C771C771C771C771CDD253926000000
:1000C0000000240027002A000000000800020100B0
:1000D00000030407000000000000000053756D617C
:1000E000207679726F627900756B6C6164616D2E38
:1000F0002E2E0020202A4E4153544156454E492A67
:10010000202020002000546F7661726E69205245D5
:10011000534554004D61782E20686F646E6F74797A
:1001200000506F6473766963656E69204C434400C8
:100130004B6F6D756E696B616365004B616C6962D5
:10014000726163652041004B616C69627261636535
:100150002056004944206D656E6963652F616472A5
:1001600065736100506572696F64612074657374B2
:1001700075205641004D61782E76796B6F6E004D7B
:1001800061782E7465706C6F7461004578697400D5
:100190008B017F0175016401530147013B0130016F
:1001A0002101140106010401F300E800DC00000055
:1001B0000000250028002B0000000000230026007E
:1001C00029000404040404040404020202020202DA
:1001D000030303030303010204081020408001020B
:1001E000040810200102040810206A266026112449
:1001F0001FBECFEFD8E0DEBFCDBF12E0A0E0B1E080
:10020000E2EAFAE502C005900D92A63EB107D9F7E1
:1002100025E0A6EEB2E001C01D92A73DB207E1F7CE
:1002200010E0C6EFD0E004C02197FE010E94172B1A
:10023000C53FD107C9F70E94E9130C94442D0C94D3
:100240000000FC01538D448D252F30E0842F90E079
:10025000821B930B541710F0CF96089501970895C1
:10026000FC01918D828D981761F0828DDF01A80FBE
:10027000B11D5D968C91928D9F5F9F73928F90E0E0
:1002800008958FEF9FEF0895FC01918D828D98174F
:1002900031F0828DE80FF11D858D90E008958FEF8C
:1002A0009FEF0895FC01918D228D892F90E0805C55
:1002B0009F4F821B91098F739927089580E994E0DD
:1002C0000E94520121E0892B09F420E0822F089539
:1002D000FC01848DDF01A80FB11DA35ABF4F2C91E3
:1002E000848D90E001968F739927848FA689B789B2
:1002F0002C93A089B1898C9180648C93938D848D8B
:10030000981306C00288F389E02D80818F7D808359
:100310000895EF92FF920F931F93CF93DF93EC0119
:1003200081E0888F9B8D8C8D981305C0E889F989B1
:10033000808185FD24C0F62E0B8D10E00F5F1F4FCE
:100340000F731127E02E8C8DE8120CC00FB607FC3E
:10035000FACFE889F989808185FFF5CFCE010E9427
:100360006801F1CF8B8DFE01E80FF11DE35AFF4FBD
:10037000F0820B8FEA89FB898081806207C0EE8959
:10038000FF896083E889F98980818064808381E0C6
:1003900090E0DF91CF911F910F91FF90EF90089522
:1003A000CF93DF93EC01888D8823C9F0EA89FB891C
:1003B000808185FD05C0A889B9898C9186FD0FC013
:1003C0000FB607FCF5CF808185FFF2CFA889B989E8
:1003D0008C9185FFEDCFCE010E946801E7CFDF91C0
:1003E000CF91089580E090E0892B29F00E945E0172
:1003F00081110C9400000895833081F028F481303D
:1004000099F08230A1F008958730A9F08830B9F0D2
:100410008430D1F4809180008F7D03C08091800072
:100420008F7780938000089584B58F7702C084B55C
:100430008F7D84BD08958091B0008F7703C0809137
:10044000B0008F7D8093B00008953FB7F8948091FD
:10045000E4039091E503A091E603B091E70326B58C
:10046000A89B05C02F3F19F00196A11DB11D3FBFEC
:10047000BA2FA92F982F8827820F911DA11DB11D7A
:10048000BC01CD0142E0660F771F881F991F4A9576
:10049000D1F7089521E001C0220F6A95EAF7DC0147
:1004A0001C962C931C971A965C934E931997ED917A
:1004B000FC910484F585E02D60E00994DC01ED9168
:1004C000FC910684F785E02D41E0099581E090E0FC
:1004D00008950895089585ED8093BC008091BC0037
:1004E00084FDFCCF1092670408950E942F2DFC011B
:1004F00023812223B9F091819095692360838281C1
:1005000091E09093680480938A0410926904109299
:100510008B048DE295E00E9441070E94AB11282FC9
:1005200030E002C020E030E081E090E0232B11F0C9
:1005300080E090E00895EF92FF920F931F93CF9386
:100540008C01FC01759684E0C0E060FF02C09081E0
:10055000C92B6695815031968111F7CF413011F446
:10056000F8014489F8018585C82BC42B7801FEE089
:10057000EF0EF11CF80162896C2BC7010E94770213
:10058000F801628960956C23C701CF911F910F918B
:10059000FF90EF900C9477020F931F93CF93DF930C
:1005A000062F0F70423019F440E0602F10C0142F56
:1005B000262FEC0130E0B90184E0759567958A95A6
:1005C000E1F7CE010E949B02412F602FCE01DF9107
:1005D000CF911F910F910C949B02FC01848588237D
:1005E000A9F0218532852115310519F4611106C064
:1005F00007C02130310521F4611102C0858701C097
:1006000015866585CF010E960C94770208951F928A
:100610000F920FB60F9211242F933F934F935F9336
:100620006F937F938F939F93AF93BF93EF93FF93BA
:1006300080E994E00E946801FF91EF91BF91AF9132
:100640009F918F917F916F915F914F913F912F91EA
:100650000F900FBE0F901F9018951F920F920FB61C
:100660000F9211242F938F939F93EF93FF93E09119
:10067000A004F091A1048081E091A604F091A70468
:1006800082FD12C090818091A9048F5F8F732091A9
:10069000AA04821751F0E091A904F0E0E057FB4F63
:1006A000958F8093A90401C08081FF91EF919F9164
:1006B0008F912F910F900FBE0F901F901895CF9391
:1006C000DF93282F30E0F901E853FF4F8491F901BF
:1006D000EA52FE4FD491F901EE53FE4FC491CC2360
:1006E00091F081110E94FC01EC2FF0E0EE0FFF1F52
:1006F000E854FE4FA591B491EC91ED2381E090E098
:1007000021F480E002C080E090E0DF91CF91089575
:100710001F93CF93DF93282F30E0F901E853FF4F69
:100720008491F901EA52FE4FD491F901EE53FE4F44
:10073000C491CC23C9F0162F81110E94FC01EC2F2B
:10074000F0E0EE0FFF1FE255FE4FA591B4918FB779
:10075000F894111105C09C91ED2FE095E92302C09A
:10076000EC91ED2BEC938FBFDF91CF911F9108950A
:10077000CF93DF9390E0FC01EA52FE4F2491FC01FD
:10078000EE53FE4F8491882361F190E0880F991F0A
:10079000FC01E254FF4FC591D491FC01E255FE4F9C
:1007A000A591B491611109C09FB7F89488812095F3
:1007B00082238883EC912E230BC0623061F49FB7B3
:1007C000F8943881822F809583238883EC912E2B97
:1007D0002C939FBF06C08FB7F894E8812E2B2883F7
:1007E0008FBFDF91CF9108958E3008F08E508770C3
:1007F000806480937C0080917A00806480937A008A
:1008000080917A0086FDFCCF80917800209179005C
:1008100090E0922B08958F929F92AF92BF92CF92C9
:10082000DF92EF92FF926B017C010E9425024B0147
:100830005C01C114D104E104F104F1F00E9425022D
:10084000DC01CB0188199909AA09BB09883E9340AC
:10085000A105B10570F321E0C21AD108E108F10841
:1008600088EE880E83E0981EA11CB11CC114D1042F
:10087000E104F10419F7DDCFFF90EF90DF90CF9006
:10088000BF90AF909F908F9008952FB7F89460918C
:10089000E0037091E1038091E2039091E3032FBFA5
:1008A00008951F920F920FB60F9211242F933F932A
:1008B0008F939F93AF93BF938091E0039091E10357
:1008C000A091E203B091E3033091DF0323E0230F13
:1008D0002D3720F40196A11DB11D05C026E8230F78
:1008E0000296A11DB11D2093DF038093E003909336
:1008F000E103A093E203B093E3038091E4039091BA
:10090000E503A091E603B091E7030196A11DB11D97
:100910008093E4039093E503A093E603B093E70389
:10092000BF91AF919F918F913F912F910F900FBEEB
:100930000F901F901895DC01ED91FC910684F785CE
:10094000E02D40E0099461E00E949B048BE39FE16D
:100950000197F1F708950F931F93CF93DF93EC0165
:10096000423018F08C8188608C834F836887222303
:1009700029F0413019F48C8184608C8364E670E046
:1009800080E090E00E940B046C8164FD31C0E8813E
:10099000F9810684F785E02D42E063E0CE010995F8
:1009A0008BE496E40197F1F7E881F9810684F785F5
:1009B000E02D42E063E0CE01099503E512E0C801B5
:1009C0000197F1F7E881F9810684F785E02D42E08F
:1009D00063E0CE010995C8010197F1F7E881F9813B
:1009E0000684F785E02D42E062E0CE01099517C04C
:1009F0006062CE010E949B048BE496E40197F1F7BC
:100A00006C816062CE010E949B0403E512E0C80184
:100A10000197F1F76C816062CE010E949B04C801CE
:100A20000197F1F76C816062CE010E949B048BEE0E
:100A300090E00197F1F784E08D836CE0CE010E9495
:100A40009B04CE010E94A30482E08E8366E0CE0167
:100A50000E949B04E881F9810484F585E02D6FEF05
:100A6000CE01DF91CF911F910F910994EF92FF92E8
:100A70000F931F93CF93DF93EC01062FF42EE22EFA
:100A80008B85888B1092B8031092B703109269047B
:100A900010928B041092670411E010936604109278
:100AA000410461E082E10E94880361E083E10E94E9
:100AB00088038091B9008E7F8093B9008091B9003E
:100AC0008D7F8093B90088E48093B80085E480939B
:100AD000BC0088891093680480938A04109269048A
:100AE00010928B040E94AB1191E0811190E0998BE0
:100AF000992329F08DE295E00E94FA068E87898974
:100B0000882339F01F861C8260E0CE010E960E9479
:100B100077022E2D4F2D602FCE01DF91CF911F91A7
:100B20000F91FF90EF900C94AB041F920F920FB6B1
:100B30000F9211242F933F934F935F936F937F9363
:100B40008F939F93AF93BF93EF93FF938091B900DF
:100B5000887F803609F49CC068F5883209F45BC050
:100B600090F4803109F454C038F4882309F4F6C0B5
:100B7000883009F44DC0F6C0883109F44CC0803289
:100B800009F45DC0EFC0803409F468C048F48033D4
:100B900009F455C0883309F0E5C080936504D8C0D6
:100BA000803509F44FC0883509F45DC0883409F0F8
:100BB000D9C0D6C0883909F4C7C0A8F4883709F469
:100BC00067C038F4883609F463C0803709F460C020
:100BD000C9C0883809F4B8C0803909F45FC08038CA
:100BE00009F0C0C05BC0803B09F486C038F4803A8D
:100BF00009F466C0883A09F47FC0B4C0803C09F4A7
:100C0000A7C0883C09F4A4C0883B09F48AC0AAC0E4
:100C10008091420410C090916404809163049817FD
:100C200070F5E091640481E08E0F80936404F0E03D
:100C3000ED5BFB4F80818093BB0085EC86C0809389
:100C400065048EC0E091640481E08E0F809364049B
:100C50008091BB00F0E0ED5BFB4F808390916404DA
:100C6000809163046EC0E091640481E08E0F8093F4
:100C700064048091BB00F0E0ED5BFB4F80838091CA
:100C8000660481116DC081E08093410484EA61C0F3
:100C900083E0809367041092DE03CFCF8091DE0360
:100CA000803208F051C0E091DE0381E08E0F809326
:100CB000DE038091BB00F0E0E254FC4F8083BDCFA7
:100CC00085EC8093BC00109267048091DE03803233
:100CD00030F4E091DE03F0E0E254FC4F10826091CA
:100CE000DE0370E0E091BC03F091BD038EEB93E076
:100CF00009951092DE0336C084E080936704109259
:100D0000BB031092B603E091B903F091BA030995C1
:100D10008091B603811105C081E08093B6031092E3
:100D20009603E091BB0381E08E0F8093BB03F0E05C
:100D3000EA56FC4F80818093BB009091BB03809169
:100D4000B603981708F479CF85E88093BC000AC0F1
:100D500085EC8093BC001092670404C01092650477
:100D60000E946B02FF91EF91BF91AF919F918F9184
:100D70007F916F915F914F913F912F910F900FBE97
:100D80000F901F9018954091B603262F30E0240F46
:100D9000311D21323105DCF4209167042430C9F47F
:100DA000FC0180E090E0861758F43091B603219161
:100DB000DC01AA56BC4FA30FB11D2C930196F3CFB3
:100DC0008091B603680F6093B60380E0089581E0D8
:100DD000089582E00895089581E090E03091B8038D
:100DE0002091B703321710F480E090E0919581953F
:100DF000910908958091B8039091B703891730F451
:100E00008F5F8093B80380E090E008958FEF9FEFAD
:100E100008958091B70390E02091B803821B910957
:100E20000895CF92DF92EF92FF920F931F93CF938B
:100E3000DF937C01262F972F8A01809168048823F5
:100E400091F0C62FD72F6E01C40ED51ECC15DD052F
:100E500071F06991D701ED91FC910190F081E02D45
:100E6000C7010995F3CF642F822F0E94C306C801E2
:100E7000DF91CF911F910F91FF90EF90DF90CF9076
:100E80000895CF93DF931F92CDB7DEB7698320918A
:100E900068042223D1F020918B04203240F021E01D
:100EA00030E0FC013383228380E090E015C0809124
:100EB0006904E82FF0E0E659FB4F998190838F5F3A
:100EC0008093690480938B0405C061E0CE01019694
:100ED0000E94C30681E090E00F90DF91CF910895CA
:100EE00020918E0430918F042817390771F4909166
:100EF0008C0480918D04981741F0E0918C04F0E00F
:100F0000EF5FFB4F808190E008958FEF9FEF089592
:100F100008951F93CF93DF93DC015C962D913C9154
:100F20005D972115310539F481E090E013969C938B
:100F30008E9312973DC05196ED91FC915297509629
:100F40009C915097892F80951FB75E964C915E9724
:100F500041FB772770F941FD6095F8944081772334
:100F600011F0492B01C048234083E9012197F1F793
:100F700048E0508160FF02C0592B01C058235083C4
:100F8000E9012197F1F76695415099F7772321F010
:100F900090818923808303C08081982B90831FBF19
:100FA0005C968D919C915D970197F1F721E030E07F
:100FB000C901DF91CF911F91089520918E04309146
:100FC0008F042817390771F480918D0420918C04C7
:100FD00090E0805C9F4F821B910960E470E00E946A
:100FE000032B089580E090E0089520918E043091C5
:100FF0008F0428173907B9F490918C0480918D04DF
:10100000981789F0E0918C04F0E0EF5FFB4F80814E
:1010100020918C0430E02F5F3F4F2F7333272093B4
:101020008C0490E008958FEF9FEF0895089580E07D
:1010300090E008951F920F920FB60F9211242F93F4
:101040003F934F935F936F937F938F939F93AF9350
:10105000BF93EF93FF93E0918E04F0918F0430974C
:1010600009F451C0968DA685B785858591FF04C08A
:101070009C91892329F447C09C91892309F043C09E
:10108000A389B4899C918589809589238C938689CD
:1010900097890197F1F7608D718DA685B785558584
:1010A00038E020E0CB010197F1F7822F90E0959591
:1010B0008795282F4C91452309F02068315091F7EE
:1010C000868D81FD209580918D0490E001968F732F
:1010D000992730918C04381749F0A0918D04B0E025
:1010E000AF5FBB4F2C9380938D0403C0868D8160CE
:1010F000868F828D938D0197F1F7A389B4899C9196
:101100008589892B8C93FF91EF91BF91AF919F912E
:101110008F917F916F915F914F913F912F910F90A0
:101120000FBE0F901F901895E0918E04F0918F04E0
:10113000E817F90769F4A389B4899C91858980959A
:1011400089238C9310928F0410928E0481E008956D
:1011500080E008950F931F93CF93DF938C01EB01F1
:101160000E94A2288883C80101960E94A228898330
:1011700082E090E0DF91CF911F910F910895EF925F
:10118000FF920F931F93CF93DF937C018B01C0E0FD
:10119000D0E0F80161918F01CE018E0D9F1D0E945C
:1011A000AA282196C430D105A1F784E090E0DF9110
:1011B000CF911F910F91FF90EF9008950F931F9380
:1011C000CF93DF93EC018B01FB0160810E94AA2881
:1011D000F8016181CE0101960E94AA2882E090E088
:1011E000DF91CF911F910F910895EF92FF920F938E
:1011F0001F93CF93DF938B010C5F1F4FEB017C019B
:10120000E61AF70AC7018C0F9D1F0E94A228899336
:10121000C017D107B9F784E090E0DF91CF911F911B
:101220000F91FF90EF900895CF93DF93A89581E100
:101230000E94F403EC016AE070E080E090E00E941C
:101240000B0481E10E94F4039E01281B390BC901A4
:1012500037FF03C09195819591090C97F4F4CE0165
:10126000875C92408935910510F482E301C08CE3DC
:101270009E01295532402336310508F48EE19E0146
:10128000215931402539310508F488E2C35DD1097F
:10129000C935D10518F484E101C08CE3DF91CF9109
:1012A0000895CF93DF93CDB7DEB765970FB6F89467
:1012B000DEBF0FBECDBF880F991FFC01E057FE4F68
:1012C00065917491CE0101960E947727BE016F5FF0
:1012D0007F4F89E395E00E94D21368E270E080E0DE
:1012E00090E00E940B0465960FB6F894DEBF0FBE27
:1012F000CDBFDF91CF91089589E395E00E94A304CB
:1013000060E08DE090E00E949A1164EF71E080E06F
:1013100090E00E940B04109209030895CF92DF928F
:10132000EF92FF9289E395E00E94A3048EE090E0A3
:101330000E94510961E080E00E9460118091E60204
:101340009091E702A091E802B091E90280389649B5
:10135000A849B10530F464E672E089E395E00E94A3
:10136000D2138091E6029091E702A091E802B09139
:10137000E90280349244AF40B10530F464E672E093
:1013800089E395E00E94D2138091E6029091E702F2
:10139000A091E802B091E902803A9648A140B105D7
:1013A00030F464E672E089E395E00E94D213809104
:1013B000E6029091E702A091E802B091E902803143
:1013C0009742A105B10530F464E672E089E395E047
:1013D0000E94D2136091E6027091E7028091E802C8
:1013E0009091E90228EEC22E23E0D22EE12CF12CBE
:1013F000A70196010E941929BA01A9012AE089E3EF
:1014000095E00E9482126BE772E089E395E00E940A
:10141000D2136091E6027091E7028091E802909108
:10142000E902A70196010E94192924E630E040E074
:1014300050E00E941929BA01A9012AE089E395E048
:101440000E9482126AEB72E089E395E00E94D21357
:1014500060913E05862F816080933E05696089E337
:1014600095E0FF90EF90DF90CF900C949B04CF928B
:10147000DF92EF92FF92CF93DF930E944504609337
:101480000F03709310038093110390931203C09085
:101490000503D0900603E0900703F090080320E1D5
:1014A000C20E27E2D21EE11CF11CC616D706E806C2
:1014B000F90610F410921303809113038111E9C00F
:1014C000C090FD03D090FE03E090FF03F090000475
:1014D0000E9445046C157D058E059F0568F4A701E3
:1014E0009601261B370B480B590BDA01C901809571
:1014F0009095A095B09506C0DC01CB018C199D0993
:10150000AE09BF098C329140A105B10508F4C1C0F4
:101510000E9445046093FD037093FE038093FF03D4
:1015200090930004C090EF02D090F002E090F1029E
:10153000F090F20220E030E0A901C701B6010E945C
:101540007E27811103C088E190E01FC060910801EF
:1015500070910901072E000C880B990B0E948527BA
:101560009B01AC01C701B6010E945F2A87FD1BC029
:10157000809118019091190104979093190180931B
:10158000180105974CF485E090E090931901809341
:10159000180181E090E002C082E090E09093170192
:1015A0008093160176C080911601909117018130C9
:1015B000910519F0029771F164C02091F9033091FF
:1015C000FA034091FB035091FC03C701B6010E944E
:1015D0005F2A209118013091190187FD0EC02D5FFF
:1015E0003F4F283F31058CF087EF90E09093190131
:1015F0008093180182E090E034C082E090E0909304
:10160000170180931601225031093093190120935C
:10161000180137C02091F9033091FA034091FB0380
:101620005091FC03C701B6010E945F2AC0911801C6
:10163000D091190187FD1AC020E030E0A901C7014F
:10164000B6010E945F2A18168CF42297C530D10586
:10165000A4F485E090E0909319018093180181E053
:1016600090E090931701809316010BC081E090E009
:1016700090931701809316012396D0931901C0937C
:101680001801C092F903D092FA03E092FB03F092A2
:10169000FC03DF91CF91FF90EF90DF90CF90089502
:1016A0004F925F926F927F928F929F92AF92BF9272
:1016B000CF92DF92EF92FF920F931F93CF93DF931E
:1016C000CDB7DEB764970FB6F894DEBF0FBECDBFBF
:1016D000A8958EE480937C0062E070E080E090E06A
:1016E0000E940B0480917A00806480937A0080913C
:1016F0007A0086FDFCCF809178002091790030E05F
:10170000322F2227A901330F660B770B9A01AB0109
:10171000282B60E070E381E190E00E94B8282983E3
:101720003A834B835C833093F8032093F70309815A
:101730001A81B801110F880B990B0E9485276987C0
:101740007A878B879C8720E030E04AE754E40E9448
:10175000B7296D877E878F87988B6093F30370938B
:10176000F4038093F5039093F60308EC10E0412C0A
:10177000512C3201C12CD12C7601812C912C540199
:101780008FE00E94F403092E000CAA0BBB0BC80EBD
:10179000D91EEA1EFB1E80E10E94F403092E000CF4
:1017A000AA0BBB0B880E991EAA1EBB1E8EE00E94C0
:1017B000F403092E000CAA0BBB0B480E591E6A1E1F
:1017C0007B1E01501109E1F6C501B40128EC30E09F
:1017D00040E050E00E941929298B3A8B4B8B5C8B9F
:1017E0003093F2032093F103C301B20128EC30E0FF
:1017F00040E050E00E94192929013A012D833E83DF
:101800004F835887C701B6010E94832720E030E04C
:1018100048E453E40E94B7296B017C0120E030ECDE
:101820004FE754E469857A858B859C850E94B729AA
:101830009B01AC01C701B6010E94E4276B017C014A
:1018400069817A8177FF02C06F5F7F4F75956795D9
:10185000072E000C880B990B0E9485279B01AC0179
:10186000C701B6010E944A296B017C0120E030E0EB
:1018700048EC52E40E94B7294B015C018091F902C7
:101880009091FA026AE070E00E94032B072E000C90
:10189000880B990B0E9485279B01AC01C501B401FF
:1018A0000E94E4279B01AC01C701B6010E944B29AD
:1018B0000E94642A0E94292A6A3071052CF07093D4
:1018C000F4026093F30204C01092F4021092F30247
:1018D0008091F3029091F402803B944024F081E0E7
:1018E0008093F00302C01092F0038BE00E945F032C
:1018F000892B19F481E0809314036091F3027091B5
:10190000F402072E000C880B990B0E9485276B01AF
:101910007C0129893A89B901330F880B990B0E9400
:1019200085272D853E854F8558890E94E42720E034
:1019300030EC4FE754E40E94B72921E43AEE40E44A
:101940005CE30E94B7294B015C0120E030E048ECE9
:1019500052E40E94B72969837A838B839C838091A8
:10196000F7029091F8026AE070E00E94032B072EC4
:10197000000C880B990B0E9485279B01AC016981A3
:101980007A818B819C810E94E4279B01AC01C50177
:10199000B4010E944B294B015C010E94642A0E9401
:1019A000292A7093F6026093F502A7019601C501FA
:1019B000B4010E94E42720E030E048EC52E40E94A9
:1019C000B7296093EF027093F0028093F102909335
:1019D000F2026EEB72E080E994E00E94D213C5013E
:1019E000B4010E94011365EC72E080E994E00E946A
:1019F000D213C701B6010E94011365EC72E080E9C1
:101A000094E00E94D2136091EF027091F0028091F5
:101A1000F1029091F2020E94011365EC72E080E9FC
:101A200094E00E94D213609118017091190180E92D
:101A300094E00E94CB1265EC72E080E994E00E9491
:101A4000D21369EC72E080E994E00E94D41367EC51
:101A500072E080E994E00E94D4138091F5029091A5
:101A6000F6022091FF02309100032817390754F441
:101A7000909300038093FF026FEF72E086E190E0A5
:101A80000E94DE088091F3029091F4022091FD0201
:101A90003091FE022817390754F49093FE02809388
:101AA000FD026DEF72E088E190E00E94DE08C090D8
:101AB000EF02D090F002E090F102F090F20260911B
:101AC000FB027091FC02072E000C880B990B0E9400
:101AD00085279B01AC01C701B6010E945F2A181639
:101AE00074F4C701B6010E94292A7093FC02609326
:101AF000FB026BEF72E08AE190E00E94DE083DEFAE
:101B0000431633E053066104710440F085EB91E025
:101B1000A0E0B0E08D839E83AF83B887C090F303CD
:101B2000D090F403E090F503F090F603AD81BE8110
:101B3000BD01BB0F880B990B0E9485274B015C01EF
:101B400020E030EC4FE754E4C701B6010E94B7290A
:101B50009B01AC01C501B4010E94E4274B015C016B
:101B600020E030E849E055E40E94E4272B013C01E5
:101B7000A5019401C701B6010E944A299B01AC014D
:101B8000C301B2010E94B7299B01AC0160E070E083
:101B90008AEF94E40E944A2921EA34E849E15EE3AD
:101BA0000E94E4279B01AC0160EE7FEF87E793E49E
:101BB0000E944A290E948E2A2FEC37EF4BE751E40E
:101BC0000E944A2921EA34E849E95DE30E94B729E5
:101BD00020E030E048EC51E40E944B290E94292A81
:101BE0007093160360931503C090EC03D090ED033F
:101BF000E090EE03F090EF030E9445046093EC0345
:101C00007093ED038093EE039093EF036C197D09BD
:101C10008E099F090E94832720E03AEB4BE55AE4A6
:101C20000E94B7292091EF023091F0024091F10219
:101C30005091F2020E94E4272091E8033091E903D9
:101C40004091EA035091EB030E944B296B017C0108
:101C500020E030E040E85FE30E945F2A18164CF075
:101C6000C092E803D092E903E092EA03F092EB031A
:101C70003CC020E030E040E85FE3C701B6010E94CD
:101C80004A296093E8037093E9038093EA039093F1
:101C9000EB0380910A0390910B03A0910C03B09188
:101CA0000D030196A11DB11D8115E1EE9E07E5EF23
:101CB000AE07E5E0BE0748F480930A0390930B0358
:101CC000A0930C03B0930D0310C010920A0310925E
:101CD0000B0310920C0310920D031092EB02109262
:101CE000EC021092ED021092EE0280910A039091A4
:101CF0000B03A0910C03B0910D034091EB025091A6
:101D0000EC026091ED027091EE028C019D01041BCA
:101D1000150B260B370B043611052105310558F03C
:101D200021E020930E038093EB029093EC02A093AA
:101D3000ED02B093EE0264960FB6F894DEBF0FBECC
:101D4000CDBFDF91CF911F910F91FF90EF90DF906A
:101D5000CF90BF90AF909F908F907F906F905F904B
:101D60004F9008950F931F938C018091F003882367
:101D700029F1095111090530110514F405E010E0AD
:101D8000109319010093180182E090E090931701DD
:101D90008093160189E395E00E94A30460E080E04F
:101DA0000E9460116AEC72E089E395E00E94D21310
:101DB000083F110554F007EF10E007C0083F110578
:101DC000D4F717FF02C000E010E0F89483E180939D
:101DD000810084EC99E0909387008093860025E051
:101DE000209FC001219F900D112490938900809322
:101DF00088002BEF2003C001219F900D11248C53EC
:101E0000964F90938B0080938A0084B1866084B94A
:101E100080EB8093800078941F910F910895CF926A
:101E2000DF92EF92FF921F93CF93DF93D1E015E201
:101E30000E941409C82F6CE370E080E090E00E94DB
:101E40000B0484E00E945F03892B79F42091150331
:101E50003091160380911A0190911B0128173907C0
:101E600024F48091EA028823C9F11092190110929A
:101E7000180180911801909119010E94B20ED0931F
:101E8000680410938A041092690410928B04609184
:101E900010018DE295E00E9441070E94AB110E9463
:101EA0004504C0900103D0900203E0900303F0903A
:101EB000040320E1C20E27E2D21EE11CF11CC6166B
:101EC000D706E806F90618F4109209030CC0CC33C3
:101ED00051F4809109038111ABCF05C00E94500BD2
:101EE0000E94370AC6CF0E94450460930103709395
:101EF0000203809303039093040360E570E080E0A5
:101F000090E00E940B048C2FDF91CF911F91FF90E6
:101F1000EF90DF90CF900895DC01ED91FC9101905E
:101F2000F081E02D0994CF92DF92EF92FF920F9310
:101F30001F93CF93DF936C017A018B01C0E0D0E057
:101F4000CE15DF0589F0D8016D918D01D601ED9197
:101F5000FC910190F081E02DC6010995892B11F4C7
:101F60007E0102C02196ECCFC701DF91CF911F9176
:101F70000F91FF90EF90DF90CF900895EF92FF9236
:101F80000F931F93CF93DF93EC017B018A0188812C
:101F90009981009729F02A813B8124173507F8F4AD
:101FA000B8016F5F7F4F0E94652C009759F09983AD
:101FB00088831B830A832C813D81232B81F4FC01C0
:101FC00010820DC088819981009711F00E94CD2B5D
:101FD000198218821D821C821B821A8207C01D83EF
:101FE0000C83B701888199810E943D2DCE01DF913C
:101FF000CF911F910F91FF90EF9008954BE555E021
:10200000FA012FEF3FEF9E2F941B981788F49191C0
:10201000292798E0B9016170772736952795672BB6
:1020200021F061E0262760EA3627915099F7EBCF3F
:10203000922F832F08951092CF051092CE05109203
:10204000CD051092CC051092CB051092CA058DE9F2
:1020500091E09093D1058093D0059091C005963181
:1020600008F057C02DEB30E03093CB052093CA0524
:102070002BE931E03093CD052093CC052CE231E003
:102080003093CF052093CE0520916800983050F012
:1020900031E09E3008F430E081E001C0880F3A95CD
:1020A000EAF701C084E0822B80936800983038F012
:1020B0009E3040F0963148F020E030E008C02DE638
:1020C00030E005C02BE630E002C02CE630E0309373
:1020D000C8052093C705983030F481E001C0880F0F
:1020E0009A95EAF70EC0292F30E09E3018F4285058
:1020F000310902C02E50310981E001C0880F2A95B4
:10210000EAF78093C9058091D0059091D105019798
:10211000F1F78091CE059091CF05892B21F1809127
:102120008E0490918F0425E0843B9207E1F00097A4
:1021300011F00E9494088091D2058E7F8093D20581
:1021400010928D0410928C0484EB95E090938F0490
:1021500080938E04E091C705F091C805908180912D
:10216000C905892B808308951F93CF93DF9300D0F7
:1021700000D0CDB7DEB710919B05812F0E94FE0FD6
:10218000E12FF0E0EE5AFA4F9187E1E0E10FF0E045
:10219000EE5AFA4F81871E5F10939B058091580578
:1021A000823018F061E00E948803809157054091C9
:1021B0009B05843028F4809152059091530504C00A
:1021C0008091540590915505DC01ED91FC9150E012
:1021D0000280F381E02D6BE575E00995809158054B
:1021E000823090F180915705843058F480915205E7
:1021F00090915305DC01ED91FC910680F781E02D73
:1022000009958091AF059091B005A091B105B0916D
:10221000B20589839A83AB83BC8389819A81AB8120
:10222000BC81AC01BD01415051096109710949836B
:102230005A836B837C83892B8A2B8B2B71F760E00D
:10224000809158050E94880380915705843050F58D
:102250008091520590915305DC01ED91FC9102842F
:10226000F385E02D099597FFF3CF10929B050E940F
:1022700045046093AB057093AC058093AD059093D6
:10228000AE058091A1059091A20501969093A205BB
:102290008093A1050F900F900F900F90DF91CF9139
:1022A0001F9108958091540590915505DC01ED91A1
:1022B000FC910284F385E02D099597FFF3CFD5CFEC
:1022C000CF93DF93CDB7DEB728970FB6F894DEBF74
:1022D0000FBECDBF1D8290E49E8324E12F8324E5B1
:1022E000288719829A8390E19B8390E59C83909143
:1022F0004005691710F06FEF690F40914105262FD7
:1023000030E0FE01E20FF31F403121F4943011F46C
:10231000918101C09581682F690F606889E395E01C
:1023200028960FB6F894DEBF0FBECDBFDF91CF91D8
:102330000C949B04CF93DF93EC0180E00E9460112A
:1023400064E170E080E090E00E940B04CE01DF9138
:10235000CF910C94510920918B0490918A042132E1
:1023600008F04AC0809167048111FCCF32E03093BD
:10237000670431E0309366043FEF309365041092B8
:10238000640420936304AAE6B4E043E454E0FA0151
:102390003E2F341B321718F43D913193F9CF109230
:1023A000420420914204990F922B90934204909101
:1023B0004104913061F41092410490914204909351
:1023C000BB009091BC0093FDF8CF95EC01C095EE59
:1023D0009093BC00909167049230E1F39091650472
:1023E0009F3F79F080916504803241F080916504CF
:1023F000803331F084E005C081E003C082E001C099
:1024000083E01092690410928B041092680408957E
:10241000FC011182108213821282158214826115CE
:10242000710551F0FB0101900020E9F73197AF01F0
:10243000461B570B0C94BE0F0895BF92CF92DF92AC
:10244000EF92FF920F931F93CF93DF937C016B0169
:10245000EA0189012417350720F48D2FE901042FA3
:10246000182F69EC72E0C7010E940812D601149679
:102470008D919C911597C817D907C8F580179107BA
:1024800008F48C01D601ED91FC911197E00FF11F3A
:10249000B08010824D915C91BA016C0F7D1F611567
:1024A000710561F0FB0101900020E9F73197AF0160
:1024B000461B570BC7010E94BE0F13C0F701808156
:1024C0009181009711F00E94CD2BD70111961C929B
:1024D0001E9215961C921E92149713961C921E9291
:1024E0001297D601ED91FC91E00FF11FB082C70168
:1024F000DF91CF911F910F91FF90EF90DF90CF90E0
:10250000BF9008954F925F926F927F92EF92FF92E9
:102510000F931F93CF93DF93CDB7DEB7A1970FB67D
:10252000F894DEBF0FBECDBF7C01FA01CB0119A22A
:10253000223008F42AE08E010F5D1F4F422E512CED
:10254000612C712CBF01A30192010E941929F9018C
:10255000CA01015011096A3014F4605D01C0695C60
:10256000D8016C93232B242B252B61F7B801C701CD
:102570000E94D413A1960FB6F894DEBF0FBECDBF54
:10258000DF91CF911F910F91FF90EF907F906F900F
:102590005F904F900895CF92DF92EF92FF920F934A
:1025A0001F93CF93DF936B01770FEE08FF08F7FEC1
:1025B0001BC0EC016DE20E948C0F8C014427552753
:1025C000BA014C195D096E097F092AE0CE010E940B
:1025D0008212800F911FDF91CF911F910F91FF9079
:1025E000EF90DF90CF9008952AE0B701A601DF9128
:1025F000CF911F910F91FF90EF90DF90CF900C94AF
:1026000082128F929F92AF92BF92CF92DF92EF92FF
:10261000FF92CF93DF936B017C019B01AC010E9481
:10262000CE2A882319F06AED72E027C046015701CF
:10263000E894B7F82FEF3FEF4FE75FE7C501B4012C
:102640000E94CE2A81110DC02FEF3FEF4FE75FE7C9
:10265000C501B4010E947E2718161CF46EED72E0CD
:102660000CC02FEF3FEF4FE75FE4C701B6010E94B8
:102670005F2A181684F462EE72E080E994E0DF913C
:10268000CF91FF90EF90DF90CF90BF90AF909F9051
:102690008F900C94D4132FEF3FEF4FE75FECC701FF
:1026A000B6010E947E2787FDE6CF20E030E0A90139
:1026B000C701B6010E947E2787FF0BC06DE280E94B
:1026C00094E00E948C0FEC01F7FAF094F7F8F09484
:1026D00002C0C0E0D0E02AE037ED43EA5BE3C70187
:1026E000B6010E944B294B015C010E94302A6B010C
:1026F0007C010E9483279B01AC01C501B4010E94AB
:102700004A294B015C012AE0B701A60180E994E067
:102710000E948212C80FD91F6EE280E994E00E94E5
:102720008C0FC80FD91F20E030E040E251E4C50112
:10273000B4010E94E4274B015C010E94302A6B0126
:10274000E12CF12C2AE0B701A60180E994E00E9477
:102750008212C80FD91FC701B6010E9483279B01AF
:10276000AC01C501B4010E944A2920E030E040E2FA
:1027700051E40E94E4270E94302AAB0160E070E03F
:102780002AE080E994E00E9482128C0F9D1FDF9165
:10279000CF91FF90EF90DF90CF90BF90AF909F9040
:1027A0008F9008950C94D4136115710579F0FB0195
:1027B00001900020E9F73197AF01461B570BDC0170
:1027C000ED91FC910280F381E02D099480E090E08E
:1027D0000895CF93DF93CDB7DEB764970FB6F89423
:1027E000DEBF0FBECDBF789484B5826084BD84B552
:1027F000816084BD85B5826085BD85B5816085BDFC
:1028000080916E00816080936E00109281008091B3
:10281000810082608093810080918100816080933B
:102820008100809180008160809380008091B10060
:1028300084608093B1008091B00081608093B0008B
:1028400080917A00846080937A0080917A0082601F
:1028500080937A0080917A00816080937A008091E1
:102860007A00806880937A001092C10099E288E132
:102870000FB6F894A895809360000FBE9093600007
:10288000A89561E084E10E94B80360E084E10E94C1
:10289000880361E085E10E94B80360E085E10E9461
:1028A000880361E082E00E94B80360E082E00E9459
:1028B000880361E083E00E94B80360E083E00E9447
:1028C00088036BE773E08CEF93E00E94F50880913A
:1028D0007B0390917C03A0917D03B0917E038A3AA3
:1028E0009241A840B14709F47CC064E171E082E004
:1028F00090E00E94DE0862E171E086E090E00E94D4
:10290000DE0865E873E088E090E00E94BF086CE1B3
:1029100071E08CE090E00E94DE086AE171E08EE0F8
:1029200090E00E94DE0868E071E080E190E00E94A3
:10293000DE086CE071E082E190E00E94DE086AE06F
:1029400071E084E190E00E94DE086FEF72E086E1C2
:1029500090E00E94DE086DEF72E088E190E00E9456
:10296000DE086BEF72E08AE190E00E94DE0867EF1C
:1029700072E08CE190E00E94DE0869EF72E08EE187
:1029800090E00E94DE086EE071E080E290E00E943C
:10299000DE0860E171E082E290E00E94DE086AE019
:1029A00073E080911401909115010E94BF0869E8BD
:1029B00073E080911201909113010E94BF088AEA8E
:1029C00092E1A8E0B1E780937B0390937C03A0930E
:1029D0007D03B0937E036BE773E08CEF93E00E947E
:1029E000BF0864E171E082E090E00E94AA0862E121
:1029F00071E086E090E00E94AA0865E873E088E054
:102A000090E00E94F5086CE171E08CE090E00E949B
:102A1000AA086AE171E08EE090E00E94AA0868E0EE
:102A200071E080E190E00E94AA086CE071E082E130
:102A300090E00E94AA086AE071E084E190E00E94C0
:102A4000AA086FEF72E086E190E00E94AA086DEF9D
:102A500072E088E190E00E94AA086BEF72E08AE1E0
:102A600090E00E94AA0867EF72E08CE190E00E947B
:102A7000AA0869EF72E08EE190E00E94AA086EE079
:102A800071E080E290E00E94AA0860E171E082E2D9
:102A900090E00E94AA086AE073E08091140190918E
:102AA00015010E94F50869E873E080911201909188
:102AB00013010E94F50880910A0390910B03A091E5
:102AC0000C03B0910D038093EB029093EC02A09362
:102AD000ED02B093EE0260E08BE00E94B80361E08B
:102AE00087E00E94B80360E087E00E94880361E00D
:102AF00081E00E94B80361E08DE00E94B80360E0CD
:102B00008DE00E94880362E085E00E94B80362E0E5
:102B100084E00E94B803E091A004F091A10482E057
:102B20008083E0919C04F0919D041082E0919E04CA
:102B3000F0919F0480E180831092A804E091A404A6
:102B4000F091A50486E08083E091A204F091A304B3
:102B5000808180618083E091A204F091A304808150
:102B600088608083E091A204F091A3048081806852
:102B70008083E091A204F091A30480818F7D808303
:102B80000E941B1083E593E090934C0380934B03CA
:102B900084E280934D0304EB15E010934A03009305
:102BA000490384E290E00E94382B90934F03809376
:102BB0004E0310935505009354050E941B108091FD
:102BC0005805823040F061E00E94B80360E08091D7
:102BD00058050E9488038091540590915505DC01A9
:102BE000ED91FC910284F385E02D099597FFF3CFD9
:102BF00010929B0510929C051092A4051092A305BB
:102C00001092A2051092A1051092A00510929F05A6
:102C100080911C019FEF980F973F10F48093560509
:102C20006CE370E080E090E00E940B0420E042E062
:102C300060E189E395E00E94360568E489E395E068
:102C40000E949B0483E790E00197F1F700E011E018
:102C5000FBE9CF2ED12CA8E0FA2EF00EF8016191FD
:102C60008F0189E395E00E945E02C6010197F1F7AA
:102C7000F012F4CFE0913905F0913A050484F5851E
:102C8000E02D6FEF89E395E009950E941409082E65
:102C9000000C990B90938403809383034E9709F063
:102CA00051C160ED77E080E090E00E940B040E944B
:102CB0001409082E000C990B9093840380938303CE
:102CC0004E9709F03FC181E08093090320911001E4
:102CD0003091110130938103209380032AE030E08A
:102CE00030931101209310018093EA02C0900A03EF
:102CF000D0900B03E0900C03F0900D03C092E6021D
:102D0000D092E702E092E802F092E902C701B60130
:102D100020E836E948E950E00E941929298330E487
:102D2000832E32E4932E3FE0A32EB12CA501940113
:102D30000E9419292A83C701B601A50194010E94A6
:102D4000192940EA842E46E8942EAA24A394B12C93
:102D5000A50194010E9419292B83C701B601A50181
:102D600094010E94192950E1852E57E2952EA12C3D
:102D7000B12CA50194010E9419292C83C701B60129
:102D8000A50194010E941929E8EE8E2EE3E09E2E03
:102D9000A12CB12CA50194010E9419292D83C701F2
:102DA000B601A50194010E94192924E630E040E013
:102DB00050E00E9419292F830E948E0968EE73E06B
:102DC00080E090E00E940B0406E010E00E948E0973
:102DD00061E0802F0E9460110E940F0F80937F039B
:102DE000883239F0823309F471C08E3109F092C013
:102DF0000DC0015011090530110529F017FF8AC0D7
:102E000006E010E087C004E010E084C0E1E0F0E0FC
:102E1000EC0FFD1FE00FF11F808190E001968A30DA
:102E2000910514F080E090E0E1E0F0E0EC0FFD1F90
:102E3000E00FF11F8083FC81ED81A981B0E020EAE1
:102E400036E841E050E00E94D7286B017C018A817E
:102E5000282F30E0A0E1B7E20E943B29C60ED71E22
:102E6000E81EF91E2B8130E0A8EEB3E00E943B295A
:102E7000C60ED71EE81EF91E2F2F30E0A4E6B0E0E4
:102E80000E943B29C60ED71EE81EF91E2E2F30E0E9
:102E9000AAE0B0E00E943B29AB01BC014C0D5D1DD6
:102EA0006E1D7F1D8F819A01AB01280F311D411DC1
:102EB000511DA4E6B0E00E94D7286093E60270930B
:102EC000E7028093E8029093E90224C08091E60231
:102ED0009091E702A091E802B091E90280930A0381
:102EE00090930B03A0930C03B0930D0360913E05E8
:102EF0006E7F60933E05686089E395E00E949B04C5
:102F00006AE073E080911401909115010E94BF085E
:102F10000E947C0980910903811158CF60913E0580
:102F20006E7F60933E05686089E395E00E949B0494
:102F30001092EA0280918003909181039093110195
:102F40008093100160E080E00E94601166E771E00C
:102F500089E395E00E94D21361E080E00E94601155
:102F600067E871E089E395E00E94D21364EC79E0B0
:102F700080E090E00E940B0489E395E00E94A304A6
:102F8000A89560E080E00E94601168E971E089E343
:102F900095E00E94D21361E080E00E94601169EA2E
:102FA00071E089E395E00E94D21360ED77E080E064
:102FB00090E00E940B0489E395E00E94A304A89589
:102FC0006AEB71E0CE010E960E94081267EE71E086
:102FD000CE0108960E94081200E010E08A899B89C1
:102FE0000F970817190708F048C060E080E00E94BA
:102FF00060117801FFE0EF0EF11C9701A801BE01FE
:10300000625F7F4FCE0101960E941D124D815E814D
:1030100069817A8189E395E00E94930F89819A8181
:103020000E94CD2B61E080E00E9460119701A80111
:10303000BE01685F7F4FCE0101960E941D124D8137
:103040005E8169817A8189E395E00E94930F89818D
:103050009A810E94CD2B0115110529F460ED77E0CE
:1030600080E090E004C064E670E080E090E00E94C0
:103070000B04A8950F5F1F4FB1CF64EC79E080E09F
:1030800090E00E940B0461E08CE00E94880361E004
:103090008CE00E94B8036AE070E080E090E00E945B
:1030A0000B0460E08CE00E94B803888599850E943B
:1030B000CD2B8E859F850E94CD2B84E291E098E0F8
:1030C000892E880E8C8AC12CD12C7601C3940E9443
:1030D000500B84E00E945F03892B69F42091150353
:1030E0003091160380911A0190911B01281739071E
:1030F00014F40C94E321109219011092180180919C
:103100001801909119010E94B20E6AE070E080E00F
:1031100090E00E940B040E9445042B013C01809129
:103120001B0390911C03A0911D03B0911E0353013A
:103130004201881A990AAA0ABB0A20E2821623E0F1
:103140009206A104B10408F41AC160E080E00E9474
:1031500060118091F5029091F6020A978A359105E7
:1031600030F468EB71E089E395E00E94D21380911E
:10317000F5029091F6020A9734F467EB71E089E367
:1031800095E00E94D2136091F5027091F60289E3F6
:1031900095E00E94CB1268E472E089E395E00E941A
:1031A000D21360E085E00E94601184E00E945F031A
:1031B000892B69F4209115033091160380911A012F
:1031C00090911B012817390714F40C94782464EBB0
:1031D00072E089E395E00E94D21384E00E945F03CD
:1031E000892B31F06BE472E089E395E00E94D21301
:1031F000209115033091160380911A0190911B01C3
:103200002817390734F06DE472E089E395E00E94F5
:10321000D21360E08BE00E9460118090EF029090EA
:10322000F002A090F102B090F20220E030E04AE714
:1032300054E4C501B4010E947E2787FF02C00C94AC
:103240005B238090EF029090F002A090F102B0908A
:10325000F20220E030E048EC52E4C501B4010E94E3
:103260007E2787FF02C00C946F2320E030E040E20D
:1032700051E46091EF027091F0028091F10290911F
:10328000F2020E947E2787FF06C066EB71E089E3A9
:1032900095E00E94D2136091EF027091F00280914C
:1032A000F1029091F2020E94292A89E395E00E949E
:1032B000CB1262E572E089E395E00E94D21380911F
:1032C000130361E0882311F40C94832380E00E94AF
:1032D000601164E572E089E395E00E94D213609189
:1032E000180170911901072E000C880B990B0E9490
:1032F000852720E030E040E250E40E94B7290E9498
:10330000292A6A30710534F468EB71E089E395E0AD
:103310000E94D2136091180170911901072E000CC0
:10332000880B990B0E94852720E030E040E250E4B2
:103330000E94B7290E94292A89E395E00E94CB12B6
:103340006CE572E089E395E00E94D21381E08093FE
:10335000680485E280938A041092690410928B04B9
:103360006AE08DE295E00E9441070E94AB11409215
:103370001B0350921C0360921D0370921E038091E8
:103380001303811106C064E670E080E090E00E94C3
:103390000B0480910E0190910F01892B09F4D8C084
:1033A0000E94450460930F037093100380931103F0
:1033B0009093120300917703109178032091790381
:1033C00030917A03DC01CB01801B910BA20BB30B74
:1033D000883B9B40A105B10508F4AAC28091F50283
:1033E0009091F60290935803809357038091F302D3
:1033F0009091F40290935A03809359036091EF02E5
:103400007091F0028091F1029091F2020E94292ABB
:1034100070935C0360935B03809115039091160396
:1034200090935E0380935D0380910A0390910B0358
:10343000A0910C03B0910D038093670390936803F0
:10344000A0936903B0936A0380911C018093530396
:1034500085E0809355038FE08093540361E081E021
:103460000E9488036FE070E080E090E00E940B040F
:1034700061E087E00E948803B0904D03809149038A
:1034800090914A03DC01ED91FC910190F081E02DD7
:1034900066E009958091490390914A03DC01ED9122
:1034A000FC910190F081E02D65E809958091490338
:1034B00090914A03DC01ED91FC910190F081E02DA7
:1034C00060914D03099500E010E020914D0330E03C
:1034D0008091490390914A030217130794F4E091F5
:1034E0004B03F0914C03E00FF11F6081B626DC0125
:1034F000ED91FC910190F081E02D09950F5F1F4F38
:10350000E4CFDC01ED91FC910190F081E02D6B2D79
:10351000099560E087E00E94880364E170E080E044
:1035200090E00E940B0460E081E00E94880380919B
:103530000F0390911003A0911103B0911203809397
:10354000770390937803A0937903B0937A03F0C143
:1035500080911C0190911D0190932203809321037F
:103560001092240310922303109226031092250335
:1035700010922803109227038091F5029091F60291
:1035800090932A03809329038091F3029091F4028F
:1035900090932C0380932B036091EF027091F002C3
:1035A0008091F1029091F2020E94302A70932E03D2
:1035B00060932D038091150390911603909330032F
:1035C00080932F0310923203109231031092340330
:1035D0001092330310923603109235031092380381
:1035E0001092370380910A0390910B03A0910C0372
:1035F000B0910D0390933A0380933903B0933C0349
:10360000A0933B0310923E0310923D03109240039F
:1036100010923F0310924203109241031092440310
:1036200010924303109246031092450310924803F0
:103630001092470381E293E090939E0580939D054D
:1036400084E18093B30580915705843028F48091FC
:1036500052059091530504C08091540590915505F1
:10366000DC01ED91FC910084F185E02D0995882322
:1036700009F43DC190919C05891769F080939C05E0
:103680000E9445046093A7057093A8058093A9053F
:103690009093AA052CC10E9445040091A7051091A2
:1036A000A8052091A9053091AA05DC01CB01801B5A
:1036B000910BA20BB30B0597A105B10508F417C137
:1036C00010929C0580915805823018F060E00E94AD
:1036D000880310929B0580915705B12C843008F027
:1036E00045C08091520590915305DC01ED91FC910C
:1036F0000084F185E02D0995892B09F444C00091DF
:103700009B0510E08091520590915305DC01ED91ED
:10371000FC910284F385E02D0995F801EE5AFA4FE9
:10372000818780919B058F5F80939B058034C8F2D1
:10373000BB24B394D6CF00919B0510E08091540533
:1037400090915505DC01ED91FC910284F385E02D0B
:103750000995F801EE5AFA4F818780919B058F5F9A
:1037600080939B05803410F0BB24B3948091540562
:1037700090915505DC01ED91FC910084F185E02DDF
:103780000995892BC1F680919F059091A00501961E
:103790009093A00580939F05BB2059F08091A305CD
:1037A0009091A40501969093A4058093A3058DEFB5
:1037B00002C080919B0580935A0587300CF497C016
:1037C00090915B0580915605981391C080919B055F
:1037D000082F10E082500E94FE0FF801EE5AFA4FB7
:1037E000278130E0322F22274085242B8217930730
:1037F00059F08091A3059091A40501969093A4059A
:103800008093A3051FEF35C020915C05E4E2F1E051
:103810008191821711F40C94AB248C888E12F8CF0E
:103820008091A3059091A40501969093A40580939F
:10383000A30511E014C080915D0590E0982F8827C2
:1038400030915E05832B34E0969587953A95E1F7A4
:103850009091B305981710F00C94F22412E02058C0
:1038600020935C0510935D0583E080939B050E9487
:10387000B41010935A053BC080915D0590E0982FDD
:10388000882720915E05822B20915F0530E0322F42
:10389000222740916005242BB901F3E076956795C6
:1038A000FA95E1F7E62FA901477055274115510513
:1038B00011F0E1E0E60FE0935D0563E060939B05A6
:1038C000F0E0EE5AFA4F1386E3E0280F391FF0E0DC
:1038D0008217930711F00C940D25E0939B05452B5F
:1038E00021F081E08E0F80939B050E94B4102091FF
:1038F0001F03309120038091A1059091A205281704
:10390000390771F061E081E00E94880368E270E0AD
:1039100080E090E00E940B0460E081E00E94880358
:103920008091A1059091A2059093200380931F039D
:103930000E94450460930F0370931003809311035A
:10394000909312030091910310919203209193039D
:10395000309194034B015C01801A910AA20AB30AC8
:1039600040E884164EEE940646E3A406B10458F0EF
:1039700021E020930E036093910370939203809350
:103980009303909394030E9445042B013C016093A0
:103990000F0370931003809311039093120380918F
:1039A0008D0390918E03A0918F03B09190035301EA
:1039B0004201881A990AAA0ABB0A28EE821623E055
:1039C0009206A104B104B0F061E08DE00E9488038A
:1039D0006EE170E080E090E00E940B0460E08DE01A
:1039E0000E94880340928D0350928E0360928F0351
:1039F0007092900380910E03882309F4A2C0109264
:103A00000E0319821A821B821C82BE016F5F7F4FD8
:103A100080911401909115010E94F50849815A8105
:103A20006B817C8180910A0390910B03A0910C0320
:103A3000B0910D03481759076A077B0709F481C045
:103A40006AE073E080911401909115010E94BF0813
:103A50008091890390918A03A0918B03B0918C038C
:103A60000196A11DB11D8093890390938A03A093B1
:103A70008B03B0938C0369E873E0809112019091FD
:103A800013010E94BF088091890390918A03A0913D
:103A90008B03B0918C034091850350918603609114
:103AA000870370918803841B950BA60BB70B803995
:103AB0009F45A140B10508F444C080911401909144
:103AC00015010A96909315018093140180911201BB
:103AD000909113010A96909313018093120164E16F
:103AE00071E082E090E00E94DE0862E171E086E031
:103AF00090E00E94DE088091890390918A03A09152
:103B00008B03B0918C038093850390938603A093DD
:103B10008703B093880365E873E088E090E00E9433
:103B2000BF086AE073E080911401909115010E9432
:103B3000BF0869E873E080911201909113010E941F
:103B4000BF080E941409082E000C990B909384035F
:103B500080938303C29729F481E080930903109234
:103B6000820380910903882309F4C4C30E94450499
:103B70006093010370930203809303039093040303
:103B800080911001909111019093810380938003A3
:103B90008AE0A82EB12C98E1492E2EE0522E662400
:103BA0006394712C62E370E080E090E00E940B046B
:103BB00089E395E00E94A304B0921101A092100144
:103BC0008CE090E00E9451098091820361E090E0D6
:103BD0000E949A1168EC70E080E090E00E940B0473
:103BE0000E940F0F80937F038E3119F0883261F0AD
:103BF00071C3809182038F5F8B3018F480938203AE
:103C000069C31092820366C3E09182038E2F90E015
:103C10008B30910508F05EC3FC01EC5CFF4F0C9407
:103C2000172B1092090356C300911A0110911B0122
:103C300089E395E00E94A3048091820360E090E014
:103C40000E949A1161E080E00E946011B80189E34E
:103C500095E00E94CB1261E089E395E00E945E024C
:103C600061E772E089E395E00E94D2130E940F0F92
:103C700080937F038E3179F08832B9F410931B0161
:103C800000931A016AE171E08EE090E00E94DE0884
:103C90000E947C090AC0083211053CF00F5F1F4FDB
:103CA0000B35110514F008E210E080910903811131
:103CB000BFCF10C3009108011091090189E395E07D
:103CC0000E94A3048091820360E090E00E949A1118
:103CD00061E080E00E946011B80189E395E00E94F4
:103CE000CB1264E772E089E395E00E94D2130E9450
:103CF0000F0F80937F038E3179F08832C9F41093CF
:103D000009010093080168E071E080E190E00E9401
:103D1000DE080E947C090CC0083E43E0140744F012
:103D20000C591F4F013F5AE0150714F008EE13E03D
:103D3000809109038111C2CFCDC200910C01109175
:103D40000D0189E395E00E94A3048091820360E065
:103D500090E00E949A1161E080E00E9460110A30B8
:103D6000110530F468EB71E089E395E00E94D2130D
:103D7000B80189E395E00E94CB1267E772E089E31E
:103D800095E00E94D2130E940F0F80937F038E3123
:103D900019F0883259F028C017FD26C00B5F1F4F5D
:103DA0000D3311050CF100E010E01EC010930D0161
:103DB00000930C010115110529F410920B011092CA
:103DC0000A0104C070920B0160920A016AE071E07E
:103DD00084E190E00E94DE086CE071E082E190E016
:103DE0000E94DE080E947C09809109038111A9CFFD
:103DF00071C200911C0110911D0189E395E00E94A0
:103E0000A3048091820360E090E00E949A1161E037
:103E100081E00E946011B80189E395E00E94CB1215
:103E20000E940F0F80937F038E3179F08832B9F4AE
:103E300010931D0100931C016CE171E08CE090E097
:103E40000E94DE080E947C090AC00A3011053CF07D
:103E50000F5F1F4F0531110514F00AE010E080914B
:103E600009038111CACF36C20091F7021091F802FE
:103E700089E395E00E94A3048091820360E090E0D2
:103E80000E949A1161E081E00E94601110161106F3
:103E90001CF46DE772E00CC00115110519F468EB14
:103EA00071E006C00B3F8FEF180731F46FE672E048
:103EB00089E395E00E94D213C801B5010E94032B4B
:103EC0001C0189E395E00E94CB126BE772E089E365
:103ED00095E00E94D213B10137FE03C07195619540
:103EE000710989E395E00E94CB126FE772E089E3E4
:103EF00095E00E94D2130E940F0F80937F038E31B2
:103F000079F08832C1F41093F8020093F70267EF5A
:103F100072E08CE190E00E94DE080E947C090BC0F8
:103F20000E3CAFEF1A073CF00B5F1F4F0333110538
:103F300014F00EEC1FEF80910903811199CFCAC1D3
:103F40000091F9021091FA0289E395E00E94A3041E
:103F50008091820360E090E00E949A1161E081E02C
:103F60000E946011101611061CF46DE772E00CC07F
:103F70000115110519F468EB71E006C00B3FBFEFA6
:103F80001B0731F46FE672E089E395E00E94D213DB
:103F9000C801B5010E94032B1C0189E395E00E9432
:103FA000CB126BE772E089E395E00E94D213B10176
:103FB00037FE03C071956195710989E395E00E9410
:103FC000CB126FE772E089E395E00E94D2130E9462
:103FD0000F0F80937F038E3179F08832C1F41093F4
:103FE000FA020093F90269EF72E08EE190E00E941C
:103FF000DE080E947C090BC00E3CEFEF1E073CF070
:104000000B5F1F4F0333110514F00EEC1FEF80916F
:104010000903811199CF5EC100910E0110910F012A
:1040200089E395E00E94A3048091820360E090E020
:104030000E949A1161E080E00E9460110130110538
:1040400019F463E872E002C060E972E089E395E088
:104050000E94D2130E940F0F80937F038E3179F05C
:104060008832B1F410930F0100930E016EE071E0FD
:1040700080E290E00E94DE080E947C0909C017FDE2
:1040800007C0012B19F401E010E002C000E010E0CD
:10409000809109038111C4CF1DC160E171E082E20A
:1040A00090E00E94AA08009110011091110189E38B
:1040B00095E00E94A3048091820360E090E00E945A
:1040C0009A1161E081E00E946011B80189E395E0F6
:1040D0000E94CB120E940F0F80937F038E3199F0C4
:1040E0008832F1F4109311010093100110938103B1
:1040F0000093800360E171E082E290E00E94DE08BC
:104100000E947C090DC017FD07C00F5F1F4F0B30C9
:10411000110514F000E010E010931101009310015C
:10412000809109038111C3CFD5C08233F1F410927D
:1041300000031092FF021092FE021092FD021092F4
:10414000FC021092FB026FEF72E086E190E00E94A9
:10415000DE086DEF72E088E190E00E94DE086BEF10
:1041600072E08AE190E00E94DE08809109038823D2
:1041700009F4B0C089E395E00E94A3048091820312
:1041800060E090E00E949A1161E080E00E9460117E
:104190006091FF027091000389E395E00E94CB12C9
:1041A00068E472E089E395E00E94D2138091FD02F9
:1041B0009091FE0264E670E00E94032B89E395E093
:1041C0000E94CB126BE772E089E395E00E94D21364
:1041D0008091FD029091FE0264E670E00E94032B44
:1041E000B5010E94032B89E395E00E94CB126FE496
:1041F00072E089E395E00E94D2136091FB02709116
:10420000FC0289E395E00E94CB1262E572E089E34B
:1042100095E00E94D2130E940F0F80937F03883293
:1042200009F083CF10920903A0CF01E010E089E3E9
:1042300095E00E94A3048091820360E090E00E94D8
:104240009A1161E080E00E9460110130110519F4BB
:104250006DE972E002C068EA72E089E395E00E94CD
:10426000D2130E940F0F80937F038E3119F0883292
:1042700049F02CC081E00130110509F480E0082FDD
:1042800010E024C01092090301151105E9F4109201
:104290007B0310927C0310927D0310927E036BE7E8
:1042A00073E08CEF93E00E94BF080FB6F894A895D6
:1042B000409260000FBE5092600060ED77E080E0B9
:1042C00090E00E940B0402C001E010E0809109031D
:1042D0008111ADCF89E395E00E94A3048091090389
:1042E000811160CC809180039091810390931101A2
:1042F0008093100184E00E945F03892B09F05FC066
:1043000000918303109184030E311105E1F4809133
:104310001801909119010196909319018093180149
:1043200081E0809313030E9445046093050370931A
:10433000060380930703909308036FE070E080E02A
:1043400090E00E940B048091180190911901883F20
:10435000910534F187EF90E0909319018093180153
:104360000832110561F580911801909119010197AA
:10437000909319018093180181E0809313030E94A8
:10438000450460930503709306038093070390939D
:1043900008036FE070E080E090E00E940B0403C02F
:1043A0000832110501F380911801909119010897C5
:1043B00034F488E090E090931901809318010E94F2
:1043C000F2010C9467180E94370A80910A019091BB
:1043D0000B01892B09F402C10E94450460930F036D
:1043E00070931003809311039093120300911703AD
:1043F000109118032091190330911A032B013C01ED
:10440000401A510A620A730AA0910C01B0910D0181
:1044100020E63AEE0E941D2B4616570668067906DE
:1044200008F4DCC08091180190911901C397863877
:10443000910508F0D3C0809113038111CFC0109271
:10444000EF021092F0021092F1021092F20289E350
:1044500095E00E94A30460E080E00E94601164E1A6
:1044600072E089E395E00E94D213212C312C00E008
:1044700010E08AE0A82EB12C60910801709109012A
:10448000072E000C880B990B0E9485279B01AC011D
:104490006091EF027091F0028091F1029091F2022E
:1044A0000E947E2787FF72C0B0921901A092180166
:1044B000C5010E94B20E61E080E00E94601160912F
:1044C000180170911901072E000C880B990B0E949E
:1044D000852720E030E040E250E40E94B7290E94A6
:1044E000292A6A30710534F468EB71E089E395E0BC
:1044F0000E94D2136091180170911901072E000CCF
:10450000880B990B0E94852720E030E040E250E4C0
:104510000E94B7290E94292A89E395E00E94CB12C4
:1045200065E272E089E395E00E94D2136AE070E0F0
:1045300080E090E00E940B040E94500B4090EF023C
:104540005090F0026090F1027090F202B801012EDA
:10455000000C880B990B0E9485279B01AC01C301BD
:10456000B2010E945F2A18164CF4C301B2010E94E6
:10457000292A8B01209018013090190125E0A20E04
:10458000B11C3AEFA316B10409F076CFB801110FB0
:10459000880B990B0E9485276093EF027093F002BD
:1045A0008093F1029093F202309219012092180147
:1045B00064EF71E080E090E00E940B0480910F03B3
:1045C00090911003A0911103B091120380931703EF
:1045D00090931803A0931903B0931A0380911403C6
:1045E000882311F40C947F1889E395E00E94A304BA
:1045F00060E080E00E94601168E272E089E395E08B
:104600000E94D21361E080E00E94601168E372E0D2
:1046100089E395E00E94D213809195038530B8F527
:1046200088E090E0909319018093180181E090E078
:10463000909317018093160188E090E00E94B20EDB
:1046400000E110E068EE73E080E090E00E940B046F
:10465000A89501501109B1F761E08CE00E94880330
:1046600061E08CE00E94B8036AE070E080E090E0D6
:104670000E940B0460E08CE00E94B80310921403C7
:10468000809195038F5F809395030C947F1810920F
:1046900019011092180180E090E00E94B20E0FB64E
:1046A000F894A895809160008861809360001092D2
:1046B00060000FBEFFCF20E030E046EC52E4C501C1
:1046C000B4010E945F2A181614F00C94211968EBAB
:1046D00071E089E395E00E94D2130C94211920E047
:1046E00030E040E151E4C501B4010E945F2A181690
:1046F00014F00C94351967EB71E089E395E00E94A2
:10470000D2130C94351980E00E94601180910A0345
:1047100090910B03A0910C03B0910D038038964942
:10472000A849B10530F468EB71E089E395E00E9497
:10473000D21380910A0390910B03A0910C03B091C6
:104740000D0380349244AF40B10530F468EB71E062
:1047500089E395E00E94D21380910A0390910B03A4
:10476000A0910C03B0910D03803A9648A140B10589
:1047700030F468EB71E089E395E00E94D2138091F8
:104780000A0390910B03A0910C03B0910D038031AB
:104790009742A105B10530F468EB71E089E395E03B
:1047A0000E94D21360910A0370910B0380910C0355
:1047B00090910D03B8EE8B2EB3E09B2EA12CB12C63
:1047C000A50194010E941929BA01A9012AE089E3EF
:1047D00095E00E9482126BE772E089E395E00E9407
:1047E000D21360910A0370910B0380910C03909196
:1047F0000D03A50194010E941929643671058105F4
:10480000910530F464E672E089E395E00E94D213EA
:1048100060910A0370910B0380910C0390910D033A
:1048200028EE33E040E050E00E9419292AE030E011
:1048300040E050E00E941929BA01A9012AE089E369
:1048400095E00E94821266E672E089E395E00E949C
:10485000D21361E08BE00E9460118091150390916A
:1048600016030A978A35910530F468EB71E089E305
:1048700095E00E94D21380911503909116030A9738
:1048800030F467EB71E089E395E00E94D213609108
:10489000150370911603CB0101978837910558F0E5
:1048A00061E08BE00E9460116DE672E089E395E0C3
:1048B0000E94D21304C089E395E00E94CB1261E00C
:1048C00089E395E00E945E0261E772E089E395E08A
:1048D0000E94D21381E08093680485E280938A0469
:1048E0001092690410928B04609110010C94B1191C
:1048F0008091F3029091F402883E934034F468EB87
:1049000071E089E395E00E94D2138091F3029091C7
:10491000F40264E670E00E94032B89E395E00E94B4
:10492000CB126BE772E089E395E00E94D21380918D
:10493000F3029091F40264E670E00E94032B6AE0B7
:1049400070E00E94032B89E395E00E94CB126FE494
:1049500072E00C940519822F90E0FC013197E03150
:10496000F10508F03FC0E15CFF4F0C94172B8091DC
:104970005D0590E0982F882730915E05832B54E0E9
:10498000969587955A95E1F740915F0550E0542F31
:10499000442730916005432B74E0569547957A95EE
:1049A000E1F71CC080915D0590E0982F8827309139
:1049B0005E05832B0C94281C80915F0590E0982F56
:1049C000882730916005AC01432B90915D05892FBC
:1049D00090E0982F882730915E05832B840F951FD8
:1049E0000C94281C0E9445046093AB057093AC05A1
:1049F0008093AD059093AE0510925A05E0915C0549
:104A00008E2F90E0FC013197E031F10510F00C940D
:104A1000771CE15BFF4F0C94172BDC0163E0B6952C
:104A2000A7956A95E1F7AE7FB170AF5DBC4F0D9071
:104A3000BC91A02D682F6F7002C0B695A7956A959E
:104A4000E2F76E2F70E0A0FF14C0DB01AE5ABA4F40
:104A500019966C911997260137010F2E04C0440C4A
:104A6000551C661C771C0A94D2F7462A19964C925C
:104A700015C0DB01AE5ABA4F260137010F2E04C014
:104A8000440C551C661C771C0A94D2F74094199666
:104A90007C911997642D672319966C93FF5FF8300A
:104AA00010F0EF5FF0E001960C94681C20915D051A
:104AB00030E0322F222780915E05282B422F8091F3
:104AC0005F0590E0982F882730916005832B382F61
:104AD000330F30935D0553E09927820F911D62E0FB
:104AE000650F242F30E028173907ACF4220F331F4D
:104AF000F901EF5DFC4F20813181E52FF0E0EE5AA6
:104B0000FA4F31875F5FE52FF0E0EE5AFA4F2187C9
:104B10004F5F562FE4CF50939B050C94751C8091EA
:104B20005D0590E0982F882720915E05822BFC017F
:104B3000A4E0F695E795AA95E1F78F7090915F054F
:104B4000FF27EE0FFF1FEF5DFC4F9F3F81F4A70192
:104B5000960104C0220F331F441F551F8A95D2F7B8
:104B6000DA01C90120813181822B932B11C04601CA
:104B7000570104C0880C991CAA1CBB1C8A95D2F74B
:104B8000D501C401809590952081318182239323A2
:104B90009183808386E00C94731CE0915E05F0E0C5
:104BA000EE0FFF1FEF5DFC4F80915F0590E0982FA7
:104BB000882720916005822BEBCF80915D0590E0E6
:104BC000982F882720915E05822B20915F0530E089
:104BD000322F222740916005242B280F391FA0E097
:104BE000B7E082179307B1F2682F6F70EB2FF0E0F8
:104BF000EE5AFA4F418550E00A2E02C0559547956E
:104C00000A94E2F7FC0114E0F695E7951A95E1F7AE
:104C1000FF27EE0FFF1FEF5DFC4F40FF10C0260186
:104C2000370104C0440C551C661C771C6A95D2F7EA
:104C300040815181442A552A5182408213C0460145
:104C4000570104C0880C991CAA1CBB1C6A95D2F79A
:104C5000B501A40140955095608171814623572389
:104C600051834083AF5FA83010F0BF5FA0E0019692
:104C7000B8CF20915E057091600510925F0586E0C7
:104C800080939B0530E0220F331F40E050E060E04E
:104C9000671711F40C94751CFA01EE5AFA4F8089CB
:104CA00090E0982F8827E1898E2BFA01E20FF31FFD
:104CB000EF5DFC4F918380836F5F4E5F5F4FE8CF66
:104CC00088E691E09093B5058093B40584EB95E078
:104CD0000C949408109293041092920488EE93E03E
:104CE000A0E0B0E08093940490939504A093960480
:104CF000B093970420E331E0309391042093900423
:104D000025EC30E030939D0420939C0424EC30E0AB
:104D100030939F0420939E0420EC30E03093A10454
:104D20002093A00421EC30E03093A3042093A2044C
:104D300022EC30E03093A5042093A40426EC30E06C
:104D40003093A7042093A6041092A9041092AA04F9
:104D50001092AB041092AC041092300510922F0503
:104D60008093310590933205A0933305B0933405B9
:104D700022E431E030932E0520932D051092B705E3
:104D80001092B6058093B8059093B905A093BA0523
:104D9000B093BB0588E691E09093B5058093B40588
:104DA0001092CB051092CA051092CD051092CC0539
:104DB0001092CF051092CE051092D1051092D00519
:104DC0006091D2056E7F6D7F6093D20566956170AC
:104DD00081E0682786E00E94880361E086E00E9407
:104DE000B803ECEDF1E0E491E093C405E8ECF1E008
:104DF000E491F0E0EE0FFF1FE255FE4F8591949194
:104E00009093C6058093C50560E088E00E94B803D2
:104E10008091D20581FD04C061E088E00E94880392
:104E200088E08093C005EEEDF1E0E491E093C105E8
:104E3000EAECF1E0E491F0E0EE0FFF1FE854FE4FE2
:104E4000859194919093C3058093C20580911C0134
:104E50008093560584E08093570597E0909358051A
:104E600028EE33E03093A6052093A5051092AF05F8
:104E70001092B0051092B1051092B20510923C0547
:104E800010923B0524E531E030933A052093390533
:104E9000109249059FEF9093480510924705109294
:104EA0004A0597E2909344051092450510924605F5
:104EB000109243051092420580934B0582E0809347
:104EC0004C0581E080934D0580E180934E0580E2A2
:104ED00080934F0580E48093500580E880935105CE
:104EE00040E050E063E089E395E00C944A02FB0166
:104EF000DC0105900D920020E1F708950E94C02783
:104F000008F481E00895E89409C097FB3EF4909579
:104F10008095709561957F4F8F4F9F4F9923A9F092
:104F2000F92F96E9BB279395F69587957795679521
:104F3000B795F111F8CFFAF4BB0F11F460FF1BC065
:104F40006F5F7F4F8F4F9F4F16C0882311F096E9F8
:104F500011C0772321F09EE8872F762F05C06623A6
:104F600071F096E8862F70E060E02AF09A95660F5F
:104F7000771F881FDAF7880F9695879597F9089518
:104F8000990F0008550FAA0BE0E8FEEF161617065A
:104F9000E807F907C0F012161306E407F50798F0C2
:104FA000621B730B840B950B39F40A2661F0232BDB
:104FB000242B252B21F408950A2609F4A140A69557
:104FC0008FEF811D811D08950E94F7270C9468289A
:104FD0000E945A2838F00E94612820F0952311F091
:104FE0000C9451280C94572811240C949C280E944E
:104FF000792870F3959FC1F3950F50E0551F629F7C
:10500000F001729FBB27F00DB11D639FAA27F00D21
:10501000B11DAA1F649F6627B00DA11D661F829F48
:105020002227B00DA11D621F739FB00DA11D621F2D
:10503000839FA00D611D221F749F3327A00D611D4A
:10504000231F849F600D211D822F762F6A2F11242C
:105050009F5750409AF0F1F088234AF0EE0FFF1F5F
:10506000BB1F661F771F881F91505040A9F79E3FB6
:10507000510580F00C9451280C949C285F3FE4F378
:10508000983ED4F3869577956795B795F795E7950C
:105090009F5FC1F7FE2B880F911D9695879597F915
:1050A000089597F99F6780E870E060E008959FEFAA
:1050B00080EC089500240A941616170618060906AF
:1050C000089500240A94121613061406050608957E
:1050D000092E0394000C11F4882352F0BB0F40F406
:1050E000BF2B11F460FF04C06F5F7F4F8F4F9F4F46
:1050F000089557FD9058440F551F59F05F3F71F0C8
:105100004795880F97FB991F61F09F3F79F087952E
:105110000895121613061406551FF2CF4695F1DFB7
:1051200008C0161617061806991FF1CF8695710547
:10513000610508940895E894BB2766277727CB017B
:1051400097F90895F999FECF92BD81BDF89A9927F4
:1051500080B50895262FF999FECF1FBA92BD81BD63
:1051600020BD0FB6F894FA9AF99A0FBE01960895E9
:10517000052E97FB1EF400940E94CF2857FD07D000
:105180000E94192907FC03D04EF40C94CF285095A7
:105190004095309521953F4F4F4F5F4F0895909523
:1051A0008095709561957F4F8F4F9F4F08950E9416
:1051B0003B29A59F900DB49F900DA49F800D911D3C
:1051C000112408952F923F924F925F926F927F9297
:1051D0008F929F92AF92BF92CF92DF92EF92FF9207
:1051E0000F931F93CF93DF93CDB7DEB7CA1BDB0BB3
:1051F0000FB6F894DEBF0FBECDBF09942A88398858
:1052000048885F846E847D848C849B84AA84B9845E
:10521000C884DF80EE80FD800C811B81AA81B9816A
:10522000CE0FD11D0FB6F894DEBF0FBECDBFED017E
:105230000895A1E21A2EAA1BBB1BFD010DC0AA1FD7
:10524000BB1FEE1FFF1FA217B307E407F50720F0EF
:10525000A21BB30BE40BF50B661F771F881F991F6A
:105260001A9469F760957095809590959B01AC01B3
:10527000BD01CF010895A29FB001B39FC001A39FBC
:10528000700D811D1124911DB29F700D811D11247F
:10529000911D08955058BB27AA270E9462290C949B
:1052A00068280E945A2838F00E94612820F039F4BA
:1052B0009F3F19F426F40C9457280EF4E095E7FB71
:1052C0000C945128E92F0E94792858F3BA176207E5
:1052D00073078407950720F079F4A6F50C949B28B2
:1052E0000EF4E0950B2EBA2FA02D0B01B901900101
:1052F0000C01CA01A0011124FF27591B99F0593F45
:1053000050F4503E68F11A16F040A22F232F342F8C
:105310004427585FF3CF469537952795A795F040DA
:105320005395C9F77EF41F16BA0B620B730B840BEF
:10533000BAF09150A1F0FF0FBB1F661F771F881FA7
:10534000C2F70EC0BA0F621F731F841F48F48795FF
:1053500077956795B795F7959E3F08F0B0CF9395F1
:10536000880F08F09927EE0F9795879508950E946A
:10537000CB290C9468280E94612858F00E945A2872
:1053800040F029F45F3F29F00C94512851110C94FE
:105390009C280C9457280E94792868F39923B1F32C
:1053A000552391F3951B550BBB27AA27621773074B
:1053B000840738F09F5F5F4F220F331F441FAA1FDF
:1053C000A9F335D00E2E3AF0E0E832D0915050409B
:1053D000E695001CCAF72BD0FE2F29D0660F771F49
:1053E000881FBB1F261737074807AB07B0E809F02F
:1053F000BB0B802DBF01FF2793585F4F3AF09E3FB4
:10540000510578F00C9451280C949C285F3FE4F3EC
:10541000983ED4F3869577956795B795F7959F5FF6
:10542000C9F7880F911D9695879597F90895E1E042
:10543000660F771F881FBB1F621773078407BA07A1
:1054400020F0621B730B840BBA0BEE1F88F7E095FC
:1054500008950E94302A6894B1110C949C280895F4
:105460000E94812888F09F5798F0B92F9927B7514B
:10547000B0F0E1F0660F771F881F991F1AF0BA95F8
:10548000C9F714C0B13091F00E949B28B1E0089593
:105490000C949B28672F782F8827B85F39F0B93F85
:1054A000CCF3869577956795B395D9F73EF49095AB
:1054B0008095709561957F4F8F4F9F4F08950E9403
:1054C000C02708F48FEF08950E948128E8F09E37E6
:1054D000E8F09639B8F49E3848F4672F782F88277B
:1054E000985FF9CF86957795679593959539D0F321
:1054F000B62FB1706B0F711D811D20F487957795C4
:10550000679593950C94D32A0C94EE2A0C949C28BE
:1055100019F416F40C9457280C94EE2A0E94812852
:10552000B8F39923C9F3B6F39F57550B87FF0E9431
:10553000FC2A0024A0E640EA9001805856959795F1
:1055400028F4805C660F771F881F20F02617370726
:10555000480730F4621B730B840B202931294A2B36
:10556000A69517940794202531254A2758F7660FEA
:10557000771F881F20F026173707480730F4620B83
:10558000730B840B200D311D411DA09581F7B901CE
:10559000842F9158880F9695879508950E94C0276B
:1055A000880B990B0895882371F4772321F0985084
:1055B000872B762F07C0662311F499270DC09051D1
:1055C000862B70E060E02AF09A95660F771F881F9F
:1055D000DAF7880F9695879597F908959F3F31F0F0
:1055E000915020F4879577956795B795880F911D11
:1055F0009695879597F9089591505040660F771FBB
:10560000881FD2F7089597FB072E16F4009407D051
:1056100077FD09D00E94242B07FC05D03EF490951D
:1056200081959F4F0895709561957F4F0895EE0F76
:10563000FF1F0590F491E02D09940E943B29B7FFCC
:105640000895821B930B0895AA1BBB1B51E107C051
:10565000AA1FBB1FA617B70710F0A61BB70B881F02
:10566000991F5A95A9F780959095BC01CD01089591
:10567000CF93DF938230910510F482E090E0E091C7
:10568000D505F091D60520E030E0C0E0D0E03097BD
:1056900011F14081518148175907C0F04817590747
:1056A00061F482819381209719F09B838A832BC0B8
:1056B0009093D6058093D50526C02115310519F0A4
:1056C0004217530718F49A01BE01DF01EF0102806F
:1056D000F381E02DDCCF2115310509F1281B390BB1
:1056E0002430310590F412968D919C911397611599
:1056F000710521F0FB019383828304C09093D6054A
:105700008093D505FD01329644C0FD01E20FF31FE1
:1057100081939193225031092D933C933AC020916B
:10572000D3053091D405232B41F4209120013091F1
:1057300021013093D4052093D30520911E0130918F
:105740001F012115310541F42DB73EB740912201CB
:1057500050912301241B350BE091D305F091D40522
:10576000E217F307A0F42E1B3F0B2817390778F038
:10577000AC014E5F5F4F2417350748F04E0F5F1F97
:105780005093D4054093D3058193919302C0E0E0F8
:10579000F0E0CF01DF91CF9108950F931F93CF9346
:1057A000DF93009709F48CC0FC01329713821282B8
:1057B0000091D5051091D6050115110581F42081C0
:1057C0003181820F931F2091D3053091D405281782
:1057D000390779F5F093D405E093D30571C0D8016A
:1057E00040E050E0AE17BF0750F412962D913C9167
:1057F0001397AD012115310509F1D901F3CF9D01B1
:10580000DA013383228360817181860F971F8217AB
:10581000930769F4EC0128813981260F371F2E5F29
:105820003F4F318320838A819B8193838283452BE1
:1058300029F4F093D605E093D50542C01396FC9366
:10584000EE931297ED01499159919E01240F351F56
:10585000E217F30771F480819181840F951F0296FE
:1058600011969C938E938281938113969C938E9331
:105870001297E0E0F0E0D80112968D919C91139779
:10588000009719F0F8018C01F6CF8D919C91980149
:105890002E5F3F4F820F931F2091D3053091D40587
:1058A0002817390769F4309729F41092D605109219
:1058B000D50502C0138212821093D4050093D3053C
:1058C000DF91CF911F910F910895A0E0B0E0EBE63A
:1058D000FCE20C94E628EC01009721F4CB010E9435
:1058E000382BB8C0FC01E60FF71F9C01225031098C
:1058F000E217F30708F4ACC0D9010D911C91119780
:1059000006171707B0F00530110508F49FC0C8014D
:1059100004978617970708F499C002501109061BCF
:10592000170B019311936D937C93CF010E94CD2BA4
:105930008DC05B01A01AB10A4C01800E911EA0918E
:10594000D505B091D60540E050E0E12CF12C109740
:1059500009F44AC0A815B905D1F56D907C9011974E
:10596000630182E0C80ED11CCA14DB0480F1A301DC
:105970004A195B096A0182E0C80ED11C1296BC90DC
:1059800012971396AC91B5E0CB16D10440F0B282D9
:10599000A38351834083D9016D937C930AC00E5F2A
:1059A0001F4FC301800F911FF90191838083EB2D5D
:1059B000FA2FE114F10431F0D7011396FC93EE9322
:1059C000129744C0F093D605E093D5053FC08D9162
:1059D0009C9111974817590708F4AC017D01129664
:1059E0000D90BC91A02DB3CF8091D3059091D4059B
:1059F00088159905E1F446175707C8F480911E01F0
:105A000090911F01009741F48DB79EB740912201FC
:105A100050912301841B950BE817F907C8F4F09304
:105A2000D405E093D305F901718360830FC0CB01E6
:105A30000E94382B7C01009759F0A801BE010E94FA
:105A4000342DCE010E94CD2BC70104C0CE0102C06F
:105A500080E090E0CDB7DEB7EEE00C94022981E063
:105A600090E0F8940C94442DFB01DC0102C00190FD
:105A70000D9241505040D8F70895FB01DC01019090
:105A80000D920020E1F7089510E0C6EFD0E004C0C9
:105A9000FE010E94172B2196C73FD107C9F7F89442
:025AA000FFCF36
:105AA2000C12120C00000000F00A010005000100B7
:105AB200050037002D00010008005A000C0000000C
:105AC200D70580000102030405060F100000000044
:105AD2008901930F2101D0015201300144010000DC
