:100000000C94D7000C94FF000C94FF000C94FA079A
:100010000C94FA070C94FA070C94FF000C94FF0060
:100020000C94FF000C94FF000C94FF000C94FF0054
:100030000C94FF000C94FF000C94FF000C94FF0044
:100040000C9431040C94FF000C940D030C94E70203
:100050000C94FF000C94FF000C94FF000C94FF0024
:100060000C9475050C94FF001A171D175F179E1747
:10007000F4172D189018F31832199D19E81900007B
:100080000000240027002A000000000800020100F0
:1000900000030407000000000000000053756D61BC
:1000A000207679726F627900756B6C6164616D2E78
:1000B0002E2E0020202A4E4153544156454E492AA7
:1000C000202020002000546F7661726E6920524516
:1000D000534554004D61782E20686F646E6F7479BB
:1000E00000506F6473766963656E69204C43440009
:1000F0004B6F6D756E696B616365004B616C696216
:10010000726163652041004B616C69627261636575
:100110002056004944206D656E6963652F616472E5
:1001200065736100506572696F64612074657374F2
:1001300075205641004D61782E76796B6F6E004DBB
:1001400061782E7465706C6F746100457869740015
:100150004B013F013501240113010701FB00F000B1
:10016000E100D400C600C400B300A8009C00000059
:100170000000250028002B000000000023002600BE
:10018000290004040404040404040202020202021A
:10019000030303030303010204081020408001024B
:1001A00004081020010204081020F51CEB1C112487
:1001B0001FBECFEFD8E0DEBFCDBF12E0A0E0B1E0C0
:1001C000EAEAF2E402C005900D92AC32B107D9F729
:1001D00024E0ACE2B2E001C01D92A33CB207E1F71B
:1001E00010E0C6EDD0E004C02197FE010E9422215C
:1001F000C53DD107C9F70E9455100C9448210C94B5
:100200000000FC01538D448D252F30E0842F90E0B9
:10021000821B930B541710F0CF9608950197089501
:10022000FC01918D828D981761F0828DDF01A80FFE
:10023000B11D5D968C91928D9F5F9F73928F90E020
:1002400008958FEF9FEF0895FC01918D828D98178F
:1002500031F0828DE80FF11D858D90E008958FEFCC
:100260009FEF0895FC01918D228D892F90E0805C95
:100270009F4F821B91098F739927089580E893E01F
:100280000E94320121E0892B09F420E0822F089599
:10029000FC01848DDF01A80FB11DA35ABF4F2C9123
:1002A000848D90E001968F739927848FA689B789F2
:1002B0002C93A089B1898C9180648C93938D848DCB
:1002C000981306C00288F389E02D80818F7D80839A
:1002D0000895EF92FF920F931F93CF93DF93EC015A
:1002E00081E0888F9B8D8C8D981305C0E889F989F2
:1002F000808185FD24C0F62E0B8D10E00F5F1F4F0F
:100300000F731127E02E8C8DE8120CC00FB607FC7E
:10031000FACFE889F989808185FFF5CFCE010E9467
:100320004801F1CF8B8DFE01E80FF11DE35AFF4F1D
:10033000F0820B8FEA89FB898081806207C0EE8999
:10034000FF896083E889F98980818064808381E006
:1003500090E0DF91CF911F910F91FF90EF90089562
:10036000CF93DF93EC01888D8823C9F0EA89FB895C
:10037000808185FD05C0A889B9898C9186FD0FC053
:100380000FB607FCF5CF808185FFF2CFA889B98928
:100390008C9185FFEDCFCE010E944801E7CFDF9120
:1003A000CF91089580E090E0892B29F00E943E01D2
:1003B00081110C9400000895833081F028F481307D
:1003C00099F08230A1F008958730A9F08830B9F013
:1003D0008430D1F4809180008F7D03C080918000B3
:1003E0008F7780938000089584B58F7702C084B59D
:1003F0008F7D84BD08958091B0008F7703C0809178
:10040000B0008F7D8093B00008953FB7F89480913D
:10041000D0029091D102A091D202B091D30226B520
:10042000A89B05C02F3F19F00196A11DB11D3FBF2C
:10043000BA2FA92F982F8827820F911DA11DB11DBA
:10044000BC01CD0142E0660F771F881F991F4A95B6
:10045000D1F7089521E001C0220F6A95EAF7DC0187
:100460001C962C931C971A965C934E931997ED91BA
:10047000FC910484F585E02D60E00994DC01ED91A8
:10048000FC910684F785E02D41E0099581E090E03C
:1004900008950895089585ED8093BC008091BC0077
:1004A00084FDFCCF10925B0308950E944321FC0160
:1004B00023812223B9F09181909569236083828101
:1004C00091E090935C0380937E0310925D03109201
:1004D0007F038DE194E00E9421070E94650F282F81
:1004E00030E002C020E030E081E090E0232B11F00A
:1004F00080E090E00895EF92FF920F931F93CF93C7
:100500008C01FC01759684E0C0E060FF02C0908120
:10051000C92B6695815031968111F7CF413011F486
:10052000F8014489F8018585C82BC42B7801FEE0C9
:10053000EF0EF11CF80162896C2BC7010E94570273
:10054000F801628960956C23C701CF911F910F91CB
:10055000FF90EF900C9457020F931F93CF93DF936C
:10056000062F0F70423019F440E0602F10C0142F96
:10057000262FEC0130E0B90184E0759567958A95E6
:10058000E1F7CE010E947B02412F602FCE01DF9167
:10059000CF911F910F910C947B02FC0184858823DD
:1005A000A9F0218532852115310519F4611106C0A4
:1005B00007C02130310521F4611102C0858701C0D7
:1005C00015866585CF010E960C94570208951F92EB
:1005D0000F920FB60F9211242F933F934F935F9377
:1005E0006F937F938F939F93AF93BF93EF93FF93FB
:1005F00080E893E00E944801FF91EF91BF91AF9195
:100600009F918F917F916F915F914F913F912F912A
:100610000F900FBE0F901F9018951F920F920FB65C
:100620000F9211242F938F939F93EF93FF93E09159
:100630009003F09191038081E0919603F0919703EC
:1006400082FD12C09081809199038F5F8F732091FA
:100650009A03821751F0E0919903F0E0E058FC4FC3
:10066000958F8093990301C08081FF91EF919F91B5
:100670008F912F910F900FBE0F901F901895CF93D1
:10068000DF93282F30E0F901E857FF4F8491F901FB
:10069000EA56FE4FD491F901EE57FE4FC491CC2398
:1006A00091F081110E94DC01EC2FF0E0EE0FFF1FB2
:1006B000E858FE4FA591B491EC91ED2381E090E0D4
:1006C00021F480E002C080E090E0DF91CF910895B6
:1006D0001F93CF93DF93282F30E0F901E857FF4FA6
:1006E0008491F901EA56FE4FD491F901EE57FE4F7D
:1006F000C491CC23C9F0162F81110E94DC01EC2F8C
:10070000F0E0EE0FFF1FE259FE4FA591B4918FB7B5
:10071000F894111105C09C91ED2FE095E92302C0DA
:10072000EC91ED2BEC938FBFDF91CF911F9108954A
:10073000CF93DF9390E0FC01EA56FE4F2491FC0139
:10074000EE57FE4F8491882361F190E0880F991F46
:10075000FC01E258FF4FC591D491FC01E259FE4FD4
:10076000A591B491611109C09FB7F8948881209533
:1007700082238883EC912E230BC0623061F49FB7F3
:10078000F8943881822F809583238883EC912E2BD7
:100790002C939FBF06C08FB7F894E8812E2B288337
:1007A0008FBFDF91CF9108958E3008F08E50877003
:1007B000806480937C0080917A00806480937A00CA
:1007C00080917A0086FDFCCF80917800209179009D
:1007D00090E0922B08958F929F92AF92BF92CF920A
:1007E000DF92EF92FF926B017C010E9405024B01A8
:1007F0005C01C114D104E104F104F1F00E9405028E
:10080000DC01CB0188199909AA09BB09883E9340EC
:10081000A105B10570F321E0C21AD108E108F10881
:1008200088EE880E83E0981EA11CB11CC114D1046F
:10083000E104F10419F7DDCFFF90EF90DF90CF9046
:10084000BF90AF909F908F9008952FB7F8946091CC
:10085000CC027091CD028091CE029091CF022FBF39
:1008600008951F920F920FB60F9211242F933F936A
:100870008F939F93AF93BF938091CC029091CD02C1
:10088000A091CE02B091CF023091CB0223E0230F92
:100890002D3720F40196A11DB11D05C026E8230FB8
:1008A0000296A11DB11D2093CB028093CC029093A0
:1008B000CD02A093CE02B093CF028091D00290914E
:1008C000D102A091D202B091D3020196A11DB11D17
:1008D0008093D0029093D102A093D202B093D3021E
:1008E000BF91AF919F918F913F912F910F900FBE2C
:1008F0000F901F901895DC01ED91FC910684F7850F
:10090000E02D40E0099461E00E947B048BE39FE1CD
:100910000197F1F708950F931F93CF93DF93EC01A5
:10092000423018F08C8188608C834F836887222343
:1009300029F0413019F48C8184608C8364E670E086
:1009400080E090E00E94EB036C8164FD31C0E8819F
:10095000F9810684F785E02D42E063E0CE01099538
:100960008BE496E40197F1F7E881F9810684F78535
:10097000E02D42E063E0CE01099503E512E0C801F5
:100980000197F1F7E881F9810684F785E02D42E0CF
:1009900063E0CE010995C8010197F1F7E881F9817B
:1009A0000684F785E02D42E062E0CE01099517C08C
:1009B0006062CE010E947B048BE496E40197F1F71C
:1009C0006C816062CE010E947B0403E512E0C801E5
:1009D0000197F1F76C816062CE010E947B04C8012F
:1009E0000197F1F76C816062CE010E947B048BEE6F
:1009F00090E00197F1F784E08D836CE0CE010E94D6
:100A00007B04CE010E94830482E08E8366E0CE01E7
:100A10000E947B04E881F9810484F585E02D6FEF65
:100A2000CE01DF91CF911F910F910994EF92FF9228
:100A30000F931F93CF93DF93EC01062FF42EE22E3A
:100A40008B85888B1092A4021092A30210925D03F2
:100A500010927F0310925B0311E010935A031092DF
:100A6000350361E082E10E94680361E083E10E9456
:100A700068038091B9008E7F8093B9008091B9009E
:100A80008D7F8093B90088E48093B80085E48093DB
:100A9000BC00888910935C0380937E0310925D03F1
:100AA00010927F030E94650F91E0811190E0998B75
:100AB000992329F08DE194E00E94DA068E878989D6
:100AC000882339F01F861C8260E0CE010E960E94BA
:100AD00057022E2D4F2D602FCE01DF91CF911F9108
:100AE0000F91FF90EF900C948B041F920F920FB612
:100AF0000F9211242F933F934F935F936F937F93A4
:100B00008F939F93AF93BF93EF93FF938091B9001F
:100B1000887F803609F49CC068F5883209F45BC090
:100B200090F4803109F454C038F4882309F4F6C0F5
:100B3000883009F44DC0F6C0883109F44CC08032C9
:100B400009F45DC0EFC0803409F468C048F4803314
:100B500009F455C0883309F0E5C080935903D8C023
:100B6000803509F44FC0883509F45DC0883409F038
:100B7000D9C0D6C0883909F4C7C0A8F4883709F4A9
:100B800067C038F4883609F463C0803709F460C060
:100B9000C9C0883809F4B8C0803909F45FC080380A
:100BA00009F0C0C05BC0803B09F486C038F4803ACD
:100BB00009F466C0883A09F47FC0B4C0803C09F4E7
:100BC000A7C0883C09F4A4C0883B09F48AC0AAC025
:100BD0008091360310C09091580380915703981765
:100BE00070F5E091580381E08E0F80935803F0E098
:100BF000E95CFC4F80818093BB0085EC86C08093CC
:100C000059038EC0E091580381E08E0F8093580302
:100C10008091BB00F0E0E95CFC4F80839091580329
:100C2000809157036EC0E091580381E08E0F80934E
:100C300058038091BB00F0E0E95CFC4F8083809119
:100C40005A0381116DC081E08093350384EA61C04D
:100C500083E080935B031092CA02CFCF8091CA02D7
:100C6000803208F051C0E091CA0281E08E0F80937B
:100C7000CA028091BB00F0E0E655FD4F8083BDCFF6
:100C800085EC8093BC0010925B038091CA02803295
:100C900030F4E091CA02F0E0E655FD4F1082609119
:100CA000CA0270E0E091A802F091A9028AEA92E0FB
:100CB00009951092CA0236C084E080935B031092BB
:100CC000A7021092A202E091A502F091A602099556
:100CD0008091A202811105C081E08093A20210924E
:100CE0008202E091A70281E08E0F8093A702F0E0DC
:100CF000EE57FD4F80818093BB009091A7028091B9
:100D0000A202981708F479CF85E88093BC000AC046
:100D100085EC8093BC0010925B0304C010925903D1
:100D20000E944B02FF91EF91BF91AF919F918F91E4
:100D30007F916F915F914F913F912F910F900FBED7
:100D40000F901F9018954091A202262F30E0240F9B
:100D5000311D21323105DCF420915B032430C9F4CC
:100D6000FC0180E090E0861758F43091A2022191B6
:100D7000DC01AE57BD4FA30FB11D2C930196F3CFED
:100D80008091A202680F6093A20280E0089581E042
:100D9000089582E00895089581E090E03091A402E2
:100DA0002091A302321710F480E090E09195819594
:100DB000910908958091A4029091A302891730F4BB
:100DC0008F5F8093A40280E090E008958FEF9FEF03
:100DD00008958091A30290E02091A402821B9109C2
:100DE0000895CF92DF92EF92FF920F931F93CF93CC
:100DF000DF937C01262F972F8A0180915C03882343
:100E000091F0C62FD72F6E01C40ED51ECC15DD056F
:100E100071F06991D701ED91FC910190F081E02D85
:100E2000C7010995F3CF642F822F0E94A306C80142
:100E3000DF91CF911F910F91FF90EF90DF90CF90B6
:100E40000895CF93DF931F92CDB7DEB769832091CA
:100E50005C032223D1F020917F03203240F021E077
:100E600030E0FC013383228380E090E015C0809164
:100E70005D03E82FF0E0E25AFC4F998190838F5F89
:100E800080935D0380937F0305C061E0CE010196EE
:100E90000E94A30681E090E00F90DF91CF9108952A
:100EA00020912E0230912F022817390771F490916A
:100EB0002C0280912D02981741F0E0912C02F0E075
:100EC000EB50FD4F808190E008958FEF9FEF0895E4
:100ED00008951F93CF93DF93DC015C962D913C9195
:100EE0005D972115310539F481E090E013969C93CC
:100EF0008E9312973DC05196ED91FC91529750966A
:100F00009C915097892F80951FB75E964C915E9764
:100F100041FB772770F941FD6095F8944081772374
:100F200011F0492B01C048234083E9012197F1F7D3
:100F300048E0508160FF02C0592B01C05823508304
:100F4000E9012197F1F76695415099F7772321F050
:100F500090818923808303C08081982B90831FBF59
:100F60005C968D919C915D970197F1F721E030E0BF
:100F7000C901DF91CF911F91089520912E023091E8
:100F80002F022817390771F480912D0220912C022D
:100F900090E0805C9F4F821B910960E470E00E94AA
:100FA0000E21089580E090E0089520912E02309166
:100FB0002F0228173907B9F490912C0280912D0245
:100FC000981789F0E0912C02F0E0EB50FD4F808102
:100FD00020912C0230E02F5F3F4F2F733327209357
:100FE0002C0290E008958FEF9FEF0895089580E020
:100FF00090E008951F920F920FB60F9211242F9335
:101000003F934F935F936F937F938F939F93AF9390
:10101000BF93EF93FF93E0912E02F0912F02309750
:1010200009F451C0968DA685B785858591FF04C0CA
:101030009C91892329F447C09C91892309F043C0DE
:10104000A389B4899C918589809589238C9386890D
:1010500097890197F1F7608D718DA685B7855585C4
:1010600038E020E0CB010197F1F7822F90E09595D1
:101070008795282F4C91452309F02068315091F72E
:10108000868D81FD209580912D0290E001968F73D1
:10109000992730912C02381749F0A0912D02B0E029
:1010A000AB50BD4F2C9380932D0203C0868D816081
:1010B000868F828D938D0197F1F7A389B4899C91D6
:1010C0008589892B8C93FF91EF91BF91AF919F916F
:1010D0008F917F916F915F914F913F912F910F90E1
:1010E0000FBE0F901F901895E0912E02F0912F02E5
:1010F000E817F90769F4A389B4899C9185898095DB
:1011000089238C9310922F0210922E0281E0089571
:1011100080E008950F931F93CF93DF938C01EB0131
:101120000E94091E8883C80101960E94091E8983B6
:1011300082E090E0DF91CF911F910F910895EF929F
:10114000FF920F931F93CF93DF937C018B01C0E03D
:10115000D0E0F80161918F01CE018E0D9F1D0E949C
:10116000111E2196C430D105A1F784E090E0DF91F3
:10117000CF911F910F91FF90EF9008950F931F93C0
:10118000CF93DF93EC018B01FB0160810E94111E64
:10119000F8016181CE0101960E94111E82E090E06B
:1011A000DF91CF911F910F910895EF92FF920F93CE
:1011B0001F93CF93DF938B010C5F1F4FEB017C01DB
:1011C000E61AF70AC7018C0F9D1F0E94091E89931A
:1011D000C017D107B9F784E090E0DF91CF911F915C
:1011E0000F91FF90EF900895CF93DF93A89581E141
:1011F0000E94D403EC016AE070E080E090E00E947D
:10120000EB0381E10E94D4039E01281B390BC90125
:1012100037FF03C09195819591090C97F4F4CE01A5
:10122000875C92408935910510F482E301C08CE31C
:101230009E01295532402336310508F48EE19E0186
:10124000215931402539310508F488E2C35DD109BF
:10125000C935D10518F484E101C08CE3DF91CF9149
:101260000895CF93DF93CDB7DEB765970FB6F894A7
:10127000DEBF0FBECDBF880F991FFC01E05BFE4FA4
:1012800065917491CE0101960E94021ECE010196D5
:101290000E94D70F68E270E080E090E00E94EB03CC
:1012A00065960FB6F894DEBF0FBECDBFDF91CF912C
:1012B000089589E294E00E94830460E08DE090E06C
:1012C0000E94540F64EF71E080E090E00E94EB0315
:1012D000109251020895CF92DF92EF92FF9289E22D
:1012E00094E00E9483048EE090E00E94310961E066
:1012F00080E00E941A0F8091300290913102A091FB
:101300003202B091330280389649A849B10520F4E1
:1013100081EC91E00E94D70F8091300290913102D0
:10132000A0913202B091330280349244AF40B105B3
:1013300020F481EC91E00E94D70F809130029091CF
:101340003102A0913202B0913302803A9648A14016
:10135000B10520F481EC91E00E94D70F809130021A
:1013600090913102A0913202B091330280319742C4
:10137000A105B10520F481EC91E00E94D70F6091A6
:10138000300270913102809132029091330228EE46
:10139000C22E23E0D22EE12CF12CA70196010E944F
:1013A000491ECA01B9014AE00E94DC0F88ED91E0B4
:1013B0000E94D70F60913002709131028091320209
:1013C00090913302A70196010E94491E24E630E065
:1013D00040E050E00E94491ECA01B9014AE00E9463
:1013E000DC0F87E192E00E94D70F60912E04862FD8
:1013F000816080932E04696089E294E0FF90EF9011
:10140000DF90CF900C947B04CF92DF92EF92FF920B
:101410000E942504609357027093580280935902EA
:1014200090935A02C0904D02D0904E02E0904F022D
:10143000F090500220E1C20E27E2D21EE11CF11C06
:10144000C616D706E806F90610F410925B028091E2
:101450005B028111A9C0C090F102D090F202E0902D
:10146000F302F090F4020E9425046C157D058E05B0
:101470009F0568F4A7019601261B370B480B590BF3
:10148000DA01C90180959095A095B09506C0DC0160
:10149000CB018C199D09AE09BF098C329140A10581
:1014A000B10508F481C00E9425046093F102709395
:1014B000F2028093F3029093F402809139029091AA
:1014C0003A02009719F488E190E014C020910801D5
:1014D0003091090182179307DCF0809118019091F7
:1014E00019010497909319018093180105974CF402
:1014F00085E090E0909319018093180181E090E0DD
:1015000002C082E090E090931701809316014CC0D6
:1015100020911601309117012130310521F0223040
:101520003105D1F03DC02091EF023091F0028217D9
:1015300093077CF020911801309119012D5F3F4FE6
:10154000283F3105E4F027EF30E030931901209374
:10155000180122E030E020C02091EF023091F0022B
:1015600082179307BCF018161906A4F420911801ED
:101570003091190122503109253031052CF030937A
:101580001901209318010CC025E030E030931901B7
:101590002093180121E030E03093170120931601C9
:1015A0009093F0028093EF02FF90EF90DF90CF9046
:1015B00008954F925F926F927F928F929F92AF9217
:1015C000BF92CF92DF92EF92FF920F931F93CF9330
:1015D000DF93CDB7DEB7A0970FB6F894DEBF0FBE8E
:1015E000CDBFA8958EE480937C0062E070E080E03F
:1015F00090E00E94EB0380917A00806480937A00EF
:1016000080917A0086FDFCCF80917800209179004E
:1016100030E0322F2227A901330F660B770B9A0196
:10162000AB01282B60E070E381E190E00E941F1E77
:1016300029833A834B835C833093EE022093ED023F
:1016400009811A81B801110F880B990B0E94911F13
:1016500069877A878B879C8720E030E04AE754E4EB
:101660000E94E71E6D877E878F87988B6093E902C3
:101670007093EA028093EB029093EC0208EC10E086
:10168000C12CD12C760140E050E0BA01812C912C84
:1016900054018FE04D8F5E8F6F8F78A30E94D4032B
:1016A000092E000CAA0BBB0B4D8D5E8D6F8D78A1A2
:1016B000480F591F6A1F7B1F80E14D8F5E8F6F8F10
:1016C00078A30E94D403092E000CAA0BBB0B880E32
:1016D000991EAA1EBB1E8EE00E94D403092E000C88
:1016E000AA0BBB0BC80ED91EEA1EFB1E0150110926
:1016F0004D8D5E8D6F8D78A10115110551F698EC19
:10170000492E512C612C712CCB01BA01A3019201FD
:101710000E94491E298B3A8B4B8B5C8B3093E802DD
:101720002093E702C501B401A30192010E94491E62
:101730002D8B3E8B4F8B588F3093E6022093E50222
:10174000C701B601A30192010E94491E298F3A8F59
:101750004B8F5C8F2D833E834F83588729893A892D
:10176000B901330F880B990B0E94911F6B017C010B
:1017700020E030EC4FE754E469857A858B859C85C1
:101780000E94E71E9B01AC01C701B6010E94222006
:101790006B017C0169817A8177FF02C06F5F7F4FA7
:1017A00075956795072E000C880B990B0E94911F69
:1017B0009B01AC01C701B6010E947A1E6B017C013E
:1017C00020E030E048EC52E40E94E71E4B015C014F
:1017D00080914102909142026AE070E00E940E21E5
:1017E000072E000C880B990B0E94911F9B01AC01E6
:1017F000C501B4010E9422209B01AC01C701B601C2
:101800000E947B1E6093E1027093E2028093E302E8
:101810009093E4020E94591F6A3071052CF0709376
:101820003C0260933B0204C010923C0210923B02C7
:1018300080913B0290913C02803B944024F081E0F7
:101840008093E00202C01092E0028BE00E943F030E
:10185000892B19F481E080935C0260913B027091C6
:101860003C02072E000C880B990B0E94911F2B0144
:101870003C01AD89BE89BD01BB0F880B990B0E944D
:10188000911F2D853E854F8558890E94222020E09A
:1018900030EC4FE754E40E94E71E21E43AEE40E4C6
:1018A0005CE30E94E71E6B017C0120E030E048EC25
:1018B00052E40E94E71E4B015C0180913F0290912F
:1018C00040026AE070E00E940E21072E000C880B97
:1018D000990B0E94911F9B01AC01C501B4010E94AC
:1018E00022209B01AC01C701B6010E947B1E4B0167
:1018F0005C010E94591F6B017C0170933E02609352
:101900003D02A3019201C501B4010E94222020E002
:1019100030E048EC52E40E94E71E6093DC027093D2
:10192000DD028093DE029093DF020E94591F7093C4
:101930003A026093390280914702909148028C15D7
:101940009D0554F4D0924802C092470267E472E0C9
:1019500086E190E00E94BE0880913B0290913C029B
:1019600020914502309146022817390754F490938C
:1019700046028093450265E472E088E190E00E94AF
:10198000BE088091390290913A0220914302309131
:1019900044022817390754F4909344028093430279
:1019A00063E472E08AE190E00E94BE08098D1A8D1E
:1019B0002B8D3C8D0D3F13402105310540F005EB8B
:1019C00011E020E030E00D831E832F833887C09024
:1019D000E902D090EA02E090EB02F090EC022D8157
:1019E0003E81B901330F880B990B0E94911F4B0167
:1019F0005C0120E030EC4FE754E4C701B6010E94DF
:101A0000E71E9B01AC01C501B4010E9422204B01DD
:101A10005C0120E030E849E055E40E9422202B01DF
:101A20003C01A5019401C701B6010E947A1E9B01E9
:101A3000AC01C301B2010E94E71E9B01AC0160E052
:101A400070E08AEF94E40E947A1E21EA34E849E1CA
:101A50005EE30E9422209B01AC0160EE7FEF87E7EE
:101A600093E40E947A1E0E9495202FEC37EF4BE7FB
:101A700051E40E947A1E21EA34E849E95DE30E94BC
:101A8000E71E20E030E048EC51E40E947B1E0E94FB
:101A9000591F70935E0260935D024090D80250908F
:101AA000D9026090DA027090DB020E9425046B017B
:101AB0007C016093D8027093D9028093DA029093EC
:101AC000DB026091390270913A02072E000C880BFC
:101AD000990B0E94911F4B015C01C701B60164196B
:101AE0007509860997090E948F1F20E03AEB4BE5A4
:101AF0005AE40E94E71E9B01AC01C501B4010E949B
:101B000022202091D4023091D5024091D6025091EA
:101B1000D7020E947B1E6B017C0120E030E040E890
:101B20005FE30E941D2018164CF0C092D402D092A0
:101B3000D502E092D602F092D7023CC020E030E01D
:101B400040E85FE3C701B6010E947A1E6093D402A9
:101B50007093D5028093D6029093D702809152025F
:101B600090915302A0915402B09155020196A11D8B
:101B7000B11D811531EE930735EFA30735E0B307AB
:101B800048F48093520290935302A0935402B0936E
:101B9000550210C010925202109253021092540239
:101BA00010925502109235021092360210923702AE
:101BB000109238028091520290915302A0915402E7
:101BC000B091550240913502509136026091370232
:101BD000709138028C019D01041B150B260B370BED
:101BE000043611052105310558F021E020935602F5
:101BF0008093350290933602A0933702B093380257
:101C0000A0960FB6F894DEBF0FBECDBFDF91CF9187
:101C10001F910F91FF90EF90DF90CF90BF90AF900A
:101C20009F908F907F906F905F904F9008950F934B
:101C30001F938C018091E002882319F10951110949
:101C40000530110514F405E010E01093190100931C
:101C5000180182E090E0909317018093160189E2C9
:101C600094E00E94830460E080E00E941A0F8BE100
:101C700092E00E94D70F083F110554F007EF10E0E3
:101C800007C0083F1105D4F717FF02C000E010E0BD
:101C9000F89483E18093810084EC99E0909387002D
:101CA0008093860025E0209FC001219F900D112484
:101CB00090938900809388002BEF2003C001219F1F
:101CC000900D11248C53964F90938B0080938A0033
:101CD00084B1866084B980EB8093800078941F91F2
:101CE0000F910895CF92DF92EF92FF921F93CF93BF
:101CF000DF93D1E015E20E94F408C82F6CE370E096
:101D000080E090E00E94EB0384E00E943F03892B77
:101D100079F420915D0230915E0280911A019091D8
:101D20001B012817390724F4809134028823C9F154
:101D300010921901109218018091180190911901C7
:101D40000E94170ED0935C0310937E0310925D03E4
:101D500010927F03609110018DE194E00E942107B1
:101D60000E94650F0E942504C0904902D0904A024B
:101D7000E0904B02F0904C0220E1C20E27E2D21E0E
:101D8000E11CF11CC616D706E806F90618F41092F5
:101D900051020CC0CC3351F4809151028111ABCF70
:101DA00005C00E94D90A0E94040AC6CF0E942504D9
:101DB0006093490270934A0280934B0290934C02C5
:101DC00060E570E080E090E00E94EB038C2FDF91F3
:101DD000CF911F91FF90EF90DF90CF900895CF9219
:101DE000DF92EF92FF920F931F93CF93DF936C01DB
:101DF0007A018B01C0E0D0E0CE15DF0589F0D80173
:101E00006D918D01D601ED91FC910190F081E02D55
:101E1000C6010995892B11F47E0102C02196ECCFF1
:101E2000C701DF91CF911F910F91FF90EF90DF904D
:101E3000CF900895CF93DF93CDB7DEB728970FB635
:101E4000F894DEBF0FBECDBF1D8290E49E8324E1D7
:101E50002F8324E5288719829A8390E19B8390E55C
:101E60009C8390913004691710F06FEF690F4091D7
:101E70003104262F30E0FE01E20FF31F403121F440
:101E8000943011F4918101C09581682F690F6068C9
:101E900089E294E028960FB6F894DEBF0FBECDBF5E
:101EA000DF91CF910C947B04CF93DF93EC0180E022
:101EB0000E941A0F64E170E080E090E00E94EB0362
:101EC000CE01DF91CF910C94310920917F03909145
:101ED0007E03213208F04AC080915B038111FCCF60
:101EE00032E030935B0331E030935A033FEF30939D
:101EF00059031092580320935703AEE5B3E047E32C
:101F000053E0FA013E2F341B321718F43D91319300
:101F1000F9CF1092360320913603990F922B9093AC
:101F2000360390913503913061F41092350390910E
:101F300036039093BB009091BC0093FDF8CF95ECD5
:101F400001C095EE9093BC0090915B039230E1F359
:101F5000909159039F3F79F080915903803241F06D
:101F600080915903803331F084E005C081E003C0E3
:101F700082E001C083E010925D0310927F03109213
:101F80005C0308956115710579F0FB010190002053
:101F9000E9F73197AF01461B570BDC01ED91FC913E
:101FA0000280F381E02D099480E090E00895BC0167
:101FB00089E294E00C94C20F8F929F92AF92BF92ED
:101FC0000F931F93CF93DF93CDB7DEB7A1970FB6D3
:101FD000F894DEBF0FBECDBF19A2423008F44AE02C
:101FE0008E010F5D1F4F842E912CA12CB12CA501C9
:101FF00094010E94491EE62FB901CA01015011093E
:10200000EA3014F4E05D01C0E95CD801EC93232BC5
:10201000242B252B61F7B80189E294E00E94C20FBE
:10202000A1960FB6F894DEBF0FBECDBFDF91CF9162
:102030001F910F91BF90AF909F908F900895CF9276
:10204000DF92EF92FF92CF93DF936C01990FEE082E
:10205000FF08F7FE1FC0E0912904F0912A040190C7
:10206000F081E02D6DE289E294E00995EC016627AC
:102070007727CB016C197D098E099F094AE00E94E0
:10208000DC0F8C0F9D1FDF91CF91FF90EF90DF90C1
:10209000CF9008954AE0C701B601DF91CF91FF903C
:1020A000EF90DF90CF900C94DC0FCF93DF93CDB700
:1020B000DEB727970FB6F894DEBF0FBECDBF78947A
:1020C00084B5826084BD84B5816084BD85B582603D
:1020D00085BD85B5816085BD80916E0081608093EE
:1020E0006E00109281008091810082608093810057
:1020F0008091810081608093810080918000816067
:10210000809380008091B10084608093B1008091C1
:10211000B00081608093B00080917A0084608093E9
:102120007A0080917A00826080937A0080917A00B0
:10213000816080937A0080917A00806880937A0031
:102140001092C10099E288E10FB6F894A8958093A7
:1021500060000FBE90936000A89561E084E10E944A
:10216000980360E084E10E94680361E085E10E94D9
:10217000980360E085E10E94680361E082E00E94CC
:10218000980360E082E00E94680361E083E00E94BF
:10219000980360E083E00E94680367E672E08CEFDA
:1021A00093E00E94D5088091670290916802A09107
:1021B0006902B0916A028A3A9241A840B14709F493
:1021C0007CC064E171E082E090E00E94BE0862E1C0
:1021D00071E086E090E00E94BE0861E772E088E06E
:1021E00090E00E949F086CE171E08CE090E00E941A
:1021F000BE086AE171E08EE090E00E94BE0868E0EF
:1022000071E080E190E00E94BE086CE071E082E144
:1022100090E00E94BE086AE071E084E190E00E94D4
:10222000BE0867E472E086E190E00E94BE0865E4C3
:1022300072E088E190E00E94BE0863E472E08AE107
:1022400090E00E94BE086FE372E08CE190E00E9493
:10225000BE0861E472E08EE190E00E94BE086EE08C
:1022600071E080E290E00E94BE0860E171E082E2ED
:1022700090E00E94BE0862E572E0809114019091A6
:1022800015010E949F0865E772E08091120190910C
:1022900013010E949F088AEA92E1A8E0B1E78093C7
:1022A000670290936802A0936902B0936A0267E69E
:1022B00072E08CEF93E00E949F0864E171E082E09D
:1022C00090E00E948A0862E171E086E090E00E945E
:1022D0008A0861E772E088E090E00E94D5086CE12E
:1022E00071E08CE090E00E948A086AE171E08EE083
:1022F00090E00E948A0868E071E080E190E00E942E
:102300008A086CE071E082E190E00E948A086AE04D
:1023100071E084E190E00E948A0867E472E086E15F
:1023200090E00E948A0865E472E088E190E00E94F3
:102330008A0863E472E08AE190E00E948A086FE311
:1023400072E08CE190E00E948A0861E472E08EE124
:1023500090E00E948A086EE071E080E290E00E94C6
:102360008A0860E171E082E290E00E948A0862E5FA
:1023700072E080911401909115010E94D50865E7E3
:1023800072E080911201909113010E94D508809112
:10239000520290915302A0915402B0915502809341
:1023A000350290933602A0933702B093380260E072
:1023B0008BE00E94980361E087E00E94980360E050
:1023C00087E00E94680361E08DE00E94980361E06D
:1023D0008DE00E94980360E08DE00E94680362E057
:1023E00085E00E94980362E084E00E949803E091F7
:1023F0009003F091910382E08083E0918C03F0914F
:102400008D031082E0918E03F0918F0380E1808331
:1024100010929803E0919403F091950386E08083F5
:10242000E0919203F0919303808180618083E09139
:102430009203F0919303808188608083E0919203FE
:10244000F0919303808180688083E0919203F09102
:10245000930380818F7D808368E671E080E893E05C
:102460000E94C20F6EE671E080E893E00E94C20F06
:102470001092BF041092BE041092BD041092BC04CE
:102480001092BB041092BA048DE991E09093C104BC
:102490008093C0049091B004963108F057C02DEBA2
:1024A00030E03093BB042093BA042BE931E0309341
:1024B000BD042093BC042CE231E03093BF04209390
:1024C000BE0420916800983050F031E09E3008F44E
:1024D00030E081E001C0880F3A95EAF701C084E05E
:1024E000822B80936800983038F09E3040F096310F
:1024F00048F020E030E008C02DE630E005C02BE6D3
:1025000030E002C02CE630E03093B8042093B704EA
:10251000983030F481E001C0880F9A95EAF70EC038
:10252000292F30E09E3018F42850310902C02E5077
:10253000310981E001C0880F2A95EAF78093B90438
:102540008091C0049091C1040197F1F78091BE047D
:102550009091BF04892B21F180912E0290912F023E
:1025600034E0843A9307E1F0009711F00E94740878
:102570008091C2048E7F8093C20410922D0210922B
:102580002C0284EA94E090932F0280932E02E09133
:10259000B704F091B80490818091B904892B8083AD
:1025A0006CE370E080E090E00E94EB0320E042E00A
:1025B00060E189E294E00E94160568E489E294E013
:1025C0000E947B0483E790E00197F1F700E011E0BF
:1025D0008BE9C82ED12C98E0F92EF00EF80161910C
:1025E0008F0189E294E00E943E02C6010197F1F753
:1025F000F012F4CFE0912904F0912A040484F585C7
:10260000E02D6FEF89E294E009950E94F408082E0E
:10261000000C990B9093700280936F024E9709F013
:1026200051C160ED77E080E090E00E94EB030E94F2
:10263000F408082E000C990B9093700280936F029F
:102640004E9709F03FC181E0809351022091100123
:102650003091110130936D0220936C022AE030E03A
:10266000309311012093100180933402C0905202E4
:10267000D0905302E0905402F0905502C092300284
:10268000D0923102E0923202F0923302C701B601D9
:1026900020E836E948E950E00E94491E2983E0E439
:1026A0008E2EE2E49E2EEFE0AE2EB12CA501940119
:1026B0000E94491E2A83C701B601A50194010E9408
:1026C000491EF0EA8F2EF6E89F2EAA24A394B12C7F
:1026D000A50194010E94491E2B83C701B601A501E3
:1026E00094010E94491EA0E18A2EA7E29A2EA12CF5
:1026F000B12CA50194010E94491E2C83C701B6018B
:10270000A50194010E94491EB8EE8B2EB3E09B2ECA
:10271000A12CB12CA50194010E94491E2D83C70153
:10272000B601A50194010E94491E24E630E040E074
:1027300050E00E94491E2F830E946B0968EE73E0EF
:1027400080E090E00E94EB0306E010E00E946B093D
:1027500061E0802F0E941A0F0E94720E80936B021C
:10276000883239F0823309F471C08E3109F092C099
:102770000DC0015011090530110529F017FF8AC05D
:1027800006E010E087C004E010E084C0E1E0F0E083
:10279000EC0FFD1FE00FF11F808190E001968A3061
:1027A000910514F080E090E0E1E0F0E0EC0FFD1F17
:1027B000E00FF11F8083FC81ED81A981B0E020EA68
:1027C00036E841E050E00E943E1E6B017C018A81A8
:1027D000282F30E0A0E1B7E20E946B1EC60ED71E84
:1027E000E81EF91E2B8130E0A8EEB3E00E946B1EBC
:1027F000C60ED71EE81EF91E2F2F30E0A4E6B0E06B
:102800000E946B1EC60ED71EE81EF91E2E2F30E04A
:10281000AAE0B0E00E946B1EAB01BC014C0D5D1D37
:102820006E1D7F1D8F819A01AB01280F311D411D47
:10283000511DA4E6B0E00E943E1E609330027093EA
:102840003102809332029093330224C0809130028F
:1028500090913102A0913202B091330280935202E2
:1028600090935302A0935402B093550260912E04AA
:102870006E7F60932E04686089E294E00E947B047E
:1028800062E572E080911401909115010E949F0809
:102890000E94590980915102811158CF60912E04F4
:1028A0006E7F60932E04686089E294E00E947B044E
:1028B0001092340280916C0290916D0290931101FC
:1028C0008093100161E08CE00E94680361E08CE07D
:1028D0000E9498036AE070E080E090E00E94EB03C1
:1028E00060E08CE00E94980348E0642E712C5AE06E
:1028F000E52EF12C64E6C62ED12C0E94D90A84E084
:102900000E943F03892B61F420915D0230915E02A9
:1029100080911A0190911B01281739070CF421C6E8
:1029200010921901109218018091180190911901CB
:102930000E94170E6AE070E080E090E00E94EB03D6
:102940000E9425044B015C01809163029091640216
:10295000A0916502B0916602A5019401281B390B74
:102960004A0B5B0BDA01C90180329340A105B10526
:1029700008F4DEC060E080E00E941A0F80913D0202
:1029800090913E020A978A35910520F483E092E007
:102990000E94D70F80913D0290913E020A9724F445
:1029A00082E092E00E94D70F80913D0290913E021A
:1029B0000E941F1085EA91E00E94D70F60E085E039
:1029C0000E941A0F84E00E943F03892B61F420913A
:1029D0005D0230915E0280911A0190911B012817CF
:1029E00039070CF4CFC781E192E00E94D70F84E051
:1029F0000E943F03892B21F088EA91E00E94D70FC3
:102A000020915D0230915E0280911A0190911B012C
:102A10002817390724F08AEA91E00E94D70F60E076
:102A20008BE00E941A0F8091390290913A028456ED
:102A300091098438934020F483E092E00E94D70FFC
:102A40008091390290913A020A978A35910520F4D3
:102A500082E092E00E94D70F8091390290913A0271
:102A60000A9724F481E092E00E94D70F8091390206
:102A700090913A020E941F108FEA91E00E94D70FB6
:102A800080915B0261E0882309F4A3C680E00E9484
:102A90001A0F81EB91E00E94D70F6091180170919D
:102AA0001901072E000C880B990B0E94911F20E042
:102AB00030E040E250E40E94E71E0E94591F6A3055
:102AC000710524F483E092E00E94D70F6091180111
:102AD00070911901072E000C880B990B0E94911F11
:102AE00020E030E040E250E40E94E71E0E94591FBF
:102AF000CB010E941F1089EB91E00E94D70F81E06B
:102B000080935C0385E280937E0310925D031092B4
:102B10007F036AE08DE194E00E9421070E94650F27
:102B20008092630290926402A0926502B092660263
:102B300080915B02811106C064E670E080E090E065
:102B40000E94EB030E942504609357027093580281
:102B50008093590290935A0200917D0210917E0257
:102B600020917F02309180024B015C01801A910A12
:102B7000A20AB30A40E884164EEE940646E3A40681
:102B8000B10458F021E02093560260937D027093C7
:102B90007E0280937F02909380020E9425044B0165
:102BA0005C0160935702709358028093590290938E
:102BB0005A028091790290917A02A0917B02B091A1
:102BC0007C02A5019401281B390B4A0B5B0BDA012F
:102BD000C901883E9340A105B105B0F061E08DE0E8
:102BE0000E9468036EE170E080E090E00E94EB03D9
:102BF00060E08DE00E9468038092790290927A02F0
:102C0000A0927B02B0927C0280915602882309F444
:102C1000A2C01092560219821A821B821C82BE0127
:102C20006F5F7F4F80911401909115010E94D5082C
:102C300049815A816B817C8180915202909153022B
:102C4000A0915402B0915502481759076A077B07B3
:102C500009F481C062E572E0809114019091150140
:102C60000E949F088091750290917602A091770250
:102C7000B09178020196A11DB11D809375029093C9
:102C80007602A0937702B093780265E772E08091B4
:102C90001201909113010E949F08809175029091FA
:102CA0007602A0917702B091780240917102509122
:102CB00072026091730270917402841B950BA60BD3
:102CC000B70B80399F45A140B10508F444C08091FD
:102CD0001401909115010A969093150180931401A7
:102CE00080911201909113010A96909313018093A1
:102CF000120164E171E082E090E00E94BE0862E1AE
:102D000071E086E090E00E94BE088091750290918B
:102D10007602A0917702B09178028093710290932D
:102D20007202A0937302B093740261E772E088E0CC
:102D300090E00E949F0862E572E0809114019091FA
:102D400015010E949F0865E772E080911201909141
:102D500013010E949F080E94F408082E000C990B92
:102D60009093700280936F02C29729F481E0809360
:102D7000510210926E0280915102882309F48BC394
:102D80000E9425046093490270934A0280934B028B
:102D900090934C02809110019091110190936D02DB
:102DA00080936C0288E1882E9EE0992EAA24A39439
:102DB000B12C62E370E080E090E00E94EB0389E2D6
:102DC00094E00E9483048AE090E090931101809344
:102DD00010018CE090E00E94310980916E0261E068
:102DE00090E00E94540F68EC70E080E090E00E9458
:102DF000EB030E94720E80936B028E3119F08832C1
:102E000061F039C380916E028F5F8B3018F480932C
:102E10006E0231C310926E022EC3E0916E028E2FAD
:102E200090E08B30910508F026C3FC01EC5CFF4F6D
:102E30000C942221109251021EC300911A0110918C
:102E40001B0189E294E00E94830480916E0260E09D
:102E500090E00E94540F61E080E00E941A0FC801C8
:102E60000E941F1061E089E294E00E943E028EEC15
:102E700091E00E94D70F0E94720E80936B028E31F8
:102E800079F08832B9F410931B0100931A016AE1BA
:102E900071E08EE090E00E94BE080E9459090AC0CD
:102EA000083211053CF00F5F1F4F0B35110514F070
:102EB00008E210E0809151028111C3CFDCC2009181
:102EC00008011091090189E294E00E948304809135
:102ED0006E0260E090E00E94540F61E080E00E948A
:102EE0001A0FC8010E941F1081ED91E00E94D70FB8
:102EF0000E94720E80936B028E3179F08832C9F491
:102F0000109309010093080168E071E080E190E00E
:102F10000E94BE080E9459090CC0083E93E01907A0
:102F200044F00C591F4F013FEAE01E0714F008EE71
:102F300013E0809151028111C6CF9DC200910C0116
:102F400010910D0189E294E00E94830480916E0249
:102F500060E090E00E94540F61E080E00E941A0F50
:102F60000A30110520F483E092E00E94D70FC801D7
:102F70000E941F1084ED91E00E94D70F0E94720EF4
:102F800080936B028E3119F0883259F028C017FDFA
:102F900026C00B5F1F4F0D3311050CF100E010E050
:102FA0001EC010930D0100930C010115110529F4A9
:102FB00010920B0110920A0104C0B0920B01A09272
:102FC0000A016AE071E084E190E00E94BE086CE0D2
:102FD00071E082E190E00E94BE080E945909809150
:102FE00051028111AFCF47C200911C0110911D0108
:102FF00089E294E00E94830480916E0260E090E098
:103000000E94540F61E081E00E941A0FC8010E94E3
:103010001F100E94720E80936B028E3179F08832FD
:10302000B9F410931D0100931C016CE171E08CE078
:1030300090E00E94BE080E9459090AC00A3011059A
:103040003CF00F5F1F4F0531110514F00AE010E04E
:10305000809151028111CCCF0EC200913F0210919C
:10306000400289E294E00E94830480916E0260E055
:1030700090E00E94540F61E081E00E941A0F101648
:1030800011061CF48AED91E00CC00115110519F42C
:1030900083E092E006C00B3FFFEF1F0721F48CECAA
:1030A00091E00E94D70FC801B7010E940E212C01A8
:1030B000CB010E941F1088ED91E00E94D70FC20142
:1030C00057FE03C09195819591090E941F108CEDC8
:1030D00091E00E94D70F0E94720E80936B028E3196
:1030E00079F08832C1F41093400200933F026FE3FD
:1030F00072E08CE190E00E94BE080E9459090BC06A
:103100000E3C2FEF12073CF00B5F1F4F03331105EE
:1031100014F00EEC1FEF809151028111A2CFABC1D0
:10312000009141021091420289E294E00E948304DE
:1031300080916E0260E090E00E94540F61E081E0B7
:103140000E941A0F101611061CF48AED91E00CC0B3
:103150000115110519F483E092E006C00B3F3FEF23
:10316000130721F48CEC91E00E94D70FC801B7013E
:103170000E940E212C01CB010E941F1088ED91E0CE
:103180000E94D70FC20157FE03C091958195910906
:103190000E941F108CED91E00E94D70F0E94720ECA
:1031A00080936B028E3179F08832C1F41093420221
:1031B0000093410261E472E08EE190E00E94BE085B
:1031C0000E9459090BC00E3C4FEF14073CF00B5FF7
:1031D0001F4F0333110514F00EEC1FEF80915102C5
:1031E0008111A2CF48C100910E0110910F0189E217
:1031F00094E00E94830480916E0260E090E00E945F
:10320000540F61E080E00E941A0F0130110519F49B
:1032100080EE91E002C08DEE91E00E94D70F0E94F7
:10322000720E80936B028E3179F08832B1F4109374
:103230000F0100930E016EE071E080E290E00E94C9
:10324000BE080E94590909C017FD07C0012B19F4D7
:1032500001E010E002C000E010E080915102811115
:10326000C6CF09C160E171E082E290E00E948A0865
:10327000009110011091110189E294E00E948304F1
:1032800080916E0260E090E00E94540F61E081E066
:103290000E941A0FC8010E941F100E94720E809394
:1032A0006B028E3199F08832F1F410931101009382
:1032B000100110936D0200936C0260E171E082E2F4
:1032C00090E00E94BE080E9459090DC017FD07C07A
:1032D0000F5F1F4F0B30110514F000E010E010934A
:1032E000110100931001809151028111C5CFC3C01B
:1032F0008233F1F410924802109247021092460273
:1033000010924502109244021092430267E472E068
:1033100086E190E00E94BE0865E472E088E190E0FA
:103320000E94BE0863E472E08AE190E00E94BE0859
:1033300080915102882309F49EC089E294E00E94A2
:10334000830480916E0260E090E00E94540F61E07F
:1033500080E00E941A0F80914702909148020E94DB
:103360001F1085EA91E00E94D70F8091450290914D
:103370004602B6010E940E21CB010E941F1088ED6B
:1033800091E00E94D70F8091450290914602B601CC
:103390000E940E21B7010E940E21CB010E941F1036
:1033A0008CEA91E00E94D70F8091430290914402F1
:1033B0000E941F108FEA91E00E94D70F0E94720EA8
:1033C00080936B02883209F093CF10925102B0CFF4
:1033D00001E010E089E294E00E94830480916E0293
:1033E00060E090E00E94540F61E080E00E941A0FBC
:1033F0000130110519F48AEF91E002C085E092E0F6
:103400000E94D70F0E94720E80936B028E3119F0CA
:10341000883249F02CC081E00130110509F480E0C8
:10342000082F10E024C01092510201151105E9F493
:1034300010926702109268021092690210926A025A
:1034400067E672E08CEF93E00E949F080FB6F89455
:10345000A895809260000FBE9092600060ED77E0CA
:1034600080E090E00E94EB0302C001E010E0809158
:1034700051028111AFCF89E294E00E9483048091D0
:103480005102811196CC80916C0290916D029093C3
:1034900011018093100184E00E943F03892B09F001
:1034A0005DC000916F02109170020E311105E1F4C0
:1034B00080911801909119010196909319018093C0
:1034C000180181E080935B020E94250460934D0205
:1034D00070934E0280934F02909350026FE070E021
:1034E00080E090E00E94EB03809118019091190117
:1034F000883F910534F187EF90E090931901809314
:1035000018010832110551F58091180190911901A7
:103510000197909319018093180181E080935B02D9
:103520000E94250460934D0270934E0280934F02D7
:10353000909350026FE070E080E090E00E94EB0317
:1035400003C00832110501F380911801909119010F
:10355000089724F470921901609218010E94D20118
:10356000CCC90E94040A80910A0190910B01892B19
:1035700009F4CAC00E942504609357027093580250
:103580008093590290935A0200915F021091600259
:1035900020916102309162024B015C01801A910A14
:1035A000A20AB30AA0910C01B0910D0120E63AEEF7
:1035B0000E94282186169706A806B90608F4A4C01A
:1035C0008091180190911901C3978638910508F0F0
:1035D0009BC080915B02811197C010923A021092B9
:1035E000390289E294E00E94830460E080E00E9456
:1035F0001A0F81E791E00E94D70F812C912CA12C0A
:10360000B12C0AE010E02091390230913A02809109
:10361000080190910901281739070CF057C0109341
:10362000190100931801C8010E94170E61E080E0A3
:103630000E941A0F6091180170911901072E000C59
:10364000880B990B0E94911F20E030E040E250E48B
:103650000E94E71E0E94591F6A30710524F483E01E
:1036600092E00E94D70F6091180170911901072E06
:10367000000C880B990B0E94911F20E030E040E283
:1036800050E40E94E71E0E94591FCB010E941F10A8
:1036900082E891E00E94D70F6AE070E080E090E05D
:1036A0000E94EB030E94D90A8091390290913A025C
:1036B000A816B9062CF480901801909019015C01AD
:1036C0000B5F1F4F0A3F110509F09DCFB0923A02E0
:1036D000A0923902909219018092180164EF71E072
:1036E00080E090E00E94EB03809157029091580295
:1036F000A0915902B0915A0280935F0290936002A8
:10370000A0936102B093620280915C02882309F465
:103710000BC989E294E00E94830460E080E00E948B
:103720001A0F85E891E00E94D70F61E080E00E94C7
:103730001A0F85E991E00E94D70F809181028530B0
:10374000A0F5709219016092180181E090E09093C9
:1037500017018093160188E090E00E94170E00E1A7
:1037600010E068EE73E080E090E00E94EB03A89523
:1037700001501109B1F761E08CE00E94680361E03B
:103780008CE00E9498036AE070E080E090E00E9484
:10379000EB0360E08CE00E94980310925C02809141
:1037A00081028F5F80938102BFC81092190110922D
:1037B000180180E090E00E94170E0FB6F894A895CB
:1037C00080916000886180936000109260000FBE5D
:1037D000FFCF80E00E941A0F809152029091530215
:1037E000A0915402B091550280389649A849B1057C
:1037F00020F483E092E00E94D70F809152029091D2
:103800005302A0915402B091550280349244AF40CB
:10381000B10520F483E092E00E94D70F809152021C
:1038200090915302A0915402B0915502803A96486B
:10383000A140B10520F483E092E00E94D70F80916F
:10384000520290915302A0915402B09155028031DE
:103850009742A105B10520F483E092E00E94D70FC2
:1038600060915202709153028091540290915502DE
:1038700038EE232E33E0332E412C512CA20191013E
:103880000E94491ECA01B9014AE00E94DC0F88ED7E
:1038900091E00E94D70F6091520270915302809183
:1038A000540290915502A20191010E94491E643672
:1038B00071058105910520F481EC91E00E94D70FFC
:1038C000609152027091530280915402909155027E
:1038D00028EE33E040E050E00E94491E2AE030E04C
:1038E00040E050E00E94491ECA01B9014AE00E942E
:1038F000DC0F83EC91E00E94D70F61E08BE00E9427
:103900001A0F80915D0290915E020A978A359105A7
:1039100020F483E092E00E94D70F80915D029091A5
:103920005E020A9720F482E092E00E94D70F809115
:103930005D0290915E029C012150310928373105CA
:1039400048F061E08BE00E941A0F8AEC91E00E943F
:10395000D70F02C00E941F1061E089E294E00E942C
:103960003E028EEC91E00E94D70F81E080935C03D1
:1039700085E280937E0310925D0310927F03609135
:103980001001C8C880913B0290913C02883E934050
:1039900024F483E092E00E94D70F80913B02909143
:1039A0003C02B6010E940E21CB010E941F1088ED3F
:1039B00091E00E94D70F80913B0290913C02B601AA
:1039C0000E940E21B7010E940E21CB010E941F1000
:1039D0008CEA91E022C88AE591E09093A504809357
:1039E000A40484EA94E00C94740810928303109267
:1039F000820388EE93E0A0E0B0E08093840390938C
:103A00008503A0938603B093870322E231E03093CD
:103A100081032093800325EC30E030938D032093C5
:103A20008C0324EC30E030938F0320938E0320EC42
:103A300030E0309391032093900321EC30E03093F9
:103A400093032093920322EC30E03093950320936C
:103A5000940326EC30E03093970320939603109262
:103A6000990310929A0310929B0310929C03109258
:103A7000200410921F048093210490932204A093A9
:103A80002304B093240424E331E030931E042093F4
:103A90001D041092A7041092A6048093A80490938A
:103AA000A904A093AA04B093AB048AE591E0909393
:103AB000A5048093A4041092BB041092BA0410923F
:103AC000BD041092BC041092BF041092BE04109268
:103AD000C1041092C0046091C2046E7F6D7F609338
:103AE000C2046695617081E0682786E00E946803E1
:103AF00061E086E00E949803ECE9F1E0E491E09354
:103B0000B404E8E8F1E0E491F0E0EE0FFF1FE259C1
:103B1000FE4F859194919093B6048093B50460E034
:103B200088E00E9498038091C20481FD04C061E096
:103B300088E00E94680388E08093B004EEE9F1E039
:103B4000E491E093B104EAE8F1E0E491F0E0EE0FF3
:103B5000FF1FE858FE4F859194919093B304809392
:103B6000B20480911C018093460484E08093470452
:103B700097E09093480428EE33E030939604209326
:103B8000950410929F041092A0041092A104109228
:103B9000A20410922C0410922B0426E431E03093FE
:103BA0002A0420932904109239049FEF909338043B
:103BB0001092370410923A0497E2909334041092D2
:103BC000350410923604109233041092320480931C
:103BD0003B0482E080933C0481E080933D0480E1DB
:103BE00080933E0480E280933F0480E4809340040D
:103BF00080E88093410440E050E063E089E294E093
:103C00000C942A02FB01DC0105900D920020E1F7E3
:103C10000895F999FECF92BD81BDF89A992780B594
:103C20000895262FF999FECF1FBA92BD81BD20BD00
:103C30000FB6F894FA9AF99A0FBE01960895052ED8
:103C400097FB1EF400940E94361E57FD07D00E9479
:103C5000491E07FC03D04EF40C94361E5095409537
:103C6000309521953F4F4F4F5F4F08959095809528
:103C7000709561957F4F8F4F9F4F08950E946B1EE7
:103C8000A59F900DB49F900DA49F800D911D1124B0
:103C90000895A1E21A2EAA1BBB1BFD010DC0AA1F8D
:103CA000BB1FEE1FFF1FA217B307E407F50720F0A5
:103CB000A21BB30BE40BF50B661F771F881F991F20
:103CC0001A9469F760957095809590959B01AC0169
:103CD000BD01CF010895A29FB001B39FC001A39F72
:103CE000700D811D1124911DB29F700D811D112435
:103CF000911D08955058BB27AA270E94921E0C942C
:103D0000E31F0E94D51F38F00E94DC1F20F039F419
:103D10009F3F19F426F40C94D21F0EF4E095E7FBB4
:103D20000C94CC1FE92F0E94F41F58F3BA176207B6
:103D300073078407950720F079F4A6F50C941620F4
:103D40000EF4E0950B2EBA2FA02D0B01B9019001B6
:103D50000C01CA01A0011124FF27591B99F0593FFA
:103D600050F4503E68F11A16F040A22F232F342F42
:103D70004427585FF3CF469537952795A795F04090
:103D80005395C9F77EF41F16BA0B620B730B840BA5
:103D9000BAF09150A1F0FF0FBB1F661F771F881F5D
:103DA000C2F70EC0BA0F621F731F841F48F48795B5
:103DB00077956795B795F7959E3F08F0B0CF9395A7
:103DC000880F08F09927EE0F9795879508950E9420
:103DD000FB1E0C94E31F0E94DC1F58F00E94D51FAD
:103DE00040F029F45F3F29F00C94CC1F51110C9442
:103DF00017200C94D21F0E94F41F68F39923B1F38B
:103E0000552391F3951B550BBB27AA276217730700
:103E1000840738F09F5F5F4F220F331F441FAA1F94
:103E2000A9F335D00E2E3AF0E0E832D09150504050
:103E3000E695001CCAF72BD0FE2F29D0660F771FFE
:103E4000881FBB1F261737074807AB07B0E809F0E4
:103E5000BB0B802DBF01FF2793585F4F3AF09E3F69
:103E6000510578F00C94CC1F0C9417205F3FE4F3BD
:103E7000983ED4F3869577956795B795F7959F5FAC
:103E8000C9F7880F911D9695879597F90895E1E0F8
:103E9000660F771F881FBB1F621773078407BA0757
:103EA00020F0621B730B840BBA0BEE1F88F7E095B2
:103EB00008950E94601F6894B1110C941720089512
:103EC0000E94FC1F88F09F5798F0B92F9927B7518F
:103ED000B0F0E1F0660F771F881F991F1AF0BA95AE
:103EE000C9F714C0B13091F00E941620B1E00895D6
:103EF0000C941620672F782F8827B85F39F0B93FC8
:103F0000CCF3869577956795B395D9F73EF4909560
:103F10008095709561957F4F8F4F9F4F0895E894DE
:103F200009C097FB3EF490958095709561957F4F01
:103F30008F4F9F4F9923A9F0F92F96E9BB279395AF
:103F4000F695879577956795B795F111F8CFFAF4BF
:103F5000BB0F11F460FF1BC06F5F7F4F8F4F9F4FF0
:103F600016C0882311F096E911C0772321F09EE84E
:103F7000872F762F05C0662371F096E8862F70E0B4
:103F800060E02AF09A95660F771F881FDAF7880F8E
:103F90009695879597F9089597F99F6780E870E05F
:103FA00060E008959FEF80EC089500240A941616AF
:103FB000170618060906089500240A941216130617
:103FC000140605060895092E0394000C11F48823A5
:103FD00052F0BB0F40F4BF2B11F460FF04C06F5FC1
:103FE0007F4F8F4F9F4F089557FD9058440F551F97
:103FF00059F05F3F71F04795880F97FB991F61F06B
:104000009F3F79F087950895121613061406551FE1
:10401000F2CF4695F1DF08C0161617061806991F4D
:10402000F1CF86957105610508940895E894BB2742
:1040300066277727CB0197F908950E94D52008F4C9
:104040008FEF08950E9435200C94E31F0E94D51F26
:1040500038F00E94DC1F20F0952311F00C94CC1F47
:104060000C94D21F11240C9417200E94F41F70F39B
:10407000959FC1F3950F50E0551F629FF001729F0D
:10408000BB27F00DB11D639FAA27F00DB11DAA1F1C
:10409000649F6627B00DA11D661F829F2227B00D69
:1040A000A11D621F739FB00DA11D621F839FA00DF4
:1040B000611D221F749F3327A00D611D231F849F44
:1040C000600D211D822F762F6A2F11249F5750409B
:1040D0009AF0F1F088234AF0EE0FFF1FBB1F661F16
:1040E000771F881F91505040A9F79E3F510580F0DF
:1040F0000C94CC1F0C9417205F3FE4F3983ED4F34C
:10410000869577956795B795F795E7959F5FC1F782
:10411000FE2B880F911D9695879597F9089519F4B0
:1041200016F40C94D21F0C94F9200E94FC1FB8F3D3
:104130009923C9F3B6F39F57550B87FF0E940721B8
:104140000024A0E640EA900180585695979528F4FF
:10415000805C660F771F881F20F0261737074807F7
:1041600030F4621B730B840B202931294A2BA6954E
:1041700017940794202531254A2758F7660F771F93
:10418000881F20F026173707480730F4620B730B9F
:10419000840B200D311D411DA09581F7B901842F9D
:1041A0009158880F969587950895990F0008550F97
:1041B000AA0BE0E8FEEF16161706E807F907C0F0AD
:1041C00012161306E407F50798F0621B730B840BB5
:1041D000950B39F40A2661F0232B242B252B21F48F
:1041E00008950A2609F4A140A6958FEF811D811D2F
:1041F00008959F3F31F0915020F48795779567950A
:10420000B795880F911D9695879597F908959150C8
:104210005040660F771F881FD2F7089597FB072E2F
:1042200016F4009407D077FD09D00E942F2107FCD7
:1042300005D03EF4909581959F4F089570956195B6
:104240007F4F0895EE0FFF1F0590F491E02D099424
:104250000E946B1EB7FF0895821B930B0895AA1B43
:10426000BB1B51E107C0AA1FBB1FA617B70710F061
:10427000A61BB70B881F991F5A95A9F78095909593
:10428000BC01CD01089581E090E0F8940C944821A0
:1042900010E0C6EDD0E004C0FE010E94222121966C
:0A42A000C73DD107C9F7F894FFCF1E
:1042AA000C12120C00000000F00A010005000100C7
:1042BA00050037002D00010008005A000C0000001C
:1042CA0000006901EF0E0101B00132011001240161
:1042DA00000000002107F106F707CB06E906DA0617
:1042EA00CC06000000003E02EF0EF707F60716059F
:1042FA002A02CD02AC02000000006907EF0EF707A0
:10430A006807BD07D50750077374617274000D0AF8
:10431A000020202054657374204D505054202020D2
:10432A00200025200020204E414450524F55444F32
:10433A0056412020002020204F434852414E41211F
:10434A00212020200056200045005400412000571B
:10435A00007374726964613A0025202020202020AD
:10436A000030006B576820202000202D2D004320AC
:10437A0000572000206D696E2E002B00252020009A
:10438A00456173795472616E73666572004D6F642C
:10439A00627573205254552020004E45202020205B
:1043AA002020202000414E4F2020202020202020A5
:1043BA000053544F5020006B5768002020204E4174
:0C43CA004450524F554421202020000098
:00000001FF
