:100000000C94D7000C94FF000C94FF000C94FA079A
:100010000C94FA070C94FA070C94FF000C94FF0060
:100020000C94FF000C94FF000C94FF000C94FF0054
:100030000C94FF000C94FF000C94FF000C94FF0044
:100040000C9431040C94FF000C940D030C94E70203
:100050000C94FF000C94FF000C94FF000C94FF0024
:100060000C9475050C94FF004E1A511A971ADA1A5F
:10007000361B711BDE1B4B1C8C1CF91C531D000016
:100080000000240027002A000000000800020100F0
:1000900000030407000000000000000053756D61BC
:1000A000207679726F627900756B6C6164616D2E78
:1000B0002E2E0020202A4E4153544156454E492AA7
:1000C000202020002000546F7661726E6920524516
:1000D000534554004D61782E20686F646E6F7479BB
:1000E00000506F6473766963656E69204C43440009
:1000F0004B6F6D756E696B616365004B616C696216
:10010000726163652041004B616C69627261636575
:100110002056004944206D656E6963652F616472E5
:1001200065736100506572696F64612074657374F2
:1001300075205641004D61782E76796B6F6E004DBB
:1001400061782E7465706C6F746100457869740015
:100150004B013F013501240113010701FB00F000B1
:10016000E100D400C600C400B300A8009C00000059
:100170000000250028002B000000000023002600BE
:10018000290004040404040404040202020202021A
:10019000030303030303010204081020408001024B
:1001A00004081020010204081020E620DC2011249D
:1001B0001FBECFEFD8E0DEBFCDBF12E0A0E0B1E0C0
:1001C000EAE9FFE402C005900D92AE3DB107D9F710
:1001D00025E0AEEDB2E001C01D92A13AB207E1F711
:1001E00010E0C6EDD0E004C02197FE010E949325E7
:1001F000C53DD107C9F70E9400130C94C0270C9489
:100200000000FC01538D448D252F30E0842F90E0B9
:10021000821B930B541710F0CF9608950197089501
:10022000FC01918D828D981761F0828DDF01A80FFE
:10023000B11D5D968C91928D9F5F9F73928F90E020
:1002400008958FEF9FEF0895FC01918D828D98178F
:1002500031F0828DE80FF11D858D90E008958FEFCC
:100260009FEF0895FC01918D228D892F90E0805C95
:100270009F4F821B91098F73992708958AE594E017
:100280000E94320121E0892B09F420E0822F089599
:10029000FC01848DDF01A80FB11DA35ABF4F2C9123
:1002A000848D90E001968F739927848FA689B789F2
:1002B0002C93A089B1898C9180648C93938D848DCB
:1002C000981306C00288F389E02D80818F7D80839A
:1002D0000895EF92FF920F931F93CF93DF93EC015A
:1002E00081E0888F9B8D8C8D981305C0E889F989F2
:1002F000808185FD24C0F62E0B8D10E00F5F1F4F0F
:100300000F731127E02E8C8DE8120CC00FB607FC7E
:10031000FACFE889F989808185FFF5CFCE010E9467
:100320004801F1CF8B8DFE01E80FF11DE35AFF4F1D
:10033000F0820B8FEA89FB898081806207C0EE8999
:10034000FF896083E889F98980818064808381E006
:1003500090E0DF91CF911F910F91FF90EF90089562
:10036000CF93DF93EC01888D8823C9F0EA89FB895C
:10037000808185FD05C0A889B9898C9186FD0FC053
:100380000FB607FCF5CF808185FFF2CFA889B98928
:100390008C9185FFEDCFCE010E944801E7CFDF9120
:1003A000CF91089580E090E0892B29F00E943E01D2
:1003B00081110C9400000895833081F028F481307D
:1003C00099F08230A1F008958730A9F08830B9F013
:1003D0008430D1F4809180008F7D03C080918000B3
:1003E0008F7780938000089584B58F7702C084B59D
:1003F0008F7D84BD08958091B0008F7703C0809178
:10040000B0008F7D8093B00008953FB7F89480913D
:10041000AE039091AF03A091B003B091B10326B5A4
:10042000A89B05C02F3F19F00196A11DB11D3FBF2C
:10043000BA2FA92F982F8827820F911DA11DB11DBA
:10044000BC01CD0142E0660F771F881F991F4A95B6
:10045000D1F7089521E001C0220F6A95EAF7DC0187
:100460001C962C931C971A965C934E931997ED91BA
:10047000FC910484F585E02D60E00994DC01ED91A8
:10048000FC910684F785E02D41E0099581E090E03C
:1004900008950895089585ED8093BC008091BC0077
:1004A00084FDFCCF1092310408950E94AB27FC011B
:1004B00023812223B9F09181909569236083828101
:1004C00091E090933204809354041092330410927C
:1004D000550487EF94E00E9421070E94C210282F44
:1004E00030E002C020E030E081E090E0232B11F00A
:1004F00080E090E00895EF92FF920F931F93CF93C7
:100500008C01FC01759684E0C0E060FF02C0908120
:10051000C92B6695815031968111F7CF413011F486
:10052000F8014489F8018585C82BC42B7801FEE0C9
:10053000EF0EF11CF80162896C2BC7010E94570273
:10054000F801628960956C23C701CF911F910F91CB
:10055000FF90EF900C9457020F931F93CF93DF936C
:10056000062F0F70423019F440E0602F10C0142F96
:10057000262FEC0130E0B90184E0759567958A95E6
:10058000E1F7CE010E947B02412F602FCE01DF9167
:10059000CF911F910F910C947B02FC0184858823DD
:1005A000A9F0218532852115310519F4611106C0A4
:1005B00007C02130310521F4611102C0858701C0D7
:1005C00015866585CF010E960C94570208951F92EB
:1005D0000F920FB60F9211242F933F934F935F9377
:1005E0006F937F938F939F93AF93BF93EF93FF93FB
:1005F0008AE594E00E944801FF91EF91BF91AF918D
:100600009F918F917F916F915F914F913F912F912A
:100610000F900FBE0F901F9018951F920F920FB65C
:100620000F9211242F938F939F93EF93FF93E09159
:100630006A04F0916B048081E0917004F091710480
:1006400082FD12C09081809173048F5F8F7320911F
:100650007404821751F0E0917304F0E0E65AFB4F06
:10066000958F8093730401C08081FF91EF919F91DA
:100670008F912F910F900FBE0F901F901895CF93D1
:10068000DF93282F30E0F901E857FF4F8491F901FB
:10069000EA56FE4FD491F901EE57FE4FC491CC2398
:1006A00091F081110E94DC01EC2FF0E0EE0FFF1FB2
:1006B000E858FE4FA591B491EC91ED2381E090E0D4
:1006C00021F480E002C080E090E0DF91CF910895B6
:1006D0001F93CF93DF93282F30E0F901E857FF4FA6
:1006E0008491F901EA56FE4FD491F901EE57FE4F7D
:1006F000C491CC23C9F0162F81110E94DC01EC2F8C
:10070000F0E0EE0FFF1FE259FE4FA591B4918FB7B5
:10071000F894111105C09C91ED2FE095E92302C0DA
:10072000EC91ED2BEC938FBFDF91CF911F9108954A
:10073000CF93DF9390E0FC01EA56FE4F2491FC0139
:10074000EE57FE4F8491882361F190E0880F991F46
:10075000FC01E258FF4FC591D491FC01E259FE4FD4
:10076000A591B491611109C09FB7F8948881209533
:1007700082238883EC912E230BC0623061F49FB7F3
:10078000F8943881822F809583238883EC912E2BD7
:100790002C939FBF06C08FB7F894E8812E2B288337
:1007A0008FBFDF91CF9108958E3008F08E50877003
:1007B000806480937C0080917A00806480937A00CA
:1007C00080917A0086FDFCCF80917800209179009D
:1007D00090E0922B08958F929F92AF92BF92CF920A
:1007E000DF92EF92FF926B017C010E9405024B01A8
:1007F0005C01C114D104E104F104F1F00E9405028E
:10080000DC01CB0188199909AA09BB09883E9340EC
:10081000A105B10570F321E0C21AD108E108F10881
:1008200088EE880E83E0981EA11CB11CC114D1046F
:10083000E104F10419F7DDCFFF90EF90DF90CF9046
:10084000BF90AF909F908F9008952FB7F8946091CC
:10085000AA037091AB038091AC039091AD032FBFBD
:1008600008951F920F920FB60F9211242F933F936A
:100870008F939F93AF93BF938091AA039091AB0303
:10088000A091AC03B091AD033091A90323E0230FF5
:100890002D3720F40196A11DB11D05C026E8230FB8
:1008A0000296A11DB11D2093A9038093AA039093E2
:1008B000AB03A093AC03B093AD038091AE039091D2
:1008C000AF03A091B003B091B1030196A11DB11D7A
:1008D0008093AE039093AF03A093B003B093B103A2
:1008E000BF91AF919F918F913F912F910F900FBE2C
:1008F0000F901F901895DC01ED91FC910684F7850F
:10090000E02D40E0099461E00E947B048BE39FE1CD
:100910000197F1F708950F931F93CF93DF93EC01A5
:10092000423018F08C8188608C834F836887222343
:1009300029F0413019F48C8184608C8364E670E086
:1009400080E090E00E94EB036C8164FD31C0E8819F
:10095000F9810684F785E02D42E063E0CE01099538
:100960008BE496E40197F1F7E881F9810684F78535
:10097000E02D42E063E0CE01099503E512E0C801F5
:100980000197F1F7E881F9810684F785E02D42E0CF
:1009900063E0CE010995C8010197F1F7E881F9817B
:1009A0000684F785E02D42E062E0CE01099517C08C
:1009B0006062CE010E947B048BE496E40197F1F71C
:1009C0006C816062CE010E947B0403E512E0C801E5
:1009D0000197F1F76C816062CE010E947B04C8012F
:1009E0000197F1F76C816062CE010E947B048BEE6F
:1009F00090E00197F1F784E08D836CE0CE010E94D6
:100A00007B04CE010E94830482E08E8366E0CE01E7
:100A10000E947B04E881F9810484F585E02D6FEF65
:100A2000CE01DF91CF911F910F910994EF92FF9228
:100A30000F931F93CF93DF93EC01062FF42EE22E3A
:100A40008B85888B1092820310928103109233045D
:100A5000109255041092310411E01093300410925A
:100A60000B0461E082E10E94680361E083E10E947F
:100A700068038091B9008E7F8093B9008091B9009E
:100A80008D7F8093B90088E48093B80085E48093DB
:100A9000BC0088891093320480935404109233046C
:100AA000109255040E94C21091E0811190E0998B40
:100AB000992329F087EF94E00E94DA068E878989CE
:100AC000882339F01F861C8260E0CE010E960E94BA
:100AD00057022E2D4F2D602FCE01DF91CF911F9108
:100AE0000F91FF90EF900C948B041F920F920FB612
:100AF0000F9211242F933F934F935F936F937F93A4
:100B00008F939F93AF93BF93EF93FF938091B9001F
:100B1000887F803609F49CC068F5883209F45BC090
:100B200090F4803109F454C038F4882309F4F6C0F5
:100B3000883009F44DC0F6C0883109F44CC08032C9
:100B400009F45DC0EFC0803409F468C048F4803314
:100B500009F455C0883309F0E5C080932F04D8C04C
:100B6000803509F44FC0883509F45DC0883409F038
:100B7000D9C0D6C0883909F4C7C0A8F4883709F4A9
:100B800067C038F4883609F463C0803709F460C060
:100B9000C9C0883809F4B8C0803909F45FC080380A
:100BA00009F0C0C05BC0803B09F486C038F4803ACD
:100BB00009F466C0883A09F47FC0B4C0803C09F4E7
:100BC000A7C0883C09F4A4C0883B09F48AC0AAC025
:100BD00080910C0410C090912E0480912D049817E0
:100BE00070F5E0912E0481E08E0F80932E04F0E0EA
:100BF000E35FFB4F80818093BB0085EC86C08093D0
:100C00002F048EC0E0912E0481E08E0F80932E047D
:100C10008091BB00F0E0E35FFB4F808390912E0456
:100C200080912D046EC0E0912E0481E08E0F8093A0
:100C30002E048091BB00F0E0E35FFB4F8083809146
:100C4000300481116DC081E080930B0484EA61C09F
:100C500083E0809331041092A803CFCF8091A80342
:100C6000803208F051C0E091A80381E08E0F80939C
:100C7000A8038091BB00F0E0E857FC4F8083BDCF14
:100C800085EC8093BC00109231048091A8038032DF
:100C900030F4E091A803F0E0E857FC4F1082609137
:100CA000A80370E0E0918603F091870388E893E061
:100CB00009951092A80336C084E080933104109205
:100CC000850310928003E0918303F09184030995DA
:100CD00080918003811105C081E080938003109290
:100CE0006003E091850381E08E0F80938503F0E03F
:100CF000E05AFC4F80818093BB00909185038091E6
:100D00008003981708F479CF85E88093BC000AC067
:100D100085EC8093BC001092310404C010922F0423
:100D20000E944B02FF91EF91BF91AF919F918F91E4
:100D30007F916F915F914F913F912F910F900FBED7
:100D40000F901F90189540918003262F30E0240FBC
:100D5000311D21323105DCF4209131042430C9F4F5
:100D6000FC0180E090E0861758F4309180032191D7
:100D7000DC01A05ABC4FA30FB11D2C930196F3CFF9
:100D800080918003680F6093800380E0089581E084
:100D9000089582E00895089581E090E03091820303
:100DA00020918103321710F480E090E091958195B5
:100DB000910908958091820390918103891730F4FD
:100DC0008F5F8093820380E090E008958FEF9FEF24
:100DD00008958091810390E020918203821B910904
:100DE0000895CF92DF92EF92FF920F931F93CF93CC
:100DF000DF937C01262F972F8A018091320488236C
:100E000091F0C62FD72F6E01C40ED51ECC15DD056F
:100E100071F06991D701ED91FC910190F081E02D85
:100E2000C7010995F3CF642F822F0E94A306C80142
:100E3000DF91CF911F910F91FF90EF90DF90CF90B6
:100E40000895CF93DF931F92CDB7DEB769832091CA
:100E500032042223D1F020915504203240F021E0C9
:100E600030E0FC013383228380E090E015C0809164
:100E70003304E82FF0E0EC5CFB4F998190838F5FA7
:100E8000809333048093550405C061E0CE01019640
:100E90000E94A30681E090E00F90DF91CF9108952A
:100EA00020915804309159042817390771F4909112
:100EB000560480915704981741F0E0915604F0E0F1
:100EC000E553FC4F808190E008958FEF9FEF0895E8
:100ED00008951F93CF93DF93DC015C962D913C9195
:100EE0005D972115310539F481E090E013969C93CC
:100EF0008E9312973DC05196ED91FC91529750966A
:100F00009C915097892F80951FB75E964C915E9764
:100F100041FB772770F941FD6095F8944081772374
:100F200011F0492B01C048234083E9012197F1F7D3
:100F300048E0508160FF02C0592B01C05823508304
:100F4000E9012197F1F76695415099F7772321F050
:100F500090818923808303C08081982B90831FBF59
:100F60005C968D919C915D970197F1F721E030E0BF
:100F7000C901DF91CF911F910895209158043091BC
:100F800059042817390771F48091570420915604A9
:100F900090E0805C9F4F821B910960E470E00E94AA
:100FA0007F25089580E090E00895209158043091C5
:100FB000590428173907B9F49091560480915704C1
:100FC000981789F0E0915604F0E0E553FC4F8081DA
:100FD0002091560430E02F5F3F4F2F73332720932B
:100FE000560490E008958FEF9FEF0895089580E0F4
:100FF00090E008951F920F920FB60F9211242F9335
:101000003F934F935F936F937F938F939F93AF9390
:10101000BF93EF93FF93E0915804F09159043097F8
:1010200009F451C0968DA685B785858591FF04C0CA
:101030009C91892329F447C09C91892309F043C0DE
:10104000A389B4899C918589809589238C9386890D
:1010500097890197F1F7608D718DA685B7855585C4
:1010600038E020E0CB010197F1F7822F90E09595D1
:101070008795282F4C91452309F02068315091F72E
:10108000868D81FD20958091570490E001968F73A5
:10109000992730915604381749F0A0915704B0E0D1
:1010A000A553BC4F2C938093570403C0868D816059
:1010B000868F828D938D0197F1F7A389B4899C91D6
:1010C0008589892B8C93FF91EF91BF91AF919F916F
:1010D0008F917F916F915F914F913F912F910F90E1
:1010E0000FBE0F901F901895E0915804F09159048D
:1010F000E817F90769F4A389B4899C9185898095DB
:1011000089238C93109259041092580481E0089519
:1011100080E008950F931F93CF93DF938C01EB0131
:101120000E941E238883C80101960E941E23898382
:1011300082E090E0DF91CF911F910F910895EF929F
:10114000FF920F931F93CF93DF937C018B01C0E03D
:10115000D0E0F80161918F01CE018E0D9F1D0E949C
:1011600026232196C430D105A1F784E090E0DF91D9
:10117000CF911F910F91FF90EF9008950F931F93C0
:10118000CF93DF93EC018B01FB0160810E9426234A
:10119000F8016181CE0101960E94262382E090E051
:1011A000DF91CF911F910F910895EF92FF920F93CE
:1011B0001F93CF93DF938B010C5F1F4FEB017C01DB
:1011C000E61AF70AC7018C0F9D1F0E941E23899300
:1011D000C017D107B9F784E090E0DF91CF911F915C
:1011E0000F91FF90EF900895CF93DF93A89581E141
:1011F0000E94D403EC016AE070E080E090E00E947D
:10120000EB0381E10E94D4039E01281B390BC90125
:1012100037FF03C09195819591090C97F4F4CE01A5
:10122000875C92408935910510F482E301C08CE31C
:101230009E01295532402336310508F48EE19E0186
:10124000215931402539310508F488E2C35DD109BF
:10125000C935D10518F484E101C08CE3DF91CF9149
:101260000895CF93DF93CDB7DEB765970FB6F894A7
:10127000DEBF0FBECDBF880F991FFC01E05BFE4FA4
:1012800065917491CE0101960E94F321BE016F5FBA
:101290007F4F83E095E00E94E91268E270E080E011
:1012A00090E00E94EB0365960FB6F894DEBF0FBE88
:1012B000CDBFDF91CF91089583E095E00E94830434
:1012C00060E08DE090E00E94B11064EF71E080E09A
:1012D00090E00E94EB03109201030895CF92DF92F9
:1012E000EF92FF9283E095E00E9483048EE090E00D
:1012F0000E94310961E080E00E9477108091DE0257
:101300009091DF02A091E002B091E102803896490D
:10131000A849B10530F46CE572E083E095E00E94E5
:10132000E9128091DE029091DF02A091E002B0917B
:10133000E10280349244AF40B10530F46CE572E0D4
:1013400083E095E00E94E9128091DE029091DF0235
:10135000A091E002B091E102803A9648A140B10527
:1013600030F46CE572E083E095E00E94E912809130
:10137000DE029091DF02A091E002B091E1028031A3
:101380009742A105B10530F46CE572E083E095E089
:101390000E94E9126091DE027091DF028091E0020A
:1013A0009091E10228EEC22E23E0D22EE12CF12C06
:1013B000A70196010E949523BA01A9012AE083E0C2
:1013C00095E00E94991163E772E083E095E00E9446
:1013D000E9126091DE027091DF028091E00290914B
:1013E000E102A70196010E94952324E630E040E047
:1013F00050E00E949523BA01A9012AE083E095E01C
:101400000E94991162EB72E083E095E00E94E9127C
:1014100060910805862F816080930805696083E0EC
:1014200095E0FF90EF90DF90CF900C947B04CF92EB
:10143000DF92EF92FF92CF93DF930E942504609397
:101440000703709308038093090390930A03C090E5
:10145000FD02D090FE02E090FF02F090000320E138
:10146000C20E27E2D21EE11CF11CC616D706E80602
:10147000F90610F410920B0380910B038111E9C05F
:10148000C090C703D090C803E090C903F090CA038E
:101490000E9425046C157D058E059F0568F4A70143
:1014A0009601261B370B480B590BDA01C9018095B1
:1014B0009095A095B09506C0DC01CB018C199D09D3
:1014C000AE09BF098C329140A105B10508F4C1C035
:1014D0000E9425046093C7037093C8038093C903D7
:1014E0009093CA03C090E702D090E802E090E9022E
:1014F000F090EA0220E030E0A901C701B6010E94A5
:10150000FA21811103C088E190E01FC060910801B9
:1015100070910901072E000C880B990B0E94012283
:101520009B01AC01C701B6010E94DB2487FD1BC0F3
:10153000809118019091190104979093190180935B
:10154000180105974CF485E090E090931901809381
:10155000180181E090E002C082E090E090931701D2
:101560008093160176C08091160190911701813009
:10157000910519F0029771F164C02091C303309175
:10158000C4034091C5035091C603C701B6010E9430
:10159000DB24209118013091190187FD0EC02D5FC9
:1015A0003F4F283F31058CF087EF90E09093190171
:1015B0008093180182E090E034C082E090E0909344
:1015C000170180931601225031093093190120939D
:1015D000180137C02091C3033091C4034091C50363
:1015E0005091C603C701B6010E94DB24C0911801C7
:1015F000D091190187FD1AC020E030E0A901C70190
:10160000B6010E94DB2418168CF42297C530D10550
:10161000A4F485E090E0909319018093180181E093
:1016200090E090931701809316010BC081E090E049
:1016300090931701809316012396D0931901C093BC
:101640001801C092C303D092C403E092C503F09284
:10165000C603DF91CF91FF90EF90DF90CF90089578
:101660004F925F926F927F928F929F92AF92BF92B2
:10167000CF92DF92EF92FF920F931F93CF93DF935E
:10168000CDB7DEB764970FB6F894DEBF0FBECDBFFF
:10169000A8958EE480937C0062E070E080E090E0AA
:1016A0000E94EB0380917A00806480937A0080919D
:1016B0007A0086FDFCCF809178002091790030E09F
:1016C000322F2227A901330F660B770B9A01AB014A
:1016D000282B60E070E381E190E00E9434232983AD
:1016E0003A834B835C833093C2032093C103098107
:1016F0001A81B801110F880B990B0E94012269878A
:101700007A878B879C8720E030E04AE754E40E9488
:1017100033246D877E878F87988B6093BD0370938A
:10172000BE038093BF039093C00308EC10E0412CEC
:10173000512C3201C12CD12C7601812C912C5401D9
:101740008FE00E94D403092E000CAA0BBB0BC80E1D
:10175000D91EEA1EFB1E80E10E94D403092E000C54
:10176000AA0BBB0B880E991EAA1EBB1E8EE00E9400
:10177000D403092E000CAA0BBB0B480E591E6A1E7F
:101780007B1E01501109E1F6C501B40128EC30E0DF
:1017900040E050E00E949523298B3A8B4B8B5C8B69
:1017A0003093BC032093BB03C301B20128EC30E0AB
:1017B00040E050E00E94952329013A012D833E83A9
:1017C0004F835887C701B6010E94FF2120E030E017
:1017D00048E453E40E9433246B017C0120E030ECA8
:1017E0004FE754E469857A858B859C850E94332474
:1017F0009B01AC01C701B6010E9460226B017C0114
:1018000069817A8177FF02C06F5F7F4F7595679519
:10181000072E000C880B990B0E9401229B01AC0142
:10182000C701B6010E94C6236B017C0120E030E0B5
:1018300048EC52E40E9433244B015C018091F10298
:101840009091F2026AE070E00E947F25072E000C62
:10185000880B990B0E9401229B01AC01C501B401C8
:101860000E9460229B01AC01C701B6010E94C72300
:101870000E94E0240E94A5246A3071052CF0709328
:10188000EC026093EB0204C01092EC021092EB02A7
:101890008091EB029091EC02803B944024F081E037
:1018A0008093BA0302C01092BA038BE00E943F03F8
:1018B000892B19F481E080930C036091EB02709105
:1018C000EC02072E000C880B990B0E9401226B0181
:1018D0007C0129893A89B901330F880B990B0E9441
:1018E00001222D853E854F8558890E94602220E087
:1018F00030EC4FE754E40E94332421E43AEE40E414
:101900005CE30E9433244B015C0120E030E048ECB2
:1019100052E40E94332469837A838B839C83809171
:10192000EF029091F0026AE070E00E947F25072E9E
:10193000000C880B990B0E9401229B01AC0169816C
:101940007A818B819C810E9460229B01AC01C50140
:10195000B4010E94C7234B015C010E94E0240E9455
:10196000A5247093EE026093ED02A7019601C501D4
:10197000B4010E94602220E030E048EC52E40E9472
:1019800033246093E7027093E8028093E902909316
:10199000EA0266EB72E08AE594E00E94E912C50172
:1019A000B4010E9418126DEB72E08AE594E00E9487
:1019B000E912C701B6010E9418126DEB72E08AE5C8
:1019C00094E00E94E9126091E7027091E802809130
:1019D000E9029091EA020E9418126DEB72E08AE52A
:1019E00094E00E94E91260911801709119018AE552
:1019F00094E00E94E2116DEB72E08AE594E00E94AF
:101A0000E91261EC72E08AE594E00E94EB126FEB60
:101A100072E08AE594E00E94EB128091ED029091D1
:101A2000EE022091F7023091F8022817390754F49A
:101A30009093F8028093F70267EF72E086E190E0FE
:101A40000E94BE088091EB029091EC022091F50279
:101A50003091F6022817390754F49093F6028093D8
:101A6000F50265EF72E088E190E00E94BE08C09048
:101A7000E702D090E802E090E902F090EA0260917B
:101A8000F3027091F402072E000C880B990B0E9450
:101A900001229B01AC01C701B6010E94DB2418168C
:101AA00074F4C701B6010E94A5247093F4026093F8
:101AB000F30263EF72E08AE190E00E94BE083DEF1E
:101AC000431633E053066104710440F085EB91E066
:101AD000A0E0B0E08D839E83AF83B887C090BD0344
:101AE000D090BE03E090BF03F090C003AD81BE81F3
:101AF000BD01BB0F880B990B0E9401224B015C01B9
:101B000020E030EC4FE754E4C701B6010E943324D3
:101B10009B01AC01C501B4010E9460224B015C0134
:101B200020E030E849E055E40E9460222B013C01AE
:101B3000A5019401C701B6010E94C6239B01AC0117
:101B4000C301B2010E9433249B01AC0160E070E04C
:101B50008AEF94E40E94C62321EA34E849E15EE377
:101B60000E9460229B01AC0160EE7FEF87E793E467
:101B70000E94C6230E940A252FEC37EF4BE751E461
:101B80000E94C62321EA34E849E95DE30E94332438
:101B900020E030E048EC51E40E94C7230E94A524D5
:101BA00070930E0360930D03C090B603D090B703FB
:101BB000E090B803F090B9030E9425046093B60347
:101BC0007093B7038093B8039093B9036C197D09A0
:101BD0008E099F090E94FF2120E03AEB4BE55AE471
:101BE0000E9433242091E7023091E8024091E902FB
:101BF0005091EA020E9460222091B2033091B30317
:101C00004091B4035091B5030E94C7236B017C013E
:101C100020E030E040E85FE30E94DB2418164CF03F
:101C2000C092B203D092B303E092B403F092B50332
:101C30003CC020E030E040E85FE3C701B6010E940D
:101C4000C6236093B2037093B3038093B40390935D
:101C5000B5038091020390910303A0910403B09116
:101C600005030196A11DB11D8115E1EE9E07E5EF6B
:101C7000AE07E5E0BE0748F48093020390930303A8
:101C8000A0930403B093050310C0109202031092B6
:101C9000030310920403109205031092E3021092C2
:101CA000E4021092E5021092E60280910203909104
:101CB0000303A0910403B09105034091E302509106
:101CC000E4026091E5027091E6028C019D01041B23
:101CD000150B260B370B043611052105310558F07D
:101CE00021E0209306038093E3029093E402A09303
:101CF000E502B093E60264960FB6F894DEBF0FBE1D
:101D0000CDBFDF91CF911F910F91FF90EF90DF90AA
:101D1000CF90BF90AF909F908F907F906F905F908B
:101D20004F9008950F931F938C018091BA038823DD
:101D300029F1095111090530110514F405E010E0ED
:101D4000109319010093180182E090E0909317011D
:101D50008093160183E095E00E94830460E080E0B8
:101D60000E94771062EC72E083E095E00E94E91235
:101D7000083F110554F007EF10E007C0083F1105B8
:101D8000D4F717FF02C000E010E0F89483E18093DD
:101D9000810084EC99E0909387008093860025E091
:101DA000209FC001219F900D112490938900809362
:101DB00088002BEF2003C001219F900D11248C532C
:101DC000964F90938B0080938A0084B1866084B98B
:101DD00080EB8093800078941F910F910895CF92AB
:101DE000DF92EF92FF921F93CF93DF93D1E015E242
:101DF0000E94F408C82F6CE370E080E090E00E943D
:101E0000EB0384E00E943F03892B79F420910D03BA
:101E100030910E0380911A0190911B012817390708
:101E200024F48091E2028823C9F1109219011092E2
:101E3000180180911801909119010E94920ED0937F
:101E4000320410935404109233041092550460919C
:101E5000100187EF94E00E9421070E94C2100E94A7
:101E60002504C090F902D090FA02E090FB02F090B5
:101E7000FC0220E1C20E27E2D21EE11CF11CC616B4
:101E8000D706E806F90618F4109201030CC0CC330B
:101E900051F4809101038111ABCF05C00E94300B3A
:101EA0000E94170AC6CF0E9425046093F90270931E
:101EB000FA028093FB029093FC0260E570E080E000
:101EC00090E00E94EB038C2FDF91CF911F91FF9048
:101ED000EF90DF90CF900895DC01ED91FC9101909F
:101EE000F081E02D0994CF92DF92EF92FF920F9351
:101EF0001F93CF93DF936C017A018B01C0E0D0E098
:101F0000CE15DF0589F0D8016D918D01D601ED91D7
:101F1000FC910190F081E02DC6010995892B11F407
:101F20007E0102C02196ECCFC701DF91CF911F91B6
:101F30000F91FF90EF90DF90CF900895EF92FF9276
:101F40000F931F93CF93DF93EC017B018A0188816C
:101F50009981009729F02A813B8124173507F8F4ED
:101F6000B8016F5F7F4F0E94E126009759F0998377
:101F700088831B830A832C813D81232B81F4FC0100
:101F800010820DC088819981009711F00E94492626
:101F9000198218821D821C821B821A8207C01D832F
:101FA0000C83B701888199810E94B927CE01DF9106
:101FB000CF911F910F91FF90EF9008951092990586
:101FC000109298051092970510929605109295051B
:101FD000109294058DE991E090939B0580939A056A
:101FE00090918A05963108F057C02DEB30E0309380
:101FF0009505209394052BE931E0309397052093C4
:1020000096052CE231E030939905209398052091B4
:102010006800983050F031E09E3008F430E081E004
:1020200001C0880F3A95EAF701C084E0822B8093C3
:102030006800983038F09E3040F0963148F020E04B
:1020400030E008C02DE630E005C02BE630E002C0ED
:102050002CE630E03093920520939105983030F4CF
:1020600081E001C0880F9A95EAF70EC0292F30E071
:102070009E3018F42850310902C02E50310981E0F9
:1020800001C0880F2A95EAF78093930580919A05FD
:1020900090919B050197F1F7809198059091990592
:1020A000892B21F1809158049091590425E08E37B5
:1020B0009207E1F0009711F00E94740880919C054E
:1020C0008E7F80939C0510925704109256048EE7E1
:1020D00095E09093590480935804E0919105F09114
:1020E0009205908180919305892B80830895CF93E9
:1020F000DF93CDB7DEB728970FB6F894DEBF0FBEDB
:10210000CDBF1D8290E49E8324E12F8324E52887A0
:1021100019829A8390E19B8390E59C8390910A05B4
:10212000691710F06FEF690F40910B05262F30E013
:10213000FE01E20FF31F403121F4943011F491813C
:1021400001C09581682F690F606883E095E028964B
:102150000FB6F894DEBF0FBECDBFDF91CF910C94C8
:102160007B04CF93DF93EC0180E00E94771064E161
:1021700070E080E090E00E94EB03CE01DF91CF9110
:102180000C9431092091550490915404213208F0A7
:102190004AC0809131048111FCCF32E03093310488
:1021A00031E0309330043FEF30932F0410922E042F
:1021B00020932D04A4E3B4E04DE054E0FA013E2F57
:1021C000341B321718F43D913193F9CF10920C045F
:1021D00020910C04990F922B90930C0490910B0476
:1021E000913061F410920B0490910C049093BB0019
:1021F0009091BC0093FDF8CF95EC01C095EE9093C3
:10220000BC00909131049230E1F390912F049F3FF4
:1022100079F080912F04803241F080912F04803337
:1022200031F084E005C081E003C082E001C083E0BA
:102230001092330410925504109232040895FC0158
:102240001182108213821282158214826115710527
:1022500051F0FB0101900020E9F73197AF01461BD7
:10226000570B0C949E0F0895BF92CF92DF92EF927E
:10227000FF920F931F93CF93DF937C016B01EA01D1
:1022800089012417350720F48D2FE901042F182F19
:1022900061EC72E0C7010E941F11D60114968D9166
:1022A0009C911597C817D907C8F58017910708F4AE
:1022B0008C01D601ED91FC911197E00FF11FB080D8
:1022C00010824D915C91BA016C0F7D1F61157105F3
:1022D00061F0FB0101900020E9F73197AF01461B47
:1022E000570BC7010E949E0F13C0F7018081918197
:1022F000009711F00E944926D70111961C921E9258
:1023000015961C921E92149713961C921E92129769
:10231000D601ED91FC91E00FF11FB082C701DF9172
:10232000CF911F910F91FF90EF90DF90CF90BF90D2
:1023300008954F925F926F927F92EF92FF920F9368
:102340001F93CF93DF93CDB7DEB7A1970FB6F89465
:10235000DEBF0FBECDBF7C01FA01CB0119A2223036
:1023600008F42AE08E010F5D1F4F422E512C612C84
:10237000712CBF01A30192010E949523F901CA01AA
:10238000015011096A3014F4605D01C0695CD80124
:102390006C93232B242B252B61F7B801C7010E94D6
:1023A000EB12A1960FB6F894DEBF0FBECDBFDF9142
:1023B000CF911F910F91FF90EF907F906F905F9062
:1023C0004F900895CF92DF92EF92FF920F931F9359
:1023D000CF93DF936B01770FEE08FF08F7FE1BC06A
:1023E000EC016DE20E946C0F8C0144275527BA0165
:1023F0004C195D096E097F092AE0CE010E949911EE
:10240000800F911FDF91CF911F910F91FF90EF905F
:10241000DF90CF9008952AE0B701A601DF91CF9118
:102420001F910F91FF90EF90DF90CF900C94991136
:102430008F929F92AF92BF92CF92DF92EF92FF92D4
:10244000CF93DF936B017C019B01AC010E944A2575
:10245000882319F062ED72E027C046015701E89425
:10246000B7F82FEF3FEF4FE75FE7C501B4010E94D8
:102470004A2581110DC02FEF3FEF4FE75FE7C50100
:10248000B4010E94FA2118161CF466ED72E00CC02B
:102490002FEF3FEF4FE75FE4C701B6010E94DB2457
:1024A000181684F46AED72E08AE594E0DF91CF912A
:1024B000FF90EF90DF90CF90BF90AF909F908F9064
:1024C0000C94EB122FEF3FEF4FE75FECC701B60123
:1024D0000E94FA2187FDE6CF20E030E0A901C70184
:1024E000B6010E94FA2187FF0BC06DE28AE594E0F5
:1024F0000E946C0FEC01F7FAF094F7F8F09402C028
:10250000C0E0D0E02AE037ED43EA5BE3C701B60163
:102510000E94C7234B015C010E94AC246B017C012B
:102520000E94FF219B01AC01C501B4010E94C6239A
:102530004B015C012AE0B701A6018AE594E00E9404
:102540009911C80FD91F6EE28AE594E00E946C0FC2
:10255000C80FD91F20E030E040E251E4C501B401CA
:102560000E9460224B015C010E94AC246B01E12CB3
:10257000F12C2AE0B701A6018AE594E00E949911A6
:10258000C80FD91FC701B6010E94FF219B01AC01F2
:10259000C501B4010E94C62320E030E040E251E4CE
:1025A0000E9460220E94AC24AB0160E070E02AE04F
:1025B0008AE594E00E9499118C0F9D1FDF91CF91C5
:1025C000FF90EF90DF90CF90BF90AF909F908F9053
:1025D00008950C94EB126115710579F0FB010190DF
:1025E0000020E9F73197AF01461B570BDC01ED9155
:1025F000FC910280F381E02D099480E090E0089541
:10260000CF93DF93CDB7DEB763970FB6F894DEBFF5
:102610000FBECDBF789484B5826084BD84B58160DF
:1026200084BD85B5826085BD85B5816085BD80919D
:102630006E00816080936E00109281008091810015
:10264000826080938100809181008160809381000D
:10265000809180008160809380008091B1008460CF
:102660008093B1008091B00081608093B000809130
:102670007A00846080937A0080917A0082608093EF
:102680007A0080917A00816080937A0080917A004C
:10269000806880937A001092C10099E288E10FB6B9
:1026A000F894A895809360000FBE90936000A89561
:1026B00061E084E10E94980360E084E10E94680385
:1026C00061E085E10E94980360E085E10E94680373
:1026D00061E082E00E94980360E082E00E9468036B
:1026E00061E083E00E94980360E083E00E94680359
:1026F00065E473E08CEF93E00E94D5088091450378
:1027000090914603A0914703B09148038A3A9241C1
:10271000A840B14709F47CC064E171E082E090E038
:102720000E94BE0862E171E086E090E00E94BE086F
:102730006FE473E088E090E00E949F086CE171E034
:102740008CE090E00E94BE086AE171E08EE090E0CB
:102750000E94BE0868E071E080E190E00E94BE083F
:102760006CE071E082E190E00E94BE086AE071E0F6
:1027700084E190E00E94BE0867EF72E086E190E09D
:102780000E94BE0865EF72E088E190E00E94BE08FA
:1027900063EF72E08AE190E00E94BE086FEE72E0A3
:1027A0008CE190E00E94BE0861EF72E08EE190E063
:1027B0000E94BE086EE071E080E290E00E94BE08D8
:1027C00060E171E082E290E00E94BE0862E073E0A6
:1027D00080911401909115010E949F0863E573E0B8
:1027E00080911201909113010E949F088AEA92E160
:1027F000A8E0B1E78093450390934603A093470375
:10280000B093480365E473E08CEF93E00E949F0867
:1028100064E171E082E090E00E948A0862E171E088
:1028200086E090E00E948A086FE473E088E090E020
:102830000E94D5086CE171E08CE090E00E948A086B
:102840006AE171E08EE090E00E948A0868E071E041
:1028500080E190E00E948A086CE071E082E190E003
:102860000E948A086AE071E084E190E00E948A0890
:1028700067EF72E086E190E00E948A0865EF72E0FF
:1028800088E190E00E948A0863EF72E08AE190E0BC
:102890000E948A086FEE72E08CE190E00E948A0844
:1028A00061EF72E08EE190E00E948A086EE071E0D4
:1028B00080E290E00E948A0860E171E082E290E0AC
:1028C0000E948A0862E073E08091140190911501E2
:1028D0000E94D50863E573E0809112019091130185
:1028E0000E94D5088091020390910303A0910403F4
:1028F000B09105038093E3029093E402A093E50274
:10290000B093E60260E08BE00E94980361E087E00C
:102910000E94980360E087E00E94680361E08DE018
:102920000E94980361E08DE00E94980360E08DE0D2
:102930000E94680362E085E00E94980362E084E000
:102940000E949803E0916A04F0916B0482E0808316
:10295000E0916604F09167041082E0916804F091C0
:10296000690480E1808310927204E0916E04F0911A
:102970006F0486E08083E0916C04F0916D048081A7
:1029800080618083E0916C04F0916D0480818860A7
:102990008083E0916C04F0916D0480818068808375
:1029A000E0916C04F0916D0480818F7D80830E94A2
:1029B000DE0F8FE093E0909336038093350384E23B
:1029C000809337030EE715E010933403009333032D
:1029D00084E290E00E94B4259093390380933803F9
:1029E00010931F0500931E050E94DE0F80912205A3
:1029F000823040F061E00E94980360E080912205FF
:102A00000E94680380911E0590911F05DC01ED91E5
:102A1000FC910284F385E02D099597FFF3CF109286
:102A200065051092660510926E0510926D05109264
:102A30006C0510926B0510926A05109269058091E1
:102A40001C019FEF980F973F10F4809320056CE3D3
:102A500070E080E090E00E94EB0320E042E060E163
:102A600083E095E00E94160568E483E095E00E940B
:102A70007B0483E790E00197F1F700E011E08BE938
:102A8000C82ED12C98E0F92EF00EF80161918F013B
:102A900083E095E00E943E02C6010197F1F7F01233
:102AA000F4CFE0910305F09104050484F585E02D51
:102AB0006FEF83E095E009950E94F408082E000C62
:102AC000990B90934E0380934D034E9709F051C19B
:102AD00060ED77E080E090E00E94EB030E94F40854
:102AE000082E000C990B90934E0380934D034E9744
:102AF00009F03FC181E080930103209110013091E2
:102B0000110130934B0320934A032AE030E03093C5
:102B10001101209310018093E202C0900203D09033
:102B20000303E0900403F0900503C092DE02D0920C
:102B3000DF02E092E002F092E102C701B60120E874
:102B400036E948E950E00E9495232983E0E48E2E7F
:102B5000E2E49E2EEFE0AE2EB12CA50194010E947E
:102B600095232A83C701B601A50194010E949523EC
:102B7000F0EA8F2EF6E89F2EAA24A394B12CA5018B
:102B800094010E9495232B83C701B601A5019401EE
:102B90000E949523A0E18A2EA7E29A2EA12CB12CA7
:102BA000A50194010E9495232C83C701B601A501BC
:102BB00094010E949523B8EE8B2EB3E09B2EA12C9E
:102BC000B12CA50194010E9495232D83C701B60164
:102BD000A50194010E94952324E630E040E050E0F6
:102BE0000E9495232F830E946E0968EE73E080E0B7
:102BF00090E00E94EB0306E010E00E946E0961E0A5
:102C0000802F0E9477100E94EF0E80934903883234
:102C100039F0823309F471C08E3109F092C00DC0D1
:102C2000015011090530110529F017FF8AC006E08F
:102C300010E087C004E010E084C0E1E0F0E0EC0FB9
:102C4000FD1FE00FF11F808190E001968A30910511
:102C500014F080E090E0E1E0F0E0EC0FFD1FE00F09
:102C6000F11F8083FC81ED81A981B0E020EA36E884
:102C700041E050E00E9453236B017C018A81282FA0
:102C800030E0A0E1B7E20E94B723C60ED71EE81ECF
:102C9000F91E2B8130E0A8EEB3E00E94B723C60EE8
:102CA000D71EE81EF91E2F2F30E0A4E6B0E00E94E8
:102CB000B723C60ED71EE81EF91E2E2F30E0AAE05D
:102CC000B0E00E94B723AB01BC014C0D5D1D6E1D31
:102CD0007F1D8F819A01AB01280F311D411D511DB0
:102CE000A4E6B0E00E9453236093DE027093DF02FB
:102CF0008093E0029093E10224C08091DE029091E3
:102D0000DF02A091E002B091E10280930203909370
:102D10000303A0930403B0930503609108056E7F3D
:102D200060930805686083E095E00E947B0462E0A0
:102D300073E080911401909115010E949F080E94F8
:102D40005C0980910103811158CF609108056E7F65
:102D500060930805686083E095E00E947B04109210
:102D6000E20280914A0390914B039093110180936A
:102D7000100160E080E00E9477106EE671E083E071
:102D800095E00E94E91261E080E00E9477106FE711
:102D900071E083E095E00E94E91264EC79E080E064
:102DA00090E00E94EB0383E095E00E948304A895E5
:102DB00060E080E00E94771060E971E083E095E0D8
:102DC0000E94E91261E080E00E94771061EA71E000
:102DD00083E095E00E94E91260ED77E080E090E00A
:102DE0000E94EB0383E095E00E948304A89562EBC8
:102DF00071E0CE010E960E941F116FED71E0CE01C1
:102E000008960E941F1100E010E08A899B890F97A5
:102E10000817190708F048C060E080E00E947710AA
:102E20007801FFE0EF0EF11C9701A801BE01625F7F
:102E30007F4FCE0101960E9434114D815E816981E0
:102E40007A8183E095E00E94730F89819A810E94C4
:102E5000492661E080E00E9477109701A801BE0139
:102E6000685F7F4FCE0101960E9434114D815E81D3
:102E700069817A8183E095E00E94730F89819A814C
:102E80000E9449260115110529F460ED77E080E0E4
:102E900090E004C064E670E080E090E00E94EB0304
:102EA000A8950F5F1F4FB1CF64EC79E080E090E010
:102EB0000E94EB0361E08CE00E94680361E08CE01B
:102EC0000E9498036AE070E080E090E00E94EB03CB
:102ED00060E08CE00E949803888599850E944926CD
:102EE0008E859F850E94492658E0252E312C64E668
:102EF000A62EB12C0E94300B84E00E943F03892B48
:102F000061F420910D0330910E0380911A0190918C
:102F10001B01281739070CF491C610921901109261
:102F2000180180911801909119010E94920E6AE097
:102F300070E080E090E00E94EB030E9425042B01EA
:102F40003C018091410390914203A0914303B091D1
:102F5000440373016201C81AD90AEA0AFB0A20E293
:102F6000C21623E0D206E104F10408F415C160E0C2
:102F700080E00E9477108091ED029091EE020A9716
:102F80008A35910530F460EB71E083E095E00E94B2
:102F9000E9128091ED029091EE020A9734F46FEA03
:102FA00071E083E095E00E94E9126091ED0270917A
:102FB000EE0283E095E00E94E21160E472E083E0BB
:102FC00095E00E94E91260E085E00E94771084E0BD
:102FD0000E943F03892B69F420910D0330910E0369
:102FE00080911A0190911B012817390714F40C9451
:102FF000AB206CEA72E083E095E00E94E91284E085
:103000000E943F03892B31F063E472E083E095E096
:103010000E94E91220910D0330910E0380911A0154
:1030200090911B012817390734F065E472E083E0C2
:1030300095E00E94E91260E08BE00E947710C0905A
:10304000E702D090E802E090E902F090EA0220E086
:1030500030E04AE754E4C701B6010E94FA2187FD37
:1030600061C7C090E702D090E802E090E902F090DA
:10307000EA0220E030E048EC52E4C701B6010E94C9
:10308000FA2187FD61C720E030E040E251E4609121
:10309000E7027091E8028091E9029091EA020E94B1
:1030A000FA2187FF06C06EEA71E083E095E00E9496
:1030B000E9126091E7027091E8028091E902909133
:1030C000EA020E94A52483E095E00E94E2116AE4EE
:1030D00072E083E095E00E94E91280910B0361E0C9
:1030E000882309F443C780E00E9477106CE472E003
:1030F00083E095E00E94E912609118017091190136
:10310000072E000C880B990B0E94012220E030E072
:1031100040E250E40E9433240E94A5246A307105E5
:1031200034F460EB71E083E095E00E94E912609175
:10313000180170911901072E000C880B990B0E9441
:10314000012220E030E040E250E40E9433240E945B
:10315000A52483E095E00E94E21164E572E083E03B
:1031600095E00E94E91281E08093320485E2809329
:10317000540410923304109255046AE087EF94E0EF
:103180000E9421070E94C2104092410350924203C4
:10319000609243037092440380910B03811106C037
:1031A00064E670E080E090E00E94EB030E9425045A
:1031B00060930703709308038093090390930A03B5
:1031C00000915B0310915C0320915D0330915E03DD
:1031D0006B017C01C01AD10AE20AF30A40E8C41666
:1031E0004EEED40646E3E406F10458F021E02093C5
:1031F000060360935B0370935C0380935D0390937D
:103200005E030E9425042B013C0160930703709329
:1032100008038093090390930A03809157039091C8
:103220005803A0915903B0915A0373016201C81A5F
:10323000D90AEA0AFB0A28EEC21623E0D206E10404
:10324000F104B0F061E08DE00E9468036EE170E08F
:1032500080E090E00E94EB0360E08DE00E94680354
:1032600040925703509258036092590370925A0348
:1032700080910603882309F4A2C0109206031982E4
:103280001A821B821C82BE016F5F7F4F80911401E6
:10329000909115010E94D50849815A816B817C81EA
:1032A0008091020390910303A0910403B091050360
:1032B000481759076A077B0709F481C062E073E089
:1032C00080911401909115010E949F0880915303F1
:1032D00090915403A0915503B09156030196A11DFE
:1032E000B11D8093530390935403A0935503B0935F
:1032F000560363E573E080911201909113010E94DF
:103300009F088091530390915403A0915503B0916D
:10331000560340914F0350915003609151037091B7
:103320005203841B950BA60BB70B80399F45A14018
:10333000B10508F444C080911401909115010A96DA
:1033400090931501809314018091120190911301C3
:103350000A96909313018093120164E171E082E078
:1033600090E00E94BE0862E171E086E090E00E9479
:10337000BE088091530390915403A0915503B091DE
:10338000560380934F0390935003A0935103B0933F
:1033900052036FE473E088E090E00E949F0862E0CF
:1033A00073E080911401909115010E949F0863E5DC
:1033B00073E080911201909113010E949F080E9476
:1033C000F408082E000C990B90934E0380934D0344
:1033D000C29729F481E08093010310924C038091FD
:1033E0000103882309F4C4C30E9425046093F902F1
:1033F0007093FA028093FB029093FC02809110017B
:103400009091110190934B0380934A0388E1882E99
:103410009EE0992EEE24E394F12C62E370E080E0CC
:1034200090E00E94EB0383E095E00E9483044AE071
:1034300050E050931101409310018CE090E00E9405
:10344000310980914C0361E090E00E94B11068EC7A
:1034500070E080E090E00E94EB030E94EF0E80930A
:1034600049038E3119F0883261F072C380914C03A8
:103470008F5F8B3018F480934C036AC310924C0317
:1034800067C3E0914C038E2F90E08B30910508F0DC
:103490005FC3FC01EC5CFF4F0C9493251092010379
:1034A00057C300911A0110911B0183E095E00E941F
:1034B000830480914C0360E090E00E94B11061E0D1
:1034C00080E00E947710B80183E095E00E94E2114D
:1034D00061E083E095E00E943E0269E672E083E0ED
:1034E00095E00E94E9120E94EF0E809349038E310D
:1034F00079F08832B9F410931B0100931A016AE144
:1035000071E08EE090E00E94BE080E945C090AC053
:10351000083211053CF00F5F1F4F0B35110514F0F9
:1035200008E210E0809101038111BFCF11C3009127
:1035300008011091090183E095E00E9483048091C5
:103540004C0360E090E00E94B11061E080E00E94D6
:103550007710B80183E095E00E94E2116CE672E01A
:1035600083E095E00E94E9120E94EF0E80934903E8
:103570008E3179F08832C9F4109309010093080163
:1035800068E071E080E190E00E94BE080E945C0962
:103590000CC0083E53E0150744F00C591F4F013F83
:1035A0008AE0180714F008EE13E0809101038111FE
:1035B000C2CFCEC200910C0110910D0183E095E0C5
:1035C0000E94830480914C0360E090E00E94B1105F
:1035D00061E080E00E9477100A30110530F460EB62
:1035E00071E083E095E00E94E912B80183E095E084
:1035F0000E94E2116FE672E083E095E00E94E9121A
:103600000E94EF0E809349038E3119F0883259F0F1
:1036100028C017FD26C00B5F1F4F0D3311050CF19D
:1036200000E010E01EC010930D0100930C01011585
:10363000110529F410920B0110920A0104C0F092B6
:103640000B01E0920A016AE071E084E190E00E94DF
:10365000BE086CE071E082E190E00E94BE080E942A
:103660005C09809101038111A9CF72C200911C01F4
:1036700010911D0183E095E00E94830480914C032A
:1036800060E090E00E94B11061E081E00E9477105C
:10369000B80183E095E00E94E2110E94EF0E809352
:1036A00049038E3179F08832B9F410931D010093EB
:1036B0001C016CE171E08CE090E00E94BE080E9469
:1036C0005C090AC00A3011053CF00F5F1F4F05313D
:1036D000110514F00AE010E0809101038111CACFB6
:1036E00037C20091EF021091F00283E095E00E9452
:1036F000830480914C0360E090E00E94B11061E08F
:1037000081E00E947710101611061CF465E772E044
:103710000CC00115110519F460EB71E006C00B3FF8
:103720009FEF190731F467E672E083E095E00E94AD
:10373000E912C8016AE070E00E947F253C0183E045
:1037400095E00E94E21163E772E083E095E00E9459
:10375000E912B30177FE03C071956195710983E0A9
:1037600095E00E94E21167E772E083E095E00E9435
:10377000E9120E94EF0E809349038E3179F088326E
:10378000C1F41093F0020093EF026FEE72E08CE14F
:1037900090E00E94BE080E945C090BC00E3CAFEF97
:1037A0001A073CF00B5F1F4F0333110514F00EECAA
:1037B0001FEF80910103811198CFCAC10091F102DE
:1037C0001091F20283E095E00E94830480914C0303
:1037D00060E090E00E94B11061E081E00E9477100B
:1037E000101611061CF465E772E00CC001151105F6
:1037F00019F460EB71E006C00B3FBFEF1B0731F41B
:1038000067E672E083E095E00E94E912C8016AE091
:1038100070E00E947F253C0183E095E00E94E21168
:1038200063E772E083E095E00E94E912B30177FE5E
:1038300003C071956195710983E095E00E94E211E2
:1038400067E772E083E095E00E94E9120E94EF0EC4
:10385000809349038E3179F08832C1F41093F202DB
:103860000093F10261EF72E08EE190E00E94BE08E9
:103870000E945C090BC00E3CEFEF1E073CF00B5F93
:103880001F4F0333110514F00EEC1FEF809101035D
:10389000811198CF5DC100910E0110910F0183E05D
:1038A00095E00E94830480914C0360E090E00E94C8
:1038B000B11061E080E00E9477100130110519F429
:1038C0006BE772E002C068E872E083E095E00E9476
:1038D000E9120E94EF0E809349038E3179F088320D
:1038E000B1F410930F0100930E016EE071E080E2DD
:1038F00090E00E94BE080E945C0909C017FD07C045
:10390000012B19F401E010E002C000E010E080910A
:1039100001038111C4CF1CC160E171E082E290E03B
:103920000E948A08009110011091110183E095E036
:103930000E94830480914C0360E090E00E94B110EB
:1039400061E081E00E947710B80183E095E00E9479
:10395000E2110E94EF0E809349038E3199F0883274
:10396000F1F4109311010093100110934B03009395
:103970004A0360E171E082E290E00E94BE080E948A
:103980005C090DC017FD07C00F5F1F4F0B301105FD
:1039900014F000E010E010931101009310018091E9
:1039A00001038111C3CFD4C08233F1F41092F80225
:1039B0001092F7021092F6021092F5021092F402A1
:1039C0001092F30267EF72E086E190E00E94BE0879
:1039D00065EF72E088E190E00E94BE0863EF72E05C
:1039E0008AE190E00E94BE0880910103882309F4D7
:1039F000AFC083E095E00E94830480914C0360E0B7
:103A000090E00E94B11061E080E00E947710609128
:103A1000F7027091F80283E095E00E94E21160E401
:103A200072E083E095E00E94E9128091F5029091A6
:103A3000F602B5010E947F2583E095E00E94E21125
:103A400063E772E083E095E00E94E9128091F5025D
:103A50009091F602B5010E947F256AE070E00E9415
:103A60007F2583E095E00E94E21167E472E083E045
:103A700095E00E94E9126091F3027091F40283E0F4
:103A800095E00E94E2116AE472E083E095E00E9412
:103A9000E9120E94EF0E80934903883209F084CF27
:103AA00010920103A1CF01E010E083E095E00E94B5
:103AB000830480914C0360E090E00E94B11061E0CB
:103AC00080E00E9477100130110519F465E972E079
:103AD00002C060EA72E083E095E00E94E9120E9471
:103AE000EF0E809349038E3119F0883249F02CC0D3
:103AF00081E00130110509F480E0082F10E024C0B6
:103B00001092010301151105E9F41092450310927A
:103B10004603109247031092480365E473E08CEF6C
:103B200093E00E949F080FB6F894A89580926000D9
:103B30000FBE9092600060ED77E080E090E00E9420
:103B4000EB0302C001E010E0809101038111ADCFD1
:103B500083E095E00E9483048091010381115DCC94
:103B600080914A0390914B0390931101809310012F
:103B700084E00E943F03892B09F05DC000914D0352
:103B800010914E030E311105E1F4809118019091CE
:103B900019010196909319018093180181E0809397
:103BA0000B030E9425046093FD027093FE02809334
:103BB000FF02909300036FE070E080E090E00E94CD
:103BC000EB038091180190911901883F910534F120
:103BD00087EF90E090931901809318010832110546
:103BE00051F5809118019091190101979093190155
:103BF0008093180181E080930B030E942504609359
:103C0000FD027093FE028093FF02909300036FE029
:103C100070E080E090E00E94EB0303C008321105E1
:103C200001F38091180190911901089724F43092C2
:103C30001901209218010E94D2015CC90E94170A42
:103C400080910A0190910B01892B09F402C10E9415
:103C500025046093070370930803809309039093EE
:103C60000A0300913D0310913E0320913F033091E0
:103C700040032B013C01401A510A620A730AA091C9
:103C80000C01B0910D0120E63AEE0E9499254616EE
:103C900057066806790608F4DCC0809118019091F7
:103CA0001901C3978638910508F0D3C080910B03A2
:103CB0008111CFC01092E7021092E8021092E9023F
:103CC0001092EA0283E095E00E94830460E080E0C5
:103CD0000E9477106CE072E083E095E00E94E912A8
:103CE000812C912C00E010E04AE0E42EF12C609150
:103CF000080170910901072E000C880B990B0E9496
:103D000001229B01AC016091E7027091E802809171
:103D1000E9029091EA020E94FA2187FF72C0F092B4
:103D20001901E0921801C7010E94920E61E080E043
:103D30000E9477106091180170911901072E000CF4
:103D4000880B990B0E94012220E030E040E250E411
:103D50000E9433240E94A5246A30710534F460EB7C
:103D600071E083E095E00E94E91260911801709182
:103D70001901072E000C880B990B0E94012220E0EC
:103D800030E040E250E40E9433240E94A52483E006
:103D900095E00E94E2116DE172E083E095E00E94FF
:103DA000E9126AE070E080E090E00E94EB030E947C
:103DB000300B4090E7025090E8026090E90270906A
:103DC000EA02B801012E000C880B990B0E94012217
:103DD0009B01AC01C301B2010E94DB2418164CF414
:103DE000C301B2010E94A5248B018090180190901C
:103DF000190125E0E20EF11C3AEFE316F10409F097
:103E000076CFB801110F880B990B0E9401226093A5
:103E1000E7027093E8028093E9029093EA0290929D
:103E200019018092180164EF71E080E090E00E9437
:103E3000EB038091070390910803A0910903B091CF
:103E40000A0380933D0390933E03A0933F03B093F6
:103E5000400380910C03882309F463C883E095E054
:103E60000E94830460E080E00E94771060E272E0CC
:103E700083E095E00E94E91261E080E00E94771003
:103E800060E372E083E095E00E94E91280915F03B5
:103E90008530A0F5309219012092180181E090E060
:103EA000909317018093160188E090E00E94920E93
:103EB00000E110E068EE73E080E090E00E94EB0328
:103EC000A89501501109B1F761E08CE00E946803E8
:103ED00061E08CE00E9498036AE070E080E090E08E
:103EE0000E94EB0360E08CE00E94980310920C03A8
:103EF00080915F038F5F80935F0313C81092190155
:103F00001092180180E090E00E94920E0FB6F89493
:103F1000A895809160008861809360001092600095
:103F20000FBEFFCF20E030E046EC52E4C701B601FF
:103F30000E94DB2418160CF094C860EB71E083E05B
:103F400095E00E94E9128DC820E030E040E151E4A4
:103F5000C701B6010E94DB2418160CF094C86FEA62
:103F600071E083E095E00E94E9128DC880E00E9434
:103F700077108091020390910303A0910403B09104
:103F8000050380389649A849B10530F460EB71E02B
:103F900083E095E00E94E91280910203909103036F
:103FA000A0910403B091050380349244AF40B10561
:103FB00030F460EB71E083E095E00E94E9128091BB
:103FC000020390910303A0910403B0910503803A8A
:103FD0009648A140B10530F460EB71E083E095E0D4
:103FE0000E94E9128091020390910303A0910403BF
:103FF000B091050380319742A105B10530F460EB23
:1040000071E083E095E00E94E912609102037091F3
:104010000303809104039091050338EEC32E33E02F
:10402000D32EE12CF12CA70196010E949523BA0111
:10403000A9012AE083E095E00E94991163E772E00C
:1040400083E095E00E94E9126091020370910303FE
:104050008091040390910503A70196010E94952386
:10406000643671058105910530F46CE572E083E0FA
:1040700095E00E94E9126091020370910303809120
:1040800004039091050328EE33E040E050E00E94E5
:1040900095232AE030E040E050E00E949523BA01E9
:1040A000A9012AE083E095E00E9499116EE572E093
:1040B00083E095E00E94E91261E08BE00E947710B6
:1040C00080910D0390910E030A978A35910530F483
:1040D00060EB71E083E095E00E94E91280910D03AE
:1040E00090910E030A9730F46FEA71E083E095E057
:1040F0000E94E91260910D0370910E03CB010197AC
:104100008837910558F061E08BE00E94771065E6F2
:1041100072E083E095E00E94E91204C083E095E03C
:104120000E94E21161E083E095E00E943E0269E6B0
:1041300072E083E095E00E94E91281E0809332040E
:1041400085E28093540410923304109255046091D8
:1041500010010C94BE188091EB029091EC02883E05
:10416000934034F460EB71E083E095E00E94E91243
:104170008091EB029091EC02B5010E947F2583E0D3
:1041800095E00E94E21163E772E083E095E00E940F
:10419000E9128091EB029091EC02B5010E947F251B
:1041A0006AE070E00E947F2583E095E00E94E211C2
:1041B00067E472E00C94171880E691E090937F0515
:1041C00080937E058EE795E00C94740810925D0450
:1041D00010925C0488EE93E0A0E0B0E080935E046F
:1041E00090935F04A0936004B093610428E231E0EF
:1041F00030935B0420935A0425EC30E0309367043D
:104200002093660424EC30E0309369042093680422
:1042100020EC30E030936B0420936A0421EC30E012
:1042200030936D0420936C0422EC30E030936F04E3
:1042300020936E0426EC30E03093710420937004D8
:104240001092730410927404109275041092760404
:104250001092FA041092F9048093FB049093FC04EA
:10426000A093FD04B093FE042AE331E03093F804F8
:104270002093F704109281051092800580938205A7
:1042800090938305A0938405B093850580E691E023
:1042900090937F0580937E0510929505109294056A
:1042A0001092970510929605109299051092980514
:1042B00010929B0510929A0560919C056E7F6D7F10
:1042C00060939C056695617081E0682786E00E9496
:1042D000680361E086E00E949803ECE9F1E0E49174
:1042E000E0938E05E8E8F1E0E491F0E0EE0FFF1FC7
:1042F000E259FE4F859194919093900580938F059C
:1043000060E088E00E94980380919C0581FD04C0D4
:1043100061E088E00E94680388E080938A05EEE906
:10432000F1E0E491E0938B05EAE8F1E0E491F0E05C
:10433000EE0FFF1FE858FE4F8591949190938D05E5
:1043400080938C0580911C018093200584E08093EC
:10435000210597E09093220528EE33E03093700515
:1043600020936F051092790510927A0510927B05C3
:1043700010927C0510920605109205052CE431E0A0
:104380003093040520930305109213059FEF90933B
:104390001205109211051092140597E290930E05E4
:1043A00010920F051092100510920D0510920C0539
:1043B0008093150582E08093160581E080931705B0
:1043C00080E18093180580E28093190580E4809352
:1043D0001A0580E880931B0540E050E063E083E02D
:1043E00095E00C942A02FB01DC0105900D9200205F
:1043F000E1F708950E943C2208F481E00895E894D2
:1044000009C097FB3EF490958095709561957F4F1C
:104410008F4F9F4F9923A9F0F92F96E9BB279395CA
:10442000F695879577956795B795F111F8CFFAF4DA
:10443000BB0F11F460FF1BC06F5F7F4F8F4F9F4F0B
:1044400016C0882311F096E911C0772321F09EE869
:10445000872F762F05C0662371F096E8862F70E0CF
:1044600060E02AF09A95660F771F881FDAF7880FA9
:104470009695879597F90895990F0008550FAA0BFF
:10448000E0E8FEEF16161706E807F907C0F0121667
:104490001306E407F50798F0621B730B840B950B6A
:1044A00039F40A2661F0232B242B252B21F40895BF
:1044B0000A2609F4A140A6958FEF811D811D08955C
:1044C0000E9473220C94E4220E94D62238F00E94AB
:1044D000DD2220F0952311F00C94CD220C94D322F0
:1044E00011240C9418230E94F52270F3959FC1F3B8
:1044F000950F50E0551F629FF001729FBB27F00D92
:10450000B11D639FAA27F00DB11DAA1F649F6627E6
:10451000B00DA11D661F829F2227B00DA11D621F35
:10452000739FB00DA11D621F839FA00D611D221FEF
:10453000749F3327A00D611D231F849F600D211DD3
:10454000822F762F6A2F11249F5750409AF0F1F056
:1045500088234AF0EE0FFF1FBB1F661F771F881FBF
:1045600091505040A9F79E3F510580F00C94CD2208
:104570000C9418235F3FE4F3983ED4F38695779527
:104580006795B795F795E7959F5FC1F7FE2B880F65
:10459000911D9695879597F9089597F99F6780E8FB
:1045A00070E060E008959FEF80EC089500240A9485
:1045B0001616170618060906089500240A941216FE
:1045C0001306140605060895092E0394000C11F431
:1045D000882352F0BB0F40F4BF2B11F460FF04C0DE
:1045E0006F5F7F4F8F4F9F4F089557FD9058440F37
:1045F000551F59F05F3F71F04795880F97FB991F42
:1046000061F09F3F79F087950895121613061406FE
:10461000551FF2CF4695F1DF08C01616170618068B
:10462000991FF1CF86957105610508940895E89466
:10463000BB2766277727CB0197F90895F999FECF15
:1046400092BD81BDF89A992780B50895262FF999D2
:10465000FECF1FBA92BD81BD20BD0FB6F894FA9A65
:10466000F99A0FBE01960895052E97FB1EF400944B
:104670000E944B2357FD07D00E94952307FC03D0CF
:104680004EF40C944B2350954095309521953F4F17
:104690004F4F5F4F089590958095709561957F4F2E
:1046A0008F4F9F4F08950E94B723A59F900DB49FF1
:1046B000900DA49F800D911D112408952F923F927B
:1046C0004F925F926F927F928F929F92AF92BF9222
:1046D000CF92DF92EF92FF920F931F93CF93DF93CE
:1046E000CDB7DEB7CA1BDB0B0FB6F894DEBF0FBE2B
:1046F000CDBF09942A88398848885F846E847D8478
:104700008C849B84AA84B984C884DF80EE80FD8079
:104710000C811B81AA81B981CE0FD11D0FB6F894EF
:10472000DEBF0FBECDBFED010895A1E21A2EAA1B78
:10473000BB1BFD010DC0AA1FBB1FEE1FFF1FA21751
:10474000B307E407F50720F0A21BB30BE40BF50B4E
:10475000661F771F881F991F1A9469F760957095D7
:10476000809590959B01AC01BD01CF010895A29F5A
:10477000B001B39FC001A39F700D811D1124911D35
:10478000B29F700D811D1124911D08955058BB27B3
:10479000AA270E94DE230C94E4220E94D62238F03D
:1047A0000E94DD2220F039F49F3F19F426F40C9486
:1047B000D3220EF4E095E7FB0C94CD22E92F0E9462
:1047C000F52258F3BA17620773078407950720F09C
:1047D00079F4A6F50C9417230EF4E0950B2EBA2F5E
:1047E000A02D0B01B90190010C01CA01A0011124F7
:1047F000FF27591B99F0593F50F4503E68F11A16A3
:10480000F040A22F232F342F4427585FF3CF469533
:1048100037952795A795F0405395C9F77EF41F1655
:10482000BA0B620B730B840BBAF09150A1F0FF0F1F
:10483000BB1F661F771F881FC2F70EC0BA0F621F0B
:10484000731F841F48F4879577956795B795F795FB
:104850009E3F08F0B0CF9395880F08F09927EE0F90
:104860009795879508950E9447240C94E4220E940E
:10487000DD2258F00E94D62240F029F45F3F29F053
:104880000C94CD2251110C9418230C94D3220E9425
:10489000F52268F39923B1F3552391F3951B550B3A
:1048A000BB27AA2762177307840738F09F5F5F4F03
:1048B000220F331F441FAA1FA9F335D00E2E3AF042
:1048C000E0E832D091505040E695001CCAF72BD05A
:1048D000FE2F29D0660F771F881FBB1F26173707AB
:1048E0004807AB07B0E809F0BB0B802DBF01FF27DD
:1048F00093585F4F3AF09E3F510578F00C94CD22CB
:104900000C9418235F3FE4F3983ED4F38695779593
:104910006795B795F7959F5FC9F7880F911D969595
:10492000879597F90895E1E0660F771F881FBB1FF1
:10493000621773078407BA0720F0621B730B840B9E
:10494000BA0BEE1F88F7E09508950E94AC24689496
:10495000B1110C94182308950E94FD2288F09F57EE
:1049600098F0B92F9927B751B0F0E1F0660F771F93
:10497000881F991F1AF0BA95C9F714C0B13091F089
:104980000E941723B1E008950C941723672F782F06
:104990008827B85F39F0B93FCCF38695779567954E
:1049A000B395D9F73EF490958095709561957F4FBA
:1049B0008F4F9F4F08950E943C2208F48FEF089577
:1049C0000E94FD22E8F09E37E8F09639B8F49E3850
:1049D00048F4672F782F8827985FF9CF86957795C9
:1049E000679593959539D0F3B62FB1706B0F711D04
:1049F000811D20F487957795679593950C944F25A5
:104A00000C946A250C94182319F416F40C94D322F0
:104A10000C946A250E94FD22B8F39923C9F3B6F3DA
:104A20009F57550B87FF0E9478250024A0E640EA97
:104A3000900180585695979528F4805C660F771FF3
:104A4000881F20F026173707480730F4621B730BC6
:104A5000840B202931294A2BA695179407942025E9
:104A600031254A2758F7660F771F881F20F0261731
:104A70003707480730F4620B730B840B200D311D90
:104A8000411DA09581F7B901842F9158880F969503
:104A9000879508950E943C22880B990B08958823DE
:104AA00071F4772321F09850872B762F07C0662367
:104AB00011F499270DC09051862B70E060E02AF028
:104AC0009A95660F771F881FDAF7880F9695879556
:104AD00097F908959F3F31F0915020F4879577958D
:104AE0006795B795880F911D9695879597F90895C5
:104AF00091505040660F771F881FD2F7089597FB9B
:104B0000072E16F4009407D077FD09D00E94A02547
:104B100007FC05D03EF4909581959F4F08957095C0
:104B200061957F4F0895EE0FFF1F0590F491E02DE2
:104B300009940E94B723B7FF0895821B930B089531
:104B4000AA1BBB1B51E107C0AA1FBB1FA617B707B3
:104B500010F0A61BB70B881F991F5A95A9F78095CF
:104B60009095BC01CD010895CF93DF9382309105DC
:104B700010F482E090E0E0919F05F091A00520E024
:104B800030E0C0E0D0E0309711F14081518148170A
:104B90005907C0F04817590761F482819381209723
:104BA00019F09B838A832BC09093A00580939F0567
:104BB00026C02115310519F04217530718F49A0140
:104BC000BE01DF01EF010280F381E02DDCCF211572
:104BD000310509F1281B390B2430310590F4129668
:104BE0008D919C9113976115710521F0FB019383C1
:104BF000828304C09093A00580939F05FD013296A7
:104C000044C0FD01E20FF31F8193919322503109BB
:104C10002D933C933AC020919D0530919E05232B06
:104C200041F4209120013091210130939E05209381
:104C30009D0520911E0130911F012115310541F480
:104C40002DB73EB74091220150912301241B350B13
:104C5000E0919D05F0919E05E217F307A0F42E1B4D
:104C60003F0B2817390778F0AC014E5F5F4F2417D0
:104C7000350748F04E0F5F1F50939E0540939D05EA
:104C80008193919302C0E0E0F0E0CF01DF91CF91FA
:104C900008950F931F93CF93DF93009709F48CC06F
:104CA000FC0132971382128200919F051091A0059A
:104CB0000115110581F420813181820F931F20910C
:104CC0009D0530919E052817390779F5F0939E05CB
:104CD000E0939D0571C0D80140E050E0AE17BF07DA
:104CE00050F412962D913C911397AD012115310589
:104CF00009F1D901F3CF9D01DA0133832283608169
:104D00007181860F971F8217930769F4EC01288140
:104D10003981260F371F2E5F3F4F318320838A81D1
:104D20009B8193838283452B29F4F093A005E09324
:104D30009F0542C01396FC93EE931297ED014991A3
:104D400059919E01240F351FE217F30771F48081FA
:104D50009181840F951F029611969C938E93828168
:104D6000938113969C938E931297E0E0F0E0D80124
:104D700012968D919C911397009719F0F8018C0170
:104D8000F6CF8D919C9198012E5F3F4F820F931F1C
:104D900020919D0530919E052817390769F43097B9
:104DA00029F41092A00510929F0502C0138212826E
:104DB00010939E0500939D05DF91CF911F910F9158
:104DC0000895A0E0B0E0E7EEF6E20C946223EC0177
:104DD000009721F4CB010E94B425B8C0FC01E60F76
:104DE000F71F9C0122503109E217F30708F4ACC009
:104DF000D9010D911C91119706171707B0F00530D6
:104E0000110508F49FC0C80104978617970708F496
:104E100099C002501109061B170B019311936D9352
:104E20007C93CF010E9449268DC05B01A01AB10A74
:104E30004C01800E911EA0919F05B091A00540E00D
:104E400050E0E12CF12C109709F44AC0A815B905DF
:104E5000D1F56D907C901197630182E0C80ED11C52
:104E6000CA14DB0480F1A3014A195B096A0182E0DC
:104E7000C80ED11C1296BC9012971396AC91B5E057
:104E8000CB16D10440F0B282A38351834083D90171
:104E90006D937C930AC00E5F1F4FC301800F911F5B
:104EA000F90191838083EB2DFA2FE114F10431F0A5
:104EB000D7011396FC93EE93129744C0F093A0058C
:104EC000E0939F053FC08D919C911197481759071A
:104ED00008F4AC017D0112960D90BC91A02DB3CFCA
:104EE00080919D0590919E0588159905E1F44617DE
:104EF0005707C8F480911E0190911F01009741F45B
:104F00008DB79EB74091220150912301841B950BD0
:104F1000E817F907C8F4F0939E05E0939D05F901A1
:104F2000718360830FC0CB010E94B4257C01009780
:104F300059F0A801BE010E94B027CE010E94492667
:104F4000C70104C0CE0102C080E090E0CDB7DEB75B
:104F5000EEE00C947E2381E090E0F8940C94C0275E
:104F6000FB01DC0102C001900D9241505040D8F786
:104F70000895FB01DC0101900D920020E1F70895F6
:104F800010E0C6EDD0E004C0FE010E9493252196FA
:0A4F9000C73DD107C9F7F894FFCF21
:104F9A000C12120C00000000F00A010005000100CA
:104FAA00050037002D00010008005A000C0000001F
:104FBA00A1058000000000006901730F0101B00122
:104FCA00320110012401000000002107F106F70751
:104FDA00CB06E906DA06CC06000000003E02730F93
:104FEA00F707F60716052A02CD02AC0200000000F8
:104FFA006907730FF7076807BD07D50750072053DE
:10500A004F4C415220494E56455254455220002099
:10501A002020205349544F4E203231302020200086
:10502A002073772E76382E312E3030202020202003
:10503A00002030362F32303232202020202020200B
:10504A00200020546F6D6173204E657672656C6125
:10505A00202076796C657073656E69202020205453
:10506A006F6D6173204368766174616C2020002043
:10507A00746E7765622E746F64652E637A202020C1
:10508A0020206F6420202020202020207777772E70
:10509A00666F72646961672E637A2000202020544B
:1050AA00657374204D505054202020200025200084
:1050BA0020204E414450524F55444F564120200023
:1050CA002020204F434852414E41212120202000D8
:1050DA00562000450054004120005700737472693D
:1050EA0064613A00252020202020200030006B57E0
:1050FA006820202000202D2D00432000572000206A
:10510A006D696E2E002B00252020004561737954AD
:10511A0072616E73666572004D6F646275732052B8
:10512A0054552020004E45202020202020202000F9
:10513A00414E4F20202020202020200053544F5041
:10514A0020006B57680053706C6F743A007C000D36
:10515A000A002020204E414450524F55442120201D
:0E516A0020006E616E00696E66006F76660052
:107800000C94343C0C94513C0C94513C0C94513CE1
:107810000C94513C0C94513C0C94513C0C94513CB4
:107820000C94513C0C94513C0C94513C0C94513CA4
:107830000C94513C0C94513C0C94513C0C94513C94
:107840000C94513C0C94513C0C94513C0C94513C84
:107850000C94513C0C94513C0C94513C0C94513C74
:107860000C94513C0C94513C11241FBECFEFD8E036
:10787000DEBFCDBF11E0A0E0B1E0ECE9FFE702C060
:1078800005900D92A230B107D9F712E0A2E0B1E065
:1078900001C01D92AD30B107E1F70E942D3D0C945F
:1078A000CC3F0C94003C982F959595959595959582
:1078B000905D8F708A307CF0282F295A8091C0000B
:1078C00085FFFCCF9093C6008091C00085FFFCCF60
:1078D0002093C6000895282F205DF0CF982F809127
:1078E000C00085FFFCCF9093C6000895EF92FF92F1
:1078F0000F931F93EE24FF2487018091C00087FD22
:1079000017C00894E11CF11C011D111D81E4E8164B
:1079100082E4F8068FE0080780E0180770F3E09132
:107920000401F091050109958091C00087FFE9CF1E
:107930008091C6001F910F91FF90EF9008950E94D3
:10794000763C982F8091C00085FFFCCF9093C600B5
:1079500091362CF490330CF09053892F089597555D
:10796000892F08951F930E949F3C182F0E949F3CCF
:107970001295107F810F1F9108951F93182F882350
:1079800021F00E94763C1150E1F71F9108951F935A
:10799000182F0E94763C803249F0809103018F5F5E
:1079A000809303018530C1F01F9108958091C0003C
:1079B00085FFFCCF84E18093C6008091C00085FFE5
:1079C000FCCF1093C6008091C00085FFFCCF80E102
:1079D0008093C6001F910895E0910401F091050184
:1079E00009951F9108950E94763C803241F0809164
:1079F00003018F5F80930301853081F008958091AA
:107A0000C00085FFFCCF84E18093C6008091C00058
:107A100085FFFCCF80E18093C6000895E0910401CA
:107A2000F09105010995089540E951E08823A1F0FE
:107A30002D9A28EE33E0FA013197F1F721503040CA
:107A4000D1F72D9828EE33E0FA013197F1F7215064
:107A50003040D1F7815061F708953F924F925F9285
:107A60006F927F928F929F92AF92BF92CF92DF924E
:107A7000EF92FF920F931F93CF93DF93000080E16B
:107A80008093C4001092C50088E18093C10086E015
:107A90008093C2005098589A259A81E00E94143D24
:107AA00024E1F22E9EE1E92E85E9D82E0FE0C02ECA
:107AB00010E1B12EAA24A394B1E49B2EA6E58A2E50
:107AC000F2E57F2EE0E26E2E79E4572E63E5462E36
:107AD00050E5352E0E94763C8033B1F18133B9F107
:107AE000803409F46FC0813409F476C0823409F41B
:107AF00085C0853409F488C0803531F1823521F1A3
:107B0000813511F1853509F485C0863509F48DC0BC
:107B1000843609F496C0843709F403C1853709F423
:107B200072C1863709F466C0809103018F5F80932C
:107B30000301853079F6E0910401F0910501099582
:107B40000E94763C803351F60E94F33CC3CF0E94E2
:107B5000763C803249F78091C00085FFFCCFF092DF
:107B6000C6008091C00085FFFCCF9092C600809136
:107B7000C00085FFFCCF8092C6008091C00085FFC9
:107B8000FCCF7092C6008091C00085FFFCCF609250
:107B9000C6008091C00085FFFCCF5092C600809146
:107BA000C00085FFFCCF4092C6008091C00085FFD9
:107BB000FCCF3092C6008091C00085FFFCCFB09210
:107BC000C60088CF0E94763C863808F4BDCF0E945C
:107BD000763C0E94F33C7ECF0E94763C803809F4CC
:107BE0009CC0813809F40BC1823809F43CC1883942
:107BF00009F48FC080E00E94C73C6CCF84E10E94F2
:107C0000BD3C0E94F33C66CF85E00E94BD3C0E94D3
:107C1000F33C60CF0E94763C809306010E94763C44
:107C2000809307010E94F33C55CF0E94763C80333D
:107C300009F41DC183E00E94BD3C80E00E94C73C66
:107C400049CF0E94763C809309020E94763C809343
:107C5000080280910C028E7F80930C020E94763C79
:107C6000853409F415C18091080290910902892B8D
:107C700089F000E010E00E94763CF801E85FFE4FDA
:107C800080830F5F1F4F80910802909109020817AF
:107C9000190788F30E94763C803209F045CF809125
:107CA0000C0280FF01C16091060170910701660F0F
:107CB000771F7093070160930601A0910802B091AD
:107CC00009021097C9F0E8E0F1E09B01AD014E0F09
:107CD0005F1FF999FECF32BD21BD819180BDFA9A17
:107CE000F99A2F5F3F4FE417F50799F76A0F7B1F4B
:107CF00070930701609306018091C00085FFFCCF5F
:107D0000F092C6008091C00085FFFCCFB092C60003
:107D1000E1CE83E00E94C73CDDCE82E00E94C73CFA
:107D2000D9CE0E94763C809309020E94763C8093D3
:107D300008028091060190910701880F991F909386
:107D40000701809306010E94763C853409F4A6C0A1
:107D500080910C028E7F80930C020E94763C8032D0
:107D600009F0B8CE8091C00085FFFCCFF092C6002C
:107D7000609108027091090261157105B9F140E046
:107D800050E080910C02A82FA170B82FB27011C0E2
:107D9000BB2309F45CC0E0910601F0910701319624
:107DA000F0930701E09306014F5F5F4F46175707B7
:107DB000E8F4AA2369F3F999FECF209106013091E6
:107DC000070132BD21BDF89A90B58091C00085FFB2
:107DD000FCCF9093C6002F5F3F4F30930701209355
:107DE00006014F5F5F4F4617570718F38091C00099
:107DF00085FDE5CE8091C00085FFF8CFE0CE81E023
:107E00000E94C73C67CE0E94763C803209F08CCE3F
:107E10008091C00085FFFCCFF092C6008091C00029
:107E200085FFFCCFE092C6008091C00085FFFCCFAB
:107E3000D092C6008091C00085FFFCCFC092C600E2
:107E40008091C00085FFFCCFB092C60043CEE09188
:107E50000601F091070194918091C00085FFFCCF4D
:107E60009093C6009CCF80E10E94C73C33CE0E9415
:107E7000763C0E94763C182F0E94763C112309F430
:107E800083C0113009F484C08FE00E94C73C22CE29
:107E900080910C02816080930C02E5CE80910C02EF
:107EA000816080930C0259CF809107018823880F4D
:107EB000880B8A2180930B02809106019091070123
:107EC000880F991F90930701809306018091080203
:107ED00080FF09C080910802909109020196909359
:107EE000090280930802F894F999FECF1127E091D6
:107EF0000601F0910701C8E0D1E08091080290915D
:107F00000902103091F40091570001700130D9F34B
:107F100003E000935700E89500915700017001308D
:107F2000D9F301E100935700E89509901990009169
:107F3000570001700130D9F301E000935700E89534
:107F40001395103498F011270091570001700130FB
:107F5000D9F305E000935700E895009157000170B0
:107F60000130D9F301E100935700E895329602976A
:107F700009F0C7CF103011F00296E5CF112480919F
:107F8000C00085FFB9CEBCCE8EE10E94C73CA2CD19
:0C7F900085E90E94C73C9ECDF894FFCF0D
:027F9C00800063
:040000030000780081
:00000001FF